{
	"contracts/ERC721.sol": {
		"ERC721": {
			"abi": [
				{
					"inputs": [
						{
							"internalType": "string",
							"name": "_name",
							"type": "string"
						},
						{
							"internalType": "string",
							"name": "_symbol",
							"type": "string"
						}
					],
					"stateMutability": "nonpayable",
					"type": "constructor"
				},
				{
					"anonymous": false,
					"inputs": [
						{
							"indexed": true,
							"internalType": "address",
							"name": "owner",
							"type": "address"
						},
						{
							"indexed": true,
							"internalType": "address",
							"name": "approved",
							"type": "address"
						},
						{
							"indexed": true,
							"internalType": "uint256",
							"name": "tokenId",
							"type": "uint256"
						}
					],
					"name": "Approval",
					"type": "event"
				},
				{
					"anonymous": false,
					"inputs": [
						{
							"indexed": true,
							"internalType": "address",
							"name": "owner",
							"type": "address"
						},
						{
							"indexed": true,
							"internalType": "address",
							"name": "operator",
							"type": "address"
						},
						{
							"indexed": false,
							"internalType": "bool",
							"name": "approved",
							"type": "bool"
						}
					],
					"name": "ApprovalForAll",
					"type": "event"
				},
				{
					"anonymous": false,
					"inputs": [
						{
							"indexed": true,
							"internalType": "address",
							"name": "from",
							"type": "address"
						},
						{
							"indexed": true,
							"internalType": "address",
							"name": "to",
							"type": "address"
						},
						{
							"indexed": true,
							"internalType": "uint256",
							"name": "tokenId",
							"type": "uint256"
						}
					],
					"name": "Transfer",
					"type": "event"
				},
				{
					"inputs": [
						{
							"internalType": "address",
							"name": "_approved",
							"type": "address"
						},
						{
							"internalType": "uint256",
							"name": "_tokenId",
							"type": "uint256"
						}
					],
					"name": "approve",
					"outputs": [],
					"stateMutability": "nonpayable",
					"type": "function"
				},
				{
					"inputs": [
						{
							"internalType": "address",
							"name": "_owner",
							"type": "address"
						}
					],
					"name": "balanceOf",
					"outputs": [
						{
							"internalType": "uint256",
							"name": "",
							"type": "uint256"
						}
					],
					"stateMutability": "view",
					"type": "function"
				},
				{
					"inputs": [
						{
							"internalType": "uint256",
							"name": "_tokenId",
							"type": "uint256"
						}
					],
					"name": "getApproved",
					"outputs": [
						{
							"internalType": "address",
							"name": "",
							"type": "address"
						}
					],
					"stateMutability": "view",
					"type": "function"
				},
				{
					"inputs": [
						{
							"internalType": "address",
							"name": "_owner",
							"type": "address"
						},
						{
							"internalType": "address",
							"name": "_operator",
							"type": "address"
						}
					],
					"name": "isApprovedForAll",
					"outputs": [
						{
							"internalType": "bool",
							"name": "",
							"type": "bool"
						}
					],
					"stateMutability": "view",
					"type": "function"
				},
				{
					"inputs": [
						{
							"internalType": "address",
							"name": "_to",
							"type": "address"
						},
						{
							"internalType": "string",
							"name": "_tokenURI",
							"type": "string"
						}
					],
					"name": "mint",
					"outputs": [],
					"stateMutability": "nonpayable",
					"type": "function"
				},
				{
					"inputs": [],
					"name": "name",
					"outputs": [
						{
							"internalType": "string",
							"name": "",
							"type": "string"
						}
					],
					"stateMutability": "view",
					"type": "function"
				},
				{
					"inputs": [],
					"name": "nextTokenIdToMint",
					"outputs": [
						{
							"internalType": "uint256",
							"name": "",
							"type": "uint256"
						}
					],
					"stateMutability": "view",
					"type": "function"
				},
				{
					"inputs": [],
					"name": "owner",
					"outputs": [
						{
							"internalType": "address",
							"name": "",
							"type": "address"
						}
					],
					"stateMutability": "view",
					"type": "function"
				},
				{
					"inputs": [
						{
							"internalType": "uint256",
							"name": "tokenId",
							"type": "uint256"
						}
					],
					"name": "ownerOf",
					"outputs": [
						{
							"internalType": "address",
							"name": "",
							"type": "address"
						}
					],
					"stateMutability": "view",
					"type": "function"
				},
				{
					"inputs": [
						{
							"internalType": "address",
							"name": "_from",
							"type": "address"
						},
						{
							"internalType": "address",
							"name": "_to",
							"type": "address"
						},
						{
							"internalType": "uint256",
							"name": "_tokenId",
							"type": "uint256"
						}
					],
					"name": "safeTransferFrom",
					"outputs": [],
					"stateMutability": "nonpayable",
					"type": "function"
				},
				{
					"inputs": [
						{
							"internalType": "address",
							"name": "_from",
							"type": "address"
						},
						{
							"internalType": "address",
							"name": "_to",
							"type": "address"
						},
						{
							"internalType": "uint256",
							"name": "_tokenId",
							"type": "uint256"
						},
						{
							"internalType": "bytes",
							"name": "_data",
							"type": "bytes"
						}
					],
					"name": "safeTransferFrom",
					"outputs": [],
					"stateMutability": "nonpayable",
					"type": "function"
				},
				{
					"inputs": [
						{
							"internalType": "address",
							"name": "_operator",
							"type": "address"
						},
						{
							"internalType": "bool",
							"name": "_approved",
							"type": "bool"
						}
					],
					"name": "setApprovalForAll",
					"outputs": [],
					"stateMutability": "nonpayable",
					"type": "function"
				},
				{
					"inputs": [
						{
							"internalType": "bytes4",
							"name": "interfaceId",
							"type": "bytes4"
						}
					],
					"name": "supportsInterface",
					"outputs": [
						{
							"internalType": "bool",
							"name": "",
							"type": "bool"
						}
					],
					"stateMutability": "pure",
					"type": "function"
				},
				{
					"inputs": [],
					"name": "symbol",
					"outputs": [
						{
							"internalType": "string",
							"name": "",
							"type": "string"
						}
					],
					"stateMutability": "view",
					"type": "function"
				},
				{
					"inputs": [
						{
							"internalType": "uint256",
							"name": "tokenId",
							"type": "uint256"
						}
					],
					"name": "tokenURI",
					"outputs": [
						{
							"internalType": "string",
							"name": "",
							"type": "string"
						}
					],
					"stateMutability": "view",
					"type": "function"
				},
				{
					"inputs": [],
					"name": "totalSupply",
					"outputs": [
						{
							"internalType": "uint256",
							"name": "",
							"type": "uint256"
						}
					],
					"stateMutability": "view",
					"type": "function"
				},
				{
					"inputs": [
						{
							"internalType": "address",
							"name": "_from",
							"type": "address"
						},
						{
							"internalType": "address",
							"name": "_to",
							"type": "address"
						},
						{
							"internalType": "uint256",
							"name": "_tokenId",
							"type": "uint256"
						}
					],
					"name": "transferFrom",
					"outputs": [],
					"stateMutability": "payable",
					"type": "function"
				}
			],
			"devdoc": {
				"kind": "dev",
				"methods": {},
				"version": 1
			},
			"evm": {
				"assembly": "    /* \"contracts/ERC721.sol\":92:6725  contract ERC721 {... */\n  mstore(0x40, 0x80)\n    /* \"contracts/ERC721.sol\":1151:1326  constructor(string memory _name, string memory _symbol) {... */\n  callvalue\n  dup1\n  iszero\n  tag_1\n  jumpi\n  revert(0x00, 0x00)\ntag_1:\n  pop\n  mload(0x40)\n  sub(codesize, bytecodeSize)\n  dup1\n  bytecodeSize\n  dup4\n  codecopy\n  dup2\n  dup2\n  add\n  0x40\n  mstore\n  dup2\n  add\n  swap1\n  tag_2\n  swap2\n  swap1\n  tag_3\n  jump\t// in\ntag_2:\n    /* \"contracts/ERC721.sol\":1225:1230  _name */\n  dup2\n    /* \"contracts/ERC721.sol\":1218:1222  name */\n  0x00\n    /* \"contracts/ERC721.sol\":1218:1230  name = _name */\n  swap1\n  dup2\n  tag_6\n  swap2\n  swap1\n  tag_7\n  jump\t// in\ntag_6:\n  pop\n    /* \"contracts/ERC721.sol\":1250:1257  _symbol */\n  dup1\n    /* \"contracts/ERC721.sol\":1241:1247  symbol */\n  0x01\n    /* \"contracts/ERC721.sol\":1241:1257  symbol = _symbol */\n  swap1\n  dup2\n  tag_8\n  swap2\n  swap1\n  tag_7\n  jump\t// in\ntag_8:\n  pop\n    /* \"contracts/ERC721.sol\":1288:1289  1 */\n  0x01\n    /* \"contracts/ERC721.sol\":1268:1285  nextTokenIdToMint */\n  0x02\n    /* \"contracts/ERC721.sol\":1268:1289  nextTokenIdToMint = 1 */\n  dup2\n  swap1\n  sstore\n  pop\n    /* \"contracts/ERC721.sol\":1308:1318  msg.sender */\n  caller\n    /* \"contracts/ERC721.sol\":1300:1305  owner */\n  0x03\n  0x00\n    /* \"contracts/ERC721.sol\":1300:1318  owner = msg.sender */\n  0x0100\n  exp\n  dup2\n  sload\n  dup2\n  0xffffffffffffffffffffffffffffffffffffffff\n  mul\n  not\n  and\n  swap1\n  dup4\n  0xffffffffffffffffffffffffffffffffffffffff\n  and\n  mul\n  or\n  swap1\n  sstore\n  pop\n    /* \"contracts/ERC721.sol\":1151:1326  constructor(string memory _name, string memory _symbol) {... */\n  pop\n  pop\n    /* \"contracts/ERC721.sol\":92:6725  contract ERC721 {... */\n  jump(tag_9)\n    /* \"#utility.yul\":7:82   */\ntag_10:\n    /* \"#utility.yul\":40:46   */\n  0x00\n    /* \"#utility.yul\":73:75   */\n  0x40\n    /* \"#utility.yul\":67:76   */\n  mload\n    /* \"#utility.yul\":57:76   */\n  swap1\n  pop\n    /* \"#utility.yul\":7:82   */\n  swap1\n  jump\t// out\n    /* \"#utility.yul\":88:205   */\ntag_11:\n    /* \"#utility.yul\":197:198   */\n  0x00\n    /* \"#utility.yul\":194:195   */\n  0x00\n    /* \"#utility.yul\":187:199   */\n  revert\n    /* \"#utility.yul\":211:328   */\ntag_12:\n    /* \"#utility.yul\":320:321   */\n  0x00\n    /* \"#utility.yul\":317:318   */\n  0x00\n    /* \"#utility.yul\":310:322   */\n  revert\n    /* \"#utility.yul\":334:451   */\ntag_13:\n    /* \"#utility.yul\":443:444   */\n  0x00\n    /* \"#utility.yul\":440:441   */\n  0x00\n    /* \"#utility.yul\":433:445   */\n  revert\n    /* \"#utility.yul\":457:574   */\ntag_14:\n    /* \"#utility.yul\":566:567   */\n  0x00\n    /* \"#utility.yul\":563:564   */\n  0x00\n    /* \"#utility.yul\":556:568   */\n  revert\n    /* \"#utility.yul\":580:682   */\ntag_15:\n    /* \"#utility.yul\":621:627   */\n  0x00\n    /* \"#utility.yul\":672:674   */\n  0x1f\n    /* \"#utility.yul\":668:675   */\n  not\n    /* \"#utility.yul\":663:665   */\n  0x1f\n    /* \"#utility.yul\":656:661   */\n  dup4\n    /* \"#utility.yul\":652:666   */\n  add\n    /* \"#utility.yul\":648:676   */\n  and\n    /* \"#utility.yul\":638:676   */\n  swap1\n  pop\n    /* \"#utility.yul\":580:682   */\n  swap2\n  swap1\n  pop\n  jump\t// out\n    /* \"#utility.yul\":688:868   */\ntag_16:\n    /* \"#utility.yul\":736:813   */\n  0x4e487b7100000000000000000000000000000000000000000000000000000000\n    /* \"#utility.yul\":733:734   */\n  0x00\n    /* \"#utility.yul\":726:814   */\n  mstore\n    /* \"#utility.yul\":833:837   */\n  0x41\n    /* \"#utility.yul\":830:831   */\n  0x04\n    /* \"#utility.yul\":823:838   */\n  mstore\n    /* \"#utility.yul\":857:861   */\n  0x24\n    /* \"#utility.yul\":854:855   */\n  0x00\n    /* \"#utility.yul\":847:862   */\n  revert\n    /* \"#utility.yul\":874:1155   */\ntag_17:\n    /* \"#utility.yul\":957:984   */\n  tag_51\n    /* \"#utility.yul\":979:983   */\n  dup3\n    /* \"#utility.yul\":957:984   */\n  tag_15\n  jump\t// in\ntag_51:\n    /* \"#utility.yul\":949:955   */\n  dup2\n    /* \"#utility.yul\":945:985   */\n  add\n    /* \"#utility.yul\":1087:1093   */\n  dup2\n    /* \"#utility.yul\":1075:1085   */\n  dup2\n    /* \"#utility.yul\":1072:1094   */\n  lt\n    /* \"#utility.yul\":1051:1069   */\n  0xffffffffffffffff\n    /* \"#utility.yul\":1039:1049   */\n  dup3\n    /* \"#utility.yul\":1036:1070   */\n  gt\n    /* \"#utility.yul\":1033:1095   */\n  or\n    /* \"#utility.yul\":1030:1118   */\n  iszero\n  tag_52\n  jumpi\n    /* \"#utility.yul\":1098:1116   */\n  tag_53\n  tag_16\n  jump\t// in\ntag_53:\n    /* \"#utility.yul\":1030:1118   */\ntag_52:\n    /* \"#utility.yul\":1138:1148   */\n  dup1\n    /* \"#utility.yul\":1134:1136   */\n  0x40\n    /* \"#utility.yul\":1127:1149   */\n  mstore\n    /* \"#utility.yul\":917:1155   */\n  pop\n    /* \"#utility.yul\":874:1155   */\n  pop\n  pop\n  jump\t// out\n    /* \"#utility.yul\":1161:1290   */\ntag_18:\n    /* \"#utility.yul\":1195:1201   */\n  0x00\n    /* \"#utility.yul\":1222:1242   */\n  tag_55\n  tag_10\n  jump\t// in\ntag_55:\n    /* \"#utility.yul\":1212:1242   */\n  swap1\n  pop\n    /* \"#utility.yul\":1251:1284   */\n  tag_56\n    /* \"#utility.yul\":1279:1283   */\n  dup3\n    /* \"#utility.yul\":1271:1277   */\n  dup3\n    /* \"#utility.yul\":1251:1284   */\n  tag_17\n  jump\t// in\ntag_56:\n    /* \"#utility.yul\":1161:1290   */\n  swap2\n  swap1\n  pop\n  jump\t// out\n    /* \"#utility.yul\":1296:1604   */\ntag_19:\n    /* \"#utility.yul\":1358:1362   */\n  0x00\n    /* \"#utility.yul\":1448:1466   */\n  0xffffffffffffffff\n    /* \"#utility.yul\":1440:1446   */\n  dup3\n    /* \"#utility.yul\":1437:1467   */\n  gt\n    /* \"#utility.yul\":1434:1490   */\n  iszero\n  tag_58\n  jumpi\n    /* \"#utility.yul\":1470:1488   */\n  tag_59\n  tag_16\n  jump\t// in\ntag_59:\n    /* \"#utility.yul\":1434:1490   */\ntag_58:\n    /* \"#utility.yul\":1508:1537   */\n  tag_60\n    /* \"#utility.yul\":1530:1536   */\n  dup3\n    /* \"#utility.yul\":1508:1537   */\n  tag_15\n  jump\t// in\ntag_60:\n    /* \"#utility.yul\":1500:1537   */\n  swap1\n  pop\n    /* \"#utility.yul\":1592:1596   */\n  0x20\n    /* \"#utility.yul\":1586:1590   */\n  dup2\n    /* \"#utility.yul\":1582:1597   */\n  add\n    /* \"#utility.yul\":1574:1597   */\n  swap1\n  pop\n    /* \"#utility.yul\":1296:1604   */\n  swap2\n  swap1\n  pop\n  jump\t// out\n    /* \"#utility.yul\":1610:1749   */\ntag_20:\n    /* \"#utility.yul\":1699:1705   */\n  dup3\n    /* \"#utility.yul\":1694:1697   */\n  dup2\n    /* \"#utility.yul\":1689:1692   */\n  dup4\n    /* \"#utility.yul\":1683:1706   */\n  mcopy\n    /* \"#utility.yul\":1740:1741   */\n  0x00\n    /* \"#utility.yul\":1731:1737   */\n  dup4\n    /* \"#utility.yul\":1726:1729   */\n  dup4\n    /* \"#utility.yul\":1722:1738   */\n  add\n    /* \"#utility.yul\":1715:1742   */\n  mstore\n    /* \"#utility.yul\":1610:1749   */\n  pop\n  pop\n  pop\n  jump\t// out\n    /* \"#utility.yul\":1755:2189   */\ntag_21:\n    /* \"#utility.yul\":1844:1849   */\n  0x00\n    /* \"#utility.yul\":1869:1935   */\n  tag_63\n    /* \"#utility.yul\":1885:1934   */\n  tag_64\n    /* \"#utility.yul\":1927:1933   */\n  dup5\n    /* \"#utility.yul\":1885:1934   */\n  tag_19\n  jump\t// in\ntag_64:\n    /* \"#utility.yul\":1869:1935   */\n  tag_18\n  jump\t// in\ntag_63:\n    /* \"#utility.yul\":1860:1935   */\n  swap1\n  pop\n    /* \"#utility.yul\":1958:1964   */\n  dup3\n    /* \"#utility.yul\":1951:1956   */\n  dup2\n    /* \"#utility.yul\":1944:1965   */\n  mstore\n    /* \"#utility.yul\":1996:2000   */\n  0x20\n    /* \"#utility.yul\":1989:1994   */\n  dup2\n    /* \"#utility.yul\":1985:2001   */\n  add\n    /* \"#utility.yul\":2034:2037   */\n  dup5\n    /* \"#utility.yul\":2025:2031   */\n  dup5\n    /* \"#utility.yul\":2020:2023   */\n  dup5\n    /* \"#utility.yul\":2016:2032   */\n  add\n    /* \"#utility.yul\":2013:2038   */\n  gt\n    /* \"#utility.yul\":2010:2122   */\n  iszero\n  tag_65\n  jumpi\n    /* \"#utility.yul\":2041:2120   */\n  tag_66\n  tag_14\n  jump\t// in\ntag_66:\n    /* \"#utility.yul\":2010:2122   */\ntag_65:\n    /* \"#utility.yul\":2131:2183   */\n  tag_67\n    /* \"#utility.yul\":2176:2182   */\n  dup5\n    /* \"#utility.yul\":2171:2174   */\n  dup3\n    /* \"#utility.yul\":2166:2169   */\n  dup6\n    /* \"#utility.yul\":2131:2183   */\n  tag_20\n  jump\t// in\ntag_67:\n    /* \"#utility.yul\":1850:2189   */\n  pop\n    /* \"#utility.yul\":1755:2189   */\n  swap4\n  swap3\n  pop\n  pop\n  pop\n  jump\t// out\n    /* \"#utility.yul\":2209:2564   */\ntag_22:\n    /* \"#utility.yul\":2276:2281   */\n  0x00\n    /* \"#utility.yul\":2325:2328   */\n  dup3\n    /* \"#utility.yul\":2318:2322   */\n  0x1f\n    /* \"#utility.yul\":2310:2316   */\n  dup4\n    /* \"#utility.yul\":2306:2323   */\n  add\n    /* \"#utility.yul\":2302:2329   */\n  slt\n    /* \"#utility.yul\":2292:2414   */\n  tag_69\n  jumpi\n    /* \"#utility.yul\":2333:2412   */\n  tag_70\n  tag_13\n  jump\t// in\ntag_70:\n    /* \"#utility.yul\":2292:2414   */\ntag_69:\n    /* \"#utility.yul\":2443:2449   */\n  dup2\n    /* \"#utility.yul\":2437:2450   */\n  mload\n    /* \"#utility.yul\":2468:2558   */\n  tag_71\n    /* \"#utility.yul\":2554:2557   */\n  dup5\n    /* \"#utility.yul\":2546:2552   */\n  dup3\n    /* \"#utility.yul\":2539:2543   */\n  0x20\n    /* \"#utility.yul\":2531:2537   */\n  dup7\n    /* \"#utility.yul\":2527:2544   */\n  add\n    /* \"#utility.yul\":2468:2558   */\n  tag_21\n  jump\t// in\ntag_71:\n    /* \"#utility.yul\":2459:2558   */\n  swap2\n  pop\n    /* \"#utility.yul\":2282:2564   */\n  pop\n    /* \"#utility.yul\":2209:2564   */\n  swap3\n  swap2\n  pop\n  pop\n  jump\t// out\n    /* \"#utility.yul\":2570:3423   */\ntag_3:\n    /* \"#utility.yul\":2669:2675   */\n  0x00\n    /* \"#utility.yul\":2677:2683   */\n  0x00\n    /* \"#utility.yul\":2726:2728   */\n  0x40\n    /* \"#utility.yul\":2714:2723   */\n  dup4\n    /* \"#utility.yul\":2705:2712   */\n  dup6\n    /* \"#utility.yul\":2701:2724   */\n  sub\n    /* \"#utility.yul\":2697:2729   */\n  slt\n    /* \"#utility.yul\":2694:2813   */\n  iszero\n  tag_73\n  jumpi\n    /* \"#utility.yul\":2732:2811   */\n  tag_74\n  tag_11\n  jump\t// in\ntag_74:\n    /* \"#utility.yul\":2694:2813   */\ntag_73:\n    /* \"#utility.yul\":2873:2874   */\n  0x00\n    /* \"#utility.yul\":2862:2871   */\n  dup4\n    /* \"#utility.yul\":2858:2875   */\n  add\n    /* \"#utility.yul\":2852:2876   */\n  mload\n    /* \"#utility.yul\":2903:2921   */\n  0xffffffffffffffff\n    /* \"#utility.yul\":2895:2901   */\n  dup2\n    /* \"#utility.yul\":2892:2922   */\n  gt\n    /* \"#utility.yul\":2889:3006   */\n  iszero\n  tag_75\n  jumpi\n    /* \"#utility.yul\":2925:3004   */\n  tag_76\n  tag_12\n  jump\t// in\ntag_76:\n    /* \"#utility.yul\":2889:3006   */\ntag_75:\n    /* \"#utility.yul\":3030:3104   */\n  tag_77\n    /* \"#utility.yul\":3096:3103   */\n  dup6\n    /* \"#utility.yul\":3087:3093   */\n  dup3\n    /* \"#utility.yul\":3076:3085   */\n  dup7\n    /* \"#utility.yul\":3072:3094   */\n  add\n    /* \"#utility.yul\":3030:3104   */\n  tag_22\n  jump\t// in\ntag_77:\n    /* \"#utility.yul\":3020:3104   */\n  swap3\n  pop\n    /* \"#utility.yul\":2823:3114   */\n  pop\n    /* \"#utility.yul\":3174:3176   */\n  0x20\n    /* \"#utility.yul\":3163:3172   */\n  dup4\n    /* \"#utility.yul\":3159:3177   */\n  add\n    /* \"#utility.yul\":3153:3178   */\n  mload\n    /* \"#utility.yul\":3205:3223   */\n  0xffffffffffffffff\n    /* \"#utility.yul\":3197:3203   */\n  dup2\n    /* \"#utility.yul\":3194:3224   */\n  gt\n    /* \"#utility.yul\":3191:3308   */\n  iszero\n  tag_78\n  jumpi\n    /* \"#utility.yul\":3227:3306   */\n  tag_79\n  tag_12\n  jump\t// in\ntag_79:\n    /* \"#utility.yul\":3191:3308   */\ntag_78:\n    /* \"#utility.yul\":3332:3406   */\n  tag_80\n    /* \"#utility.yul\":3398:3405   */\n  dup6\n    /* \"#utility.yul\":3389:3395   */\n  dup3\n    /* \"#utility.yul\":3378:3387   */\n  dup7\n    /* \"#utility.yul\":3374:3396   */\n  add\n    /* \"#utility.yul\":3332:3406   */\n  tag_22\n  jump\t// in\ntag_80:\n    /* \"#utility.yul\":3322:3406   */\n  swap2\n  pop\n    /* \"#utility.yul\":3124:3416   */\n  pop\n    /* \"#utility.yul\":2570:3423   */\n  swap3\n  pop\n  swap3\n  swap1\n  pop\n  jump\t// out\n    /* \"#utility.yul\":3429:3528   */\ntag_23:\n    /* \"#utility.yul\":3481:3487   */\n  0x00\n    /* \"#utility.yul\":3515:3520   */\n  dup2\n    /* \"#utility.yul\":3509:3521   */\n  mload\n    /* \"#utility.yul\":3499:3521   */\n  swap1\n  pop\n    /* \"#utility.yul\":3429:3528   */\n  swap2\n  swap1\n  pop\n  jump\t// out\n    /* \"#utility.yul\":3534:3714   */\ntag_24:\n    /* \"#utility.yul\":3582:3659   */\n  0x4e487b7100000000000000000000000000000000000000000000000000000000\n    /* \"#utility.yul\":3579:3580   */\n  0x00\n    /* \"#utility.yul\":3572:3660   */\n  mstore\n    /* \"#utility.yul\":3679:3683   */\n  0x22\n    /* \"#utility.yul\":3676:3677   */\n  0x04\n    /* \"#utility.yul\":3669:3684   */\n  mstore\n    /* \"#utility.yul\":3703:3707   */\n  0x24\n    /* \"#utility.yul\":3700:3701   */\n  0x00\n    /* \"#utility.yul\":3693:3708   */\n  revert\n    /* \"#utility.yul\":3720:4040   */\ntag_25:\n    /* \"#utility.yul\":3764:3770   */\n  0x00\n    /* \"#utility.yul\":3801:3802   */\n  0x02\n    /* \"#utility.yul\":3795:3799   */\n  dup3\n    /* \"#utility.yul\":3791:3803   */\n  div\n    /* \"#utility.yul\":3781:3803   */\n  swap1\n  pop\n    /* \"#utility.yul\":3848:3849   */\n  0x01\n    /* \"#utility.yul\":3842:3846   */\n  dup3\n    /* \"#utility.yul\":3838:3850   */\n  and\n    /* \"#utility.yul\":3869:3887   */\n  dup1\n    /* \"#utility.yul\":3859:3940   */\n  tag_84\n  jumpi\n    /* \"#utility.yul\":3925:3929   */\n  0x7f\n    /* \"#utility.yul\":3917:3923   */\n  dup3\n    /* \"#utility.yul\":3913:3930   */\n  and\n    /* \"#utility.yul\":3903:3930   */\n  swap2\n  pop\n    /* \"#utility.yul\":3859:3940   */\ntag_84:\n    /* \"#utility.yul\":3987:3989   */\n  0x20\n    /* \"#utility.yul\":3979:3985   */\n  dup3\n    /* \"#utility.yul\":3976:3990   */\n  lt\n    /* \"#utility.yul\":3956:3974   */\n  dup2\n    /* \"#utility.yul\":3953:3991   */\n  sub\n    /* \"#utility.yul\":3950:4034   */\n  tag_85\n  jumpi\n    /* \"#utility.yul\":4006:4024   */\n  tag_86\n  tag_24\n  jump\t// in\ntag_86:\n    /* \"#utility.yul\":3950:4034   */\ntag_85:\n    /* \"#utility.yul\":3771:4040   */\n  pop\n    /* \"#utility.yul\":3720:4040   */\n  swap2\n  swap1\n  pop\n  jump\t// out\n    /* \"#utility.yul\":4046:4187   */\ntag_26:\n    /* \"#utility.yul\":4095:4099   */\n  0x00\n    /* \"#utility.yul\":4118:4121   */\n  dup2\n    /* \"#utility.yul\":4110:4121   */\n  swap1\n  pop\n    /* \"#utility.yul\":4141:4144   */\n  dup2\n    /* \"#utility.yul\":4138:4139   */\n  0x00\n    /* \"#utility.yul\":4131:4145   */\n  mstore\n    /* \"#utility.yul\":4175:4179   */\n  0x20\n    /* \"#utility.yul\":4172:4173   */\n  0x00\n    /* \"#utility.yul\":4162:4180   */\n  keccak256\n    /* \"#utility.yul\":4154:4180   */\n  swap1\n  pop\n    /* \"#utility.yul\":4046:4187   */\n  swap2\n  swap1\n  pop\n  jump\t// out\n    /* \"#utility.yul\":4193:4286   */\ntag_27:\n    /* \"#utility.yul\":4230:4236   */\n  0x00\n    /* \"#utility.yul\":4277:4279   */\n  0x20\n    /* \"#utility.yul\":4272:4274   */\n  0x1f\n    /* \"#utility.yul\":4265:4270   */\n  dup4\n    /* \"#utility.yul\":4261:4275   */\n  add\n    /* \"#utility.yul\":4257:4280   */\n  div\n    /* \"#utility.yul\":4247:4280   */\n  swap1\n  pop\n    /* \"#utility.yul\":4193:4286   */\n  swap2\n  swap1\n  pop\n  jump\t// out\n    /* \"#utility.yul\":4292:4399   */\ntag_28:\n    /* \"#utility.yul\":4336:4344   */\n  0x00\n    /* \"#utility.yul\":4386:4391   */\n  dup3\n    /* \"#utility.yul\":4380:4384   */\n  dup3\n    /* \"#utility.yul\":4376:4392   */\n  shl\n    /* \"#utility.yul\":4355:4392   */\n  swap1\n  pop\n    /* \"#utility.yul\":4292:4399   */\n  swap3\n  swap2\n  pop\n  pop\n  jump\t// out\n    /* \"#utility.yul\":4405:4798   */\ntag_29:\n    /* \"#utility.yul\":4474:4480   */\n  0x00\n    /* \"#utility.yul\":4524:4525   */\n  0x08\n    /* \"#utility.yul\":4512:4522   */\n  dup4\n    /* \"#utility.yul\":4508:4526   */\n  mul\n    /* \"#utility.yul\":4547:4644   */\n  tag_91\n    /* \"#utility.yul\":4577:4643   */\n  0xffffffffffffffffffffffffffffffffffffffffffffffffffffffffffffffff\n    /* \"#utility.yul\":4566:4575   */\n  dup3\n    /* \"#utility.yul\":4547:4644   */\n  tag_28\n  jump\t// in\ntag_91:\n    /* \"#utility.yul\":4665:4704   */\n  tag_92\n    /* \"#utility.yul\":4695:4703   */\n  dup7\n    /* \"#utility.yul\":4684:4693   */\n  dup4\n    /* \"#utility.yul\":4665:4704   */\n  tag_28\n  jump\t// in\ntag_92:\n    /* \"#utility.yul\":4653:4704   */\n  swap6\n  pop\n    /* \"#utility.yul\":4737:4741   */\n  dup1\n    /* \"#utility.yul\":4733:4742   */\n  not\n    /* \"#utility.yul\":4726:4731   */\n  dup5\n    /* \"#utility.yul\":4722:4743   */\n  and\n    /* \"#utility.yul\":4713:4743   */\n  swap4\n  pop\n    /* \"#utility.yul\":4786:4790   */\n  dup1\n    /* \"#utility.yul\":4776:4784   */\n  dup7\n    /* \"#utility.yul\":4772:4791   */\n  and\n    /* \"#utility.yul\":4765:4770   */\n  dup5\n    /* \"#utility.yul\":4762:4792   */\n  or\n    /* \"#utility.yul\":4752:4792   */\n  swap3\n  pop\n    /* \"#utility.yul\":4481:4798   */\n  pop\n  pop\n    /* \"#utility.yul\":4405:4798   */\n  swap4\n  swap3\n  pop\n  pop\n  pop\n  jump\t// out\n    /* \"#utility.yul\":4804:4881   */\ntag_30:\n    /* \"#utility.yul\":4841:4848   */\n  0x00\n    /* \"#utility.yul\":4870:4875   */\n  dup2\n    /* \"#utility.yul\":4859:4875   */\n  swap1\n  pop\n    /* \"#utility.yul\":4804:4881   */\n  swap2\n  swap1\n  pop\n  jump\t// out\n    /* \"#utility.yul\":4887:4947   */\ntag_31:\n    /* \"#utility.yul\":4915:4918   */\n  0x00\n    /* \"#utility.yul\":4936:4941   */\n  dup2\n    /* \"#utility.yul\":4929:4941   */\n  swap1\n  pop\n    /* \"#utility.yul\":4887:4947   */\n  swap2\n  swap1\n  pop\n  jump\t// out\n    /* \"#utility.yul\":4953:5095   */\ntag_32:\n    /* \"#utility.yul\":5003:5012   */\n  0x00\n    /* \"#utility.yul\":5036:5089   */\n  tag_96\n    /* \"#utility.yul\":5054:5088   */\n  tag_97\n    /* \"#utility.yul\":5063:5087   */\n  tag_98\n    /* \"#utility.yul\":5081:5086   */\n  dup5\n    /* \"#utility.yul\":5063:5087   */\n  tag_30\n  jump\t// in\ntag_98:\n    /* \"#utility.yul\":5054:5088   */\n  tag_31\n  jump\t// in\ntag_97:\n    /* \"#utility.yul\":5036:5089   */\n  tag_30\n  jump\t// in\ntag_96:\n    /* \"#utility.yul\":5023:5089   */\n  swap1\n  pop\n    /* \"#utility.yul\":4953:5095   */\n  swap2\n  swap1\n  pop\n  jump\t// out\n    /* \"#utility.yul\":5101:5176   */\ntag_33:\n    /* \"#utility.yul\":5144:5147   */\n  0x00\n    /* \"#utility.yul\":5165:5170   */\n  dup2\n    /* \"#utility.yul\":5158:5170   */\n  swap1\n  pop\n    /* \"#utility.yul\":5101:5176   */\n  swap2\n  swap1\n  pop\n  jump\t// out\n    /* \"#utility.yul\":5182:5451   */\ntag_34:\n    /* \"#utility.yul\":5292:5331   */\n  tag_101\n    /* \"#utility.yul\":5323:5330   */\n  dup4\n    /* \"#utility.yul\":5292:5331   */\n  tag_32\n  jump\t// in\ntag_101:\n    /* \"#utility.yul\":5353:5444   */\n  tag_102\n    /* \"#utility.yul\":5402:5443   */\n  tag_103\n    /* \"#utility.yul\":5426:5442   */\n  dup3\n    /* \"#utility.yul\":5402:5443   */\n  tag_33\n  jump\t// in\ntag_103:\n    /* \"#utility.yul\":5394:5400   */\n  dup5\n    /* \"#utility.yul\":5387:5391   */\n  dup5\n    /* \"#utility.yul\":5381:5392   */\n  sload\n    /* \"#utility.yul\":5353:5444   */\n  tag_29\n  jump\t// in\ntag_102:\n    /* \"#utility.yul\":5347:5351   */\n  dup3\n    /* \"#utility.yul\":5340:5445   */\n  sstore\n    /* \"#utility.yul\":5258:5451   */\n  pop\n    /* \"#utility.yul\":5182:5451   */\n  pop\n  pop\n  pop\n  jump\t// out\n    /* \"#utility.yul\":5457:5530   */\ntag_35:\n    /* \"#utility.yul\":5502:5505   */\n  0x00\n    /* \"#utility.yul\":5523:5524   */\n  0x00\n    /* \"#utility.yul\":5516:5524   */\n  swap1\n  pop\n    /* \"#utility.yul\":5457:5530   */\n  swap1\n  jump\t// out\n    /* \"#utility.yul\":5536:5725   */\ntag_36:\n    /* \"#utility.yul\":5613:5645   */\n  tag_106\n  tag_35\n  jump\t// in\ntag_106:\n    /* \"#utility.yul\":5654:5719   */\n  tag_107\n    /* \"#utility.yul\":5712:5718   */\n  dup2\n    /* \"#utility.yul\":5704:5710   */\n  dup5\n    /* \"#utility.yul\":5698:5702   */\n  dup5\n    /* \"#utility.yul\":5654:5719   */\n  tag_34\n  jump\t// in\ntag_107:\n    /* \"#utility.yul\":5589:5725   */\n  pop\n    /* \"#utility.yul\":5536:5725   */\n  pop\n  pop\n  jump\t// out\n    /* \"#utility.yul\":5731:5917   */\ntag_37:\n    /* \"#utility.yul\":5791:5911   */\ntag_109:\n    /* \"#utility.yul\":5808:5811   */\n  dup2\n    /* \"#utility.yul\":5801:5806   */\n  dup2\n    /* \"#utility.yul\":5798:5812   */\n  lt\n    /* \"#utility.yul\":5791:5911   */\n  iszero\n  tag_111\n  jumpi\n    /* \"#utility.yul\":5862:5901   */\n  tag_112\n    /* \"#utility.yul\":5899:5900   */\n  0x00\n    /* \"#utility.yul\":5892:5897   */\n  dup3\n    /* \"#utility.yul\":5862:5901   */\n  tag_36\n  jump\t// in\ntag_112:\n    /* \"#utility.yul\":5835:5836   */\n  0x01\n    /* \"#utility.yul\":5828:5833   */\n  dup2\n    /* \"#utility.yul\":5824:5837   */\n  add\n    /* \"#utility.yul\":5815:5837   */\n  swap1\n  pop\n    /* \"#utility.yul\":5791:5911   */\n  jump(tag_109)\ntag_111:\n    /* \"#utility.yul\":5731:5917   */\n  pop\n  pop\n  jump\t// out\n    /* \"#utility.yul\":5923:6466   */\ntag_38:\n    /* \"#utility.yul\":6024:6026   */\n  0x1f\n    /* \"#utility.yul\":6019:6022   */\n  dup3\n    /* \"#utility.yul\":6016:6027   */\n  gt\n    /* \"#utility.yul\":6013:6459   */\n  iszero\n  tag_114\n  jumpi\n    /* \"#utility.yul\":6058:6096   */\n  tag_115\n    /* \"#utility.yul\":6090:6095   */\n  dup2\n    /* \"#utility.yul\":6058:6096   */\n  tag_26\n  jump\t// in\ntag_115:\n    /* \"#utility.yul\":6142:6171   */\n  tag_116\n    /* \"#utility.yul\":6160:6170   */\n  dup5\n    /* \"#utility.yul\":6142:6171   */\n  tag_27\n  jump\t// in\ntag_116:\n    /* \"#utility.yul\":6132:6140   */\n  dup2\n    /* \"#utility.yul\":6128:6172   */\n  add\n    /* \"#utility.yul\":6325:6327   */\n  0x20\n    /* \"#utility.yul\":6313:6323   */\n  dup6\n    /* \"#utility.yul\":6310:6328   */\n  lt\n    /* \"#utility.yul\":6307:6356   */\n  iszero\n  tag_117\n  jumpi\n    /* \"#utility.yul\":6346:6354   */\n  dup2\n    /* \"#utility.yul\":6331:6354   */\n  swap1\n  pop\n    /* \"#utility.yul\":6307:6356   */\ntag_117:\n    /* \"#utility.yul\":6369:6449   */\n  tag_118\n    /* \"#utility.yul\":6425:6447   */\n  tag_119\n    /* \"#utility.yul\":6443:6446   */\n  dup6\n    /* \"#utility.yul\":6425:6447   */\n  tag_27\n  jump\t// in\ntag_119:\n    /* \"#utility.yul\":6415:6423   */\n  dup4\n    /* \"#utility.yul\":6411:6448   */\n  add\n    /* \"#utility.yul\":6398:6409   */\n  dup3\n    /* \"#utility.yul\":6369:6449   */\n  tag_37\n  jump\t// in\ntag_118:\n    /* \"#utility.yul\":6028:6459   */\n  pop\n  pop\n    /* \"#utility.yul\":6013:6459   */\ntag_114:\n    /* \"#utility.yul\":5923:6466   */\n  pop\n  pop\n  pop\n  jump\t// out\n    /* \"#utility.yul\":6472:6589   */\ntag_39:\n    /* \"#utility.yul\":6526:6534   */\n  0x00\n    /* \"#utility.yul\":6576:6581   */\n  dup3\n    /* \"#utility.yul\":6570:6574   */\n  dup3\n    /* \"#utility.yul\":6566:6582   */\n  shr\n    /* \"#utility.yul\":6545:6582   */\n  swap1\n  pop\n    /* \"#utility.yul\":6472:6589   */\n  swap3\n  swap2\n  pop\n  pop\n  jump\t// out\n    /* \"#utility.yul\":6595:6764   */\ntag_40:\n    /* \"#utility.yul\":6639:6645   */\n  0x00\n    /* \"#utility.yul\":6672:6723   */\n  tag_122\n    /* \"#utility.yul\":6720:6721   */\n  0x00\n    /* \"#utility.yul\":6716:6722   */\n  not\n    /* \"#utility.yul\":6708:6713   */\n  dup5\n    /* \"#utility.yul\":6705:6706   */\n  0x08\n    /* \"#utility.yul\":6701:6714   */\n  mul\n    /* \"#utility.yul\":6672:6723   */\n  tag_39\n  jump\t// in\ntag_122:\n    /* \"#utility.yul\":6668:6724   */\n  not\n    /* \"#utility.yul\":6753:6757   */\n  dup1\n    /* \"#utility.yul\":6747:6751   */\n  dup4\n    /* \"#utility.yul\":6743:6758   */\n  and\n    /* \"#utility.yul\":6733:6758   */\n  swap2\n  pop\n    /* \"#utility.yul\":6646:6764   */\n  pop\n    /* \"#utility.yul\":6595:6764   */\n  swap3\n  swap2\n  pop\n  pop\n  jump\t// out\n    /* \"#utility.yul\":6769:7064   */\ntag_41:\n    /* \"#utility.yul\":6845:6849   */\n  0x00\n    /* \"#utility.yul\":6991:7020   */\n  tag_124\n    /* \"#utility.yul\":7016:7019   */\n  dup4\n    /* \"#utility.yul\":7010:7014   */\n  dup4\n    /* \"#utility.yul\":6991:7020   */\n  tag_40\n  jump\t// in\ntag_124:\n    /* \"#utility.yul\":6983:7020   */\n  swap2\n  pop\n    /* \"#utility.yul\":7053:7056   */\n  dup3\n    /* \"#utility.yul\":7050:7051   */\n  0x02\n    /* \"#utility.yul\":7046:7057   */\n  mul\n    /* \"#utility.yul\":7040:7044   */\n  dup3\n    /* \"#utility.yul\":7037:7058   */\n  or\n    /* \"#utility.yul\":7029:7058   */\n  swap1\n  pop\n    /* \"#utility.yul\":6769:7064   */\n  swap3\n  swap2\n  pop\n  pop\n  jump\t// out\n    /* \"#utility.yul\":7069:8464   */\ntag_7:\n    /* \"#utility.yul\":7186:7223   */\n  tag_126\n    /* \"#utility.yul\":7219:7222   */\n  dup3\n    /* \"#utility.yul\":7186:7223   */\n  tag_23\n  jump\t// in\ntag_126:\n    /* \"#utility.yul\":7288:7306   */\n  0xffffffffffffffff\n    /* \"#utility.yul\":7280:7286   */\n  dup2\n    /* \"#utility.yul\":7277:7307   */\n  gt\n    /* \"#utility.yul\":7274:7330   */\n  iszero\n  tag_127\n  jumpi\n    /* \"#utility.yul\":7310:7328   */\n  tag_128\n  tag_16\n  jump\t// in\ntag_128:\n    /* \"#utility.yul\":7274:7330   */\ntag_127:\n    /* \"#utility.yul\":7354:7392   */\n  tag_129\n    /* \"#utility.yul\":7386:7390   */\n  dup3\n    /* \"#utility.yul\":7380:7391   */\n  sload\n    /* \"#utility.yul\":7354:7392   */\n  tag_25\n  jump\t// in\ntag_129:\n    /* \"#utility.yul\":7439:7506   */\n  tag_130\n    /* \"#utility.yul\":7499:7505   */\n  dup3\n    /* \"#utility.yul\":7491:7497   */\n  dup3\n    /* \"#utility.yul\":7485:7489   */\n  dup6\n    /* \"#utility.yul\":7439:7506   */\n  tag_38\n  jump\t// in\ntag_130:\n    /* \"#utility.yul\":7533:7534   */\n  0x00\n    /* \"#utility.yul\":7557:7561   */\n  0x20\n    /* \"#utility.yul\":7544:7561   */\n  swap1\n  pop\n    /* \"#utility.yul\":7589:7591   */\n  0x1f\n    /* \"#utility.yul\":7581:7587   */\n  dup4\n    /* \"#utility.yul\":7578:7592   */\n  gt\n    /* \"#utility.yul\":7606:7607   */\n  0x01\n    /* \"#utility.yul\":7601:8219   */\n  dup2\n  eq\n  tag_132\n  jumpi\n    /* \"#utility.yul\":8263:8264   */\n  0x00\n    /* \"#utility.yul\":8280:8286   */\n  dup5\n    /* \"#utility.yul\":8277:8354   */\n  iszero\n  tag_133\n  jumpi\n    /* \"#utility.yul\":8329:8338   */\n  dup3\n    /* \"#utility.yul\":8324:8327   */\n  dup8\n    /* \"#utility.yul\":8320:8339   */\n  add\n    /* \"#utility.yul\":8314:8340   */\n  mload\n    /* \"#utility.yul\":8305:8340   */\n  swap1\n  pop\n    /* \"#utility.yul\":8277:8354   */\ntag_133:\n    /* \"#utility.yul\":8380:8447   */\n  tag_134\n    /* \"#utility.yul\":8440:8446   */\n  dup6\n    /* \"#utility.yul\":8433:8438   */\n  dup3\n    /* \"#utility.yul\":8380:8447   */\n  tag_41\n  jump\t// in\ntag_134:\n    /* \"#utility.yul\":8374:8378   */\n  dup7\n    /* \"#utility.yul\":8367:8448   */\n  sstore\n    /* \"#utility.yul\":8236:8458   */\n  pop\n    /* \"#utility.yul\":7571:8458   */\n  jump(tag_131)\n    /* \"#utility.yul\":7601:8219   */\ntag_132:\n    /* \"#utility.yul\":7653:7657   */\n  0x1f\n    /* \"#utility.yul\":7649:7658   */\n  not\n    /* \"#utility.yul\":7641:7647   */\n  dup5\n    /* \"#utility.yul\":7637:7659   */\n  and\n    /* \"#utility.yul\":7687:7724   */\n  tag_135\n    /* \"#utility.yul\":7719:7723   */\n  dup7\n    /* \"#utility.yul\":7687:7724   */\n  tag_26\n  jump\t// in\ntag_135:\n    /* \"#utility.yul\":7746:7747   */\n  0x00\n    /* \"#utility.yul\":7760:7968   */\ntag_136:\n    /* \"#utility.yul\":7774:7781   */\n  dup3\n    /* \"#utility.yul\":7771:7772   */\n  dup2\n    /* \"#utility.yul\":7768:7782   */\n  lt\n    /* \"#utility.yul\":7760:7968   */\n  iszero\n  tag_138\n  jumpi\n    /* \"#utility.yul\":7853:7862   */\n  dup5\n    /* \"#utility.yul\":7848:7851   */\n  dup10\n    /* \"#utility.yul\":7844:7863   */\n  add\n    /* \"#utility.yul\":7838:7864   */\n  mload\n    /* \"#utility.yul\":7830:7836   */\n  dup3\n    /* \"#utility.yul\":7823:7865   */\n  sstore\n    /* \"#utility.yul\":7904:7905   */\n  0x01\n    /* \"#utility.yul\":7896:7902   */\n  dup3\n    /* \"#utility.yul\":7892:7906   */\n  add\n    /* \"#utility.yul\":7882:7906   */\n  swap2\n  pop\n    /* \"#utility.yul\":7951:7953   */\n  0x20\n    /* \"#utility.yul\":7940:7949   */\n  dup6\n    /* \"#utility.yul\":7936:7954   */\n  add\n    /* \"#utility.yul\":7923:7954   */\n  swap5\n  pop\n    /* \"#utility.yul\":7797:7801   */\n  0x20\n    /* \"#utility.yul\":7794:7795   */\n  dup2\n    /* \"#utility.yul\":7790:7802   */\n  add\n    /* \"#utility.yul\":7785:7802   */\n  swap1\n  pop\n    /* \"#utility.yul\":7760:7968   */\n  jump(tag_136)\ntag_138:\n    /* \"#utility.yul\":7996:8002   */\n  dup7\n    /* \"#utility.yul\":7987:7994   */\n  dup4\n    /* \"#utility.yul\":7984:8003   */\n  lt\n    /* \"#utility.yul\":7981:8160   */\n  iszero\n  tag_139\n  jumpi\n    /* \"#utility.yul\":8054:8063   */\n  dup5\n    /* \"#utility.yul\":8049:8052   */\n  dup10\n    /* \"#utility.yul\":8045:8064   */\n  add\n    /* \"#utility.yul\":8039:8065   */\n  mload\n    /* \"#utility.yul\":8097:8145   */\n  tag_140\n    /* \"#utility.yul\":8139:8143   */\n  0x1f\n    /* \"#utility.yul\":8131:8137   */\n  dup10\n    /* \"#utility.yul\":8127:8144   */\n  and\n    /* \"#utility.yul\":8116:8125   */\n  dup3\n    /* \"#utility.yul\":8097:8145   */\n  tag_40\n  jump\t// in\ntag_140:\n    /* \"#utility.yul\":8089:8095   */\n  dup4\n    /* \"#utility.yul\":8082:8146   */\n  sstore\n    /* \"#utility.yul\":8004:8160   */\n  pop\n    /* \"#utility.yul\":7981:8160   */\ntag_139:\n    /* \"#utility.yul\":8206:8207   */\n  0x01\n    /* \"#utility.yul\":8202:8203   */\n  0x02\n    /* \"#utility.yul\":8194:8200   */\n  dup9\n    /* \"#utility.yul\":8190:8204   */\n  mul\n    /* \"#utility.yul\":8186:8208   */\n  add\n    /* \"#utility.yul\":8180:8184   */\n  dup9\n    /* \"#utility.yul\":8173:8209   */\n  sstore\n    /* \"#utility.yul\":7608:8219   */\n  pop\n  pop\n  pop\n    /* \"#utility.yul\":7571:8458   */\ntag_131:\n  pop\n    /* \"#utility.yul\":7161:8464   */\n  pop\n  pop\n  pop\n    /* \"#utility.yul\":7069:8464   */\n  pop\n  pop\n  jump\t// out\n    /* \"contracts/ERC721.sol\":92:6725  contract ERC721 {... */\ntag_9:\n  dataSize(sub_0)\n  dup1\n  dataOffset(sub_0)\n  0x00\n  codecopy\n  0x00\n  return\nstop\n\nsub_0: assembly {\n        /* \"contracts/ERC721.sol\":92:6725  contract ERC721 {... */\n      mstore(0x40, 0x80)\n      jumpi(tag_1, lt(calldatasize, 0x04))\n      shr(0xe0, calldataload(0x00))\n      dup1\n      0x6352211e\n      gt\n      tag_19\n      jumpi\n      dup1\n      0xa22cb465\n      gt\n      tag_20\n      jumpi\n      dup1\n      0xa22cb465\n      eq\n      tag_14\n      jumpi\n      dup1\n      0xb88d4fde\n      eq\n      tag_15\n      jumpi\n      dup1\n      0xc87b56dd\n      eq\n      tag_16\n      jumpi\n      dup1\n      0xd0def521\n      eq\n      tag_17\n      jumpi\n      dup1\n      0xe985e9c5\n      eq\n      tag_18\n      jumpi\n      jump(tag_1)\n    tag_20:\n      dup1\n      0x6352211e\n      eq\n      tag_10\n      jumpi\n      dup1\n      0x70a08231\n      eq\n      tag_11\n      jumpi\n      dup1\n      0x8da5cb5b\n      eq\n      tag_12\n      jumpi\n      dup1\n      0x95d89b41\n      eq\n      tag_13\n      jumpi\n      jump(tag_1)\n    tag_19:\n      dup1\n      0x18160ddd\n      gt\n      tag_21\n      jumpi\n      dup1\n      0x18160ddd\n      eq\n      tag_6\n      jumpi\n      dup1\n      0x23b872dd\n      eq\n      tag_7\n      jumpi\n      dup1\n      0x3b1475a7\n      eq\n      tag_8\n      jumpi\n      dup1\n      0x42842e0e\n      eq\n      tag_9\n      jumpi\n      jump(tag_1)\n    tag_21:\n      dup1\n      0x01ffc9a7\n      eq\n      tag_2\n      jumpi\n      dup1\n      0x06fdde03\n      eq\n      tag_3\n      jumpi\n      dup1\n      0x081812fc\n      eq\n      tag_4\n      jumpi\n      dup1\n      0x095ea7b3\n      eq\n      tag_5\n      jumpi\n    tag_1:\n      revert(0x00, 0x00)\n        /* \"contracts/ERC721.sol\":4943:5203  function supportsInterface(bytes4 interfaceId) public pure returns (bool) {... */\n    tag_2:\n      callvalue\n      dup1\n      iszero\n      tag_22\n      jumpi\n      revert(0x00, 0x00)\n    tag_22:\n      pop\n      tag_23\n      0x04\n      dup1\n      calldatasize\n      sub\n      dup2\n      add\n      swap1\n      tag_24\n      swap2\n      swap1\n      tag_25\n      jump\t// in\n    tag_24:\n      tag_26\n      jump\t// in\n    tag_23:\n      mload(0x40)\n      tag_27\n      swap2\n      swap1\n      tag_28\n      jump\t// in\n    tag_27:\n      mload(0x40)\n      dup1\n      swap2\n      sub\n      swap1\n      return\n        /* \"contracts/ERC721.sol\":115:133  string public name */\n    tag_3:\n      callvalue\n      dup1\n      iszero\n      tag_29\n      jumpi\n      revert(0x00, 0x00)\n    tag_29:\n      pop\n      tag_30\n      tag_31\n      jump\t// in\n    tag_30:\n      mload(0x40)\n      tag_32\n      swap2\n      swap1\n      tag_33\n      jump\t// in\n    tag_32:\n      mload(0x40)\n      dup1\n      swap2\n      sub\n      swap1\n      return\n        /* \"contracts/ERC721.sol\":3731:3987  function getApproved(uint256 _tokenId) public view returns (address) {... */\n    tag_4:\n      callvalue\n      dup1\n      iszero\n      tag_34\n      jumpi\n      revert(0x00, 0x00)\n    tag_34:\n      pop\n      tag_35\n      0x04\n      dup1\n      calldatasize\n      sub\n      dup2\n      add\n      swap1\n      tag_36\n      swap2\n      swap1\n      tag_37\n      jump\t// in\n    tag_36:\n      tag_38\n      jump\t// in\n    tag_35:\n      mload(0x40)\n      tag_39\n      swap2\n      swap1\n      tag_40\n      jump\t// in\n    tag_39:\n      mload(0x40)\n      dup1\n      swap2\n      sub\n      swap1\n      return\n        /* \"contracts/ERC721.sol\":3124:3438  function approve(address _approved, uint256 _tokenId) public {... */\n    tag_5:\n      callvalue\n      dup1\n      iszero\n      tag_41\n      jumpi\n      revert(0x00, 0x00)\n    tag_41:\n      pop\n      tag_42\n      0x04\n      dup1\n      calldatasize\n      sub\n      dup2\n      add\n      swap1\n      tag_43\n      swap2\n      swap1\n      tag_44\n      jump\t// in\n    tag_43:\n      tag_45\n      jump\t// in\n    tag_42:\n      stop\n        /* \"contracts/ERC721.sol\":4835:4935  function totalSupply() public view returns (uint256) {... */\n    tag_6:\n      callvalue\n      dup1\n      iszero\n      tag_46\n      jumpi\n      revert(0x00, 0x00)\n    tag_46:\n      pop\n      tag_47\n      tag_48\n      jump\t// in\n    tag_47:\n      mload(0x40)\n      tag_49\n      swap2\n      swap1\n      tag_50\n      jump\t// in\n    tag_49:\n      mload(0x40)\n      dup1\n      swap2\n      sub\n      swap1\n      return\n        /* \"contracts/ERC721.sol\":2678:3116  function transferFrom(... */\n    tag_7:\n      tag_51\n      0x04\n      dup1\n      calldatasize\n      sub\n      dup2\n      add\n      swap1\n      tag_52\n      swap2\n      swap1\n      tag_53\n      jump\t// in\n    tag_52:\n      tag_54\n      jump\t// in\n    tag_51:\n      stop\n        /* \"contracts/ERC721.sol\":169:201  uint256 public nextTokenIdToMint */\n    tag_8:\n      callvalue\n      dup1\n      iszero\n      tag_55\n      jumpi\n      revert(0x00, 0x00)\n    tag_55:\n      pop\n      tag_56\n      tag_57\n      jump\t// in\n    tag_56:\n      mload(0x40)\n      tag_58\n      swap2\n      swap1\n      tag_50\n      jump\t// in\n    tag_58:\n      mload(0x40)\n      dup1\n      swap2\n      sub\n      swap1\n      return\n        /* \"contracts/ERC721.sol\":1861:2035  function safeTransferFrom(... */\n    tag_9:\n      callvalue\n      dup1\n      iszero\n      tag_59\n      jumpi\n      revert(0x00, 0x00)\n    tag_59:\n      pop\n      tag_60\n      0x04\n      dup1\n      calldatasize\n      sub\n      dup2\n      add\n      swap1\n      tag_61\n      swap2\n      swap1\n      tag_53\n      jump\t// in\n    tag_61:\n      tag_62\n      jump\t// in\n    tag_60:\n      stop\n        /* \"contracts/ERC721.sol\":1573:1853  function ownerOf(uint256 tokenId) public view returns (address) {... */\n    tag_10:\n      callvalue\n      dup1\n      iszero\n      tag_63\n      jumpi\n      revert(0x00, 0x00)\n    tag_63:\n      pop\n      tag_64\n      0x04\n      dup1\n      calldatasize\n      sub\n      dup2\n      add\n      swap1\n      tag_65\n      swap2\n      swap1\n      tag_37\n      jump\t// in\n    tag_65:\n      tag_66\n      jump\t// in\n    tag_64:\n      mload(0x40)\n      tag_67\n      swap2\n      swap1\n      tag_40\n      jump\t// in\n    tag_67:\n      mload(0x40)\n      dup1\n      swap2\n      sub\n      swap1\n      return\n        /* \"contracts/ERC721.sol\":1334:1565  function balanceOf(address _owner) public view returns (uint256) {... */\n    tag_11:\n      callvalue\n      dup1\n      iszero\n      tag_68\n      jumpi\n      revert(0x00, 0x00)\n    tag_68:\n      pop\n      tag_69\n      0x04\n      dup1\n      calldatasize\n      sub\n      dup2\n      add\n      swap1\n      tag_70\n      swap2\n      swap1\n      tag_71\n      jump\t// in\n    tag_70:\n      tag_72\n      jump\t// in\n    tag_69:\n      mload(0x40)\n      tag_73\n      swap2\n      swap1\n      tag_50\n      jump\t// in\n    tag_73:\n      mload(0x40)\n      dup1\n      swap2\n      sub\n      swap1\n      return\n        /* \"contracts/ERC721.sol\":208:228  address public owner */\n    tag_12:\n      callvalue\n      dup1\n      iszero\n      tag_74\n      jumpi\n      revert(0x00, 0x00)\n    tag_74:\n      pop\n      tag_75\n      tag_76\n      jump\t// in\n    tag_75:\n      mload(0x40)\n      tag_77\n      swap2\n      swap1\n      tag_40\n      jump\t// in\n    tag_77:\n      mload(0x40)\n      dup1\n      swap2\n      sub\n      swap1\n      return\n        /* \"contracts/ERC721.sol\":140:160  string public symbol */\n    tag_13:\n      callvalue\n      dup1\n      iszero\n      tag_78\n      jumpi\n      revert(0x00, 0x00)\n    tag_78:\n      pop\n      tag_79\n      tag_80\n      jump\t// in\n    tag_79:\n      mload(0x40)\n      tag_81\n      swap2\n      swap1\n      tag_33\n      jump\t// in\n    tag_81:\n      mload(0x40)\n      dup1\n      swap2\n      sub\n      swap1\n      return\n        /* \"contracts/ERC721.sol\":3446:3723  function setApprovalForAll(address _operator, bool _approved) public {... */\n    tag_14:\n      callvalue\n      dup1\n      iszero\n      tag_82\n      jumpi\n      revert(0x00, 0x00)\n    tag_82:\n      pop\n      tag_83\n      0x04\n      dup1\n      calldatasize\n      sub\n      dup2\n      add\n      swap1\n      tag_84\n      swap2\n      swap1\n      tag_85\n      jump\t// in\n    tag_84:\n      tag_86\n      jump\t// in\n    tag_83:\n      stop\n        /* \"contracts/ERC721.sol\":2043:2670  function safeTransferFrom(... */\n    tag_15:\n      callvalue\n      dup1\n      iszero\n      tag_87\n      jumpi\n      revert(0x00, 0x00)\n    tag_87:\n      pop\n      tag_88\n      0x04\n      dup1\n      calldatasize\n      sub\n      dup2\n      add\n      swap1\n      tag_89\n      swap2\n      swap1\n      tag_90\n      jump\t// in\n    tag_89:\n      tag_91\n      jump\t// in\n    tag_88:\n      stop\n        /* \"contracts/ERC721.sol\":4573:4827  function tokenURI(uint256 tokenId) public view returns (string memory) {... */\n    tag_16:\n      callvalue\n      dup1\n      iszero\n      tag_92\n      jumpi\n      revert(0x00, 0x00)\n    tag_92:\n      pop\n      tag_93\n      0x04\n      dup1\n      calldatasize\n      sub\n      dup2\n      add\n      swap1\n      tag_94\n      swap2\n      swap1\n      tag_37\n      jump\t// in\n    tag_94:\n      tag_95\n      jump\t// in\n    tag_93:\n      mload(0x40)\n      tag_96\n      swap2\n      swap1\n      tag_33\n      jump\t// in\n    tag_96:\n      mload(0x40)\n      dup1\n      swap2\n      sub\n      swap1\n      return\n        /* \"contracts/ERC721.sol\":4179:4565  function mint(address _to, string memory _tokenURI) public {... */\n    tag_17:\n      callvalue\n      dup1\n      iszero\n      tag_97\n      jumpi\n      revert(0x00, 0x00)\n    tag_97:\n      pop\n      tag_98\n      0x04\n      dup1\n      calldatasize\n      sub\n      dup2\n      add\n      swap1\n      tag_99\n      swap2\n      swap1\n      tag_100\n      jump\t// in\n    tag_99:\n      tag_101\n      jump\t// in\n    tag_98:\n      stop\n        /* \"contracts/ERC721.sol\":3995:4171  function isApprovedForAll(... */\n    tag_18:\n      callvalue\n      dup1\n      iszero\n      tag_102\n      jumpi\n      revert(0x00, 0x00)\n    tag_102:\n      pop\n      tag_103\n      0x04\n      dup1\n      calldatasize\n      sub\n      dup2\n      add\n      swap1\n      tag_104\n      swap2\n      swap1\n      tag_105\n      jump\t// in\n    tag_104:\n      tag_106\n      jump\t// in\n    tag_103:\n      mload(0x40)\n      tag_107\n      swap2\n      swap1\n      tag_28\n      jump\t// in\n    tag_107:\n      mload(0x40)\n      dup1\n      swap2\n      sub\n      swap1\n      return\n        /* \"contracts/ERC721.sol\":4943:5203  function supportsInterface(bytes4 interfaceId) public pure returns (bool) {... */\n    tag_26:\n        /* \"contracts/ERC721.sol\":5011:5015  bool */\n      0x00\n        /* \"contracts/ERC721.sol\":5063:5073  0x80ac58cd */\n      0x80ac58cd\n        /* \"contracts/ERC721.sol\":5048:5073  interfaceId == 0x80ac58cd */\n      0xe0\n      shl\n        /* \"contracts/ERC721.sol\":5048:5059  interfaceId */\n      dup3\n        /* \"contracts/ERC721.sol\":5048:5073  interfaceId == 0x80ac58cd */\n      not(0xffffffffffffffffffffffffffffffffffffffffffffffffffffffff)\n      and\n      eq\n        /* \"contracts/ERC721.sol\":5048:5125  interfaceId == 0x80ac58cd || // ERC721... */\n      dup1\n      tag_109\n      jumpi\n      pop\n        /* \"contracts/ERC721.sol\":5115:5125  0x5b5e139f */\n      0x5b5e139f\n        /* \"contracts/ERC721.sol\":5100:5125  interfaceId == 0x5b5e139f */\n      0xe0\n      shl\n        /* \"contracts/ERC721.sol\":5100:5111  interfaceId */\n      dup3\n        /* \"contracts/ERC721.sol\":5100:5125  interfaceId == 0x5b5e139f */\n      not(0xffffffffffffffffffffffffffffffffffffffffffffffffffffffff)\n      and\n      eq\n        /* \"contracts/ERC721.sol\":5048:5125  interfaceId == 0x80ac58cd || // ERC721... */\n    tag_109:\n        /* \"contracts/ERC721.sol\":5048:5185  interfaceId == 0x80ac58cd || // ERC721... */\n      dup1\n      tag_110\n      jumpi\n      pop\n        /* \"contracts/ERC721.sol\":5175:5185  0x01ffc9a7 */\n      0x01ffc9a7\n        /* \"contracts/ERC721.sol\":5160:5185  interfaceId == 0x01ffc9a7 */\n      0xe0\n      shl\n        /* \"contracts/ERC721.sol\":5160:5171  interfaceId */\n      dup3\n        /* \"contracts/ERC721.sol\":5160:5185  interfaceId == 0x01ffc9a7 */\n      not(0xffffffffffffffffffffffffffffffffffffffffffffffffffffffff)\n      and\n      eq\n        /* \"contracts/ERC721.sol\":5048:5185  interfaceId == 0x80ac58cd || // ERC721... */\n    tag_110:\n        /* \"contracts/ERC721.sol\":5028:5185  return... */\n      swap1\n      pop\n        /* \"contracts/ERC721.sol\":4943:5203  function supportsInterface(bytes4 interfaceId) public pure returns (bool) {... */\n      swap2\n      swap1\n      pop\n      jump\t// out\n        /* \"contracts/ERC721.sol\":115:133  string public name */\n    tag_31:\n      0x00\n      dup1\n      sload\n      tag_111\n      swap1\n      tag_112\n      jump\t// in\n    tag_111:\n      dup1\n      0x1f\n      add\n      0x20\n      dup1\n      swap2\n      div\n      mul\n      0x20\n      add\n      mload(0x40)\n      swap1\n      dup2\n      add\n      0x40\n      mstore\n      dup1\n      swap3\n      swap2\n      swap1\n      dup2\n      dup2\n      mstore\n      0x20\n      add\n      dup3\n      dup1\n      sload\n      tag_113\n      swap1\n      tag_112\n      jump\t// in\n    tag_113:\n      dup1\n      iszero\n      tag_114\n      jumpi\n      dup1\n      0x1f\n      lt\n      tag_115\n      jumpi\n      0x0100\n      dup1\n      dup4\n      sload\n      div\n      mul\n      dup4\n      mstore\n      swap2\n      0x20\n      add\n      swap2\n      jump(tag_114)\n    tag_115:\n      dup3\n      add\n      swap2\n      swap1\n      0x00\n      mstore\n      keccak256(0x00, 0x20)\n      swap1\n    tag_116:\n      dup2\n      sload\n      dup2\n      mstore\n      swap1\n      0x01\n      add\n      swap1\n      0x20\n      add\n      dup1\n      dup4\n      gt\n      tag_116\n      jumpi\n      dup3\n      swap1\n      sub\n      0x1f\n      and\n      dup3\n      add\n      swap2\n    tag_114:\n      pop\n      pop\n      pop\n      pop\n      pop\n      dup2\n      jump\t// out\n        /* \"contracts/ERC721.sol\":3731:3987  function getApproved(uint256 _tokenId) public view returns (address) {... */\n    tag_38:\n        /* \"contracts/ERC721.sol\":3791:3798  address */\n      0x00\n        /* \"contracts/ERC721.sol\":3862:3863  0 */\n      0x00\n        /* \"contracts/ERC721.sol\":3833:3864  _owners[_tokenId] != address(0) */\n      0xffffffffffffffffffffffffffffffffffffffff\n      and\n        /* \"contracts/ERC721.sol\":3833:3840  _owners */\n      0x04\n        /* \"contracts/ERC721.sol\":3833:3850  _owners[_tokenId] */\n      0x00\n        /* \"contracts/ERC721.sol\":3841:3849  _tokenId */\n      dup5\n        /* \"contracts/ERC721.sol\":3833:3850  _owners[_tokenId] */\n      dup2\n      mstore\n      0x20\n      add\n      swap1\n      dup2\n      mstore\n      0x20\n      add\n      0x00\n      keccak256\n      0x00\n      swap1\n      sload\n      swap1\n      0x0100\n      exp\n      swap1\n      div\n      0xffffffffffffffffffffffffffffffffffffffff\n      and\n        /* \"contracts/ERC721.sol\":3833:3864  _owners[_tokenId] != address(0) */\n      0xffffffffffffffffffffffffffffffffffffffff\n      and\n      sub\n        /* \"contracts/ERC721.sol\":3811:3936  require(... */\n      tag_118\n      jumpi\n      mload(0x40)\n      0x08c379a000000000000000000000000000000000000000000000000000000000\n      dup2\n      mstore\n      0x04\n      add\n      tag_119\n      swap1\n      tag_120\n      jump\t// in\n    tag_119:\n      mload(0x40)\n      dup1\n      swap2\n      sub\n      swap1\n      revert\n    tag_118:\n        /* \"contracts/ERC721.sol\":3954:3969  _tokenApprovals */\n      0x06\n        /* \"contracts/ERC721.sol\":3954:3979  _tokenApprovals[_tokenId] */\n      0x00\n        /* \"contracts/ERC721.sol\":3970:3978  _tokenId */\n      dup4\n        /* \"contracts/ERC721.sol\":3954:3979  _tokenApprovals[_tokenId] */\n      dup2\n      mstore\n      0x20\n      add\n      swap1\n      dup2\n      mstore\n      0x20\n      add\n      0x00\n      keccak256\n      0x00\n      swap1\n      sload\n      swap1\n      0x0100\n      exp\n      swap1\n      div\n      0xffffffffffffffffffffffffffffffffffffffff\n      and\n        /* \"contracts/ERC721.sol\":3947:3979  return _tokenApprovals[_tokenId] */\n      swap1\n      pop\n        /* \"contracts/ERC721.sol\":3731:3987  function getApproved(uint256 _tokenId) public view returns (address) {... */\n      swap2\n      swap1\n      pop\n      jump\t// out\n        /* \"contracts/ERC721.sol\":3124:3438  function approve(address _approved, uint256 _tokenId) public {... */\n    tag_45:\n        /* \"contracts/ERC721.sol\":3239:3249  msg.sender */\n      caller\n        /* \"contracts/ERC721.sol\":3218:3249  ownerOf(_tokenId) == msg.sender */\n      0xffffffffffffffffffffffffffffffffffffffff\n      and\n        /* \"contracts/ERC721.sol\":3218:3235  ownerOf(_tokenId) */\n      tag_122\n        /* \"contracts/ERC721.sol\":3226:3234  _tokenId */\n      dup3\n        /* \"contracts/ERC721.sol\":3218:3225  ownerOf */\n      tag_66\n        /* \"contracts/ERC721.sol\":3218:3235  ownerOf(_tokenId) */\n      jump\t// in\n    tag_122:\n        /* \"contracts/ERC721.sol\":3218:3249  ownerOf(_tokenId) == msg.sender */\n      0xffffffffffffffffffffffffffffffffffffffff\n      and\n      eq\n        /* \"contracts/ERC721.sol\":3196:3318  require(... */\n      tag_123\n      jumpi\n      mload(0x40)\n      0x08c379a000000000000000000000000000000000000000000000000000000000\n      dup2\n      mstore\n      0x04\n      add\n      tag_124\n      swap1\n      tag_125\n      jump\t// in\n    tag_124:\n      mload(0x40)\n      dup1\n      swap2\n      sub\n      swap1\n      revert\n    tag_123:\n        /* \"contracts/ERC721.sol\":3357:3366  _approved */\n      dup2\n        /* \"contracts/ERC721.sol\":3329:3344  _tokenApprovals */\n      0x06\n        /* \"contracts/ERC721.sol\":3329:3354  _tokenApprovals[_tokenId] */\n      0x00\n        /* \"contracts/ERC721.sol\":3345:3353  _tokenId */\n      dup4\n        /* \"contracts/ERC721.sol\":3329:3354  _tokenApprovals[_tokenId] */\n      dup2\n      mstore\n      0x20\n      add\n      swap1\n      dup2\n      mstore\n      0x20\n      add\n      0x00\n      keccak256\n      0x00\n        /* \"contracts/ERC721.sol\":3329:3366  _tokenApprovals[_tokenId] = _approved */\n      0x0100\n      exp\n      dup2\n      sload\n      dup2\n      0xffffffffffffffffffffffffffffffffffffffff\n      mul\n      not\n      and\n      swap1\n      dup4\n      0xffffffffffffffffffffffffffffffffffffffff\n      and\n      mul\n      or\n      swap1\n      sstore\n      pop\n        /* \"contracts/ERC721.sol\":3421:3429  _tokenId */\n      dup1\n        /* \"contracts/ERC721.sol\":3410:3419  _approved */\n      dup3\n        /* \"contracts/ERC721.sol\":3382:3430  Approval(ownerOf(_tokenId), _approved, _tokenId) */\n      0xffffffffffffffffffffffffffffffffffffffff\n      and\n        /* \"contracts/ERC721.sol\":3391:3408  ownerOf(_tokenId) */\n      tag_126\n        /* \"contracts/ERC721.sol\":3399:3407  _tokenId */\n      dup4\n        /* \"contracts/ERC721.sol\":3391:3398  ownerOf */\n      tag_66\n        /* \"contracts/ERC721.sol\":3391:3408  ownerOf(_tokenId) */\n      jump\t// in\n    tag_126:\n        /* \"contracts/ERC721.sol\":3382:3430  Approval(ownerOf(_tokenId), _approved, _tokenId) */\n      0xffffffffffffffffffffffffffffffffffffffff\n      and\n      0x8c5be1e5ebec7d5bd14f71427d1e84f3dd0314c0f7b2291e5b200ac8c7c3b925\n      mload(0x40)\n      mload(0x40)\n      dup1\n      swap2\n      sub\n      swap1\n      log4\n        /* \"contracts/ERC721.sol\":3124:3438  function approve(address _approved, uint256 _tokenId) public {... */\n      pop\n      pop\n      jump\t// out\n        /* \"contracts/ERC721.sol\":4835:4935  function totalSupply() public view returns (uint256) {... */\n    tag_48:\n        /* \"contracts/ERC721.sol\":4879:4886  uint256 */\n      0x00\n        /* \"contracts/ERC721.sol\":4926:4927  1 */\n      0x01\n        /* \"contracts/ERC721.sol\":4906:4923  nextTokenIdToMint */\n      sload(0x02)\n        /* \"contracts/ERC721.sol\":4906:4927  nextTokenIdToMint - 1 */\n      tag_128\n      swap2\n      swap1\n      tag_129\n      jump\t// in\n    tag_128:\n        /* \"contracts/ERC721.sol\":4899:4927  return nextTokenIdToMint - 1 */\n      swap1\n      pop\n        /* \"contracts/ERC721.sol\":4835:4935  function totalSupply() public view returns (uint256) {... */\n      swap1\n      jump\t// out\n        /* \"contracts/ERC721.sol\":2678:3116  function transferFrom(... */\n    tag_54:\n        /* \"contracts/ERC721.sol\":2849:2859  msg.sender */\n      caller\n        /* \"contracts/ERC721.sol\":2828:2859  ownerOf(_tokenId) == msg.sender */\n      0xffffffffffffffffffffffffffffffffffffffff\n      and\n        /* \"contracts/ERC721.sol\":2828:2845  ownerOf(_tokenId) */\n      tag_131\n        /* \"contracts/ERC721.sol\":2836:2844  _tokenId */\n      dup3\n        /* \"contracts/ERC721.sol\":2828:2835  ownerOf */\n      tag_66\n        /* \"contracts/ERC721.sol\":2828:2845  ownerOf(_tokenId) */\n      jump\t// in\n    tag_131:\n        /* \"contracts/ERC721.sol\":2828:2859  ownerOf(_tokenId) == msg.sender */\n      0xffffffffffffffffffffffffffffffffffffffff\n      and\n      eq\n        /* \"contracts/ERC721.sol\":2828:2919  ownerOf(_tokenId) == msg.sender ||... */\n      dup1\n      tag_132\n      jumpi\n      pop\n        /* \"contracts/ERC721.sol\":2909:2919  msg.sender */\n      caller\n        /* \"contracts/ERC721.sol\":2880:2919  _tokenApprovals[_tokenId] == msg.sender */\n      0xffffffffffffffffffffffffffffffffffffffff\n      and\n        /* \"contracts/ERC721.sol\":2880:2895  _tokenApprovals */\n      0x06\n        /* \"contracts/ERC721.sol\":2880:2905  _tokenApprovals[_tokenId] */\n      0x00\n        /* \"contracts/ERC721.sol\":2896:2904  _tokenId */\n      dup4\n        /* \"contracts/ERC721.sol\":2880:2905  _tokenApprovals[_tokenId] */\n      dup2\n      mstore\n      0x20\n      add\n      swap1\n      dup2\n      mstore\n      0x20\n      add\n      0x00\n      keccak256\n      0x00\n      swap1\n      sload\n      swap1\n      0x0100\n      exp\n      swap1\n      div\n      0xffffffffffffffffffffffffffffffffffffffff\n      and\n        /* \"contracts/ERC721.sol\":2880:2919  _tokenApprovals[_tokenId] == msg.sender */\n      0xffffffffffffffffffffffffffffffffffffffff\n      and\n      eq\n        /* \"contracts/ERC721.sol\":2828:2919  ownerOf(_tokenId) == msg.sender ||... */\n    tag_132:\n        /* \"contracts/ERC721.sol\":2828:2989  ownerOf(_tokenId) == msg.sender ||... */\n      dup1\n      tag_133\n      jumpi\n      pop\n        /* \"contracts/ERC721.sol\":2940:2958  _operatorApprovals */\n      0x07\n        /* \"contracts/ERC721.sol\":2940:2977  _operatorApprovals[ownerOf(_tokenId)] */\n      0x00\n        /* \"contracts/ERC721.sol\":2959:2976  ownerOf(_tokenId) */\n      tag_134\n        /* \"contracts/ERC721.sol\":2967:2975  _tokenId */\n      dup4\n        /* \"contracts/ERC721.sol\":2959:2966  ownerOf */\n      tag_66\n        /* \"contracts/ERC721.sol\":2959:2976  ownerOf(_tokenId) */\n      jump\t// in\n    tag_134:\n        /* \"contracts/ERC721.sol\":2940:2977  _operatorApprovals[ownerOf(_tokenId)] */\n      0xffffffffffffffffffffffffffffffffffffffff\n      and\n      0xffffffffffffffffffffffffffffffffffffffff\n      and\n      dup2\n      mstore\n      0x20\n      add\n      swap1\n      dup2\n      mstore\n      0x20\n      add\n      0x00\n      keccak256\n        /* \"contracts/ERC721.sol\":2940:2989  _operatorApprovals[ownerOf(_tokenId)][msg.sender] */\n      0x00\n        /* \"contracts/ERC721.sol\":2978:2988  msg.sender */\n      caller\n        /* \"contracts/ERC721.sol\":2940:2989  _operatorApprovals[ownerOf(_tokenId)][msg.sender] */\n      0xffffffffffffffffffffffffffffffffffffffff\n      and\n      0xffffffffffffffffffffffffffffffffffffffff\n      and\n      dup2\n      mstore\n      0x20\n      add\n      swap1\n      dup2\n      mstore\n      0x20\n      add\n      0x00\n      keccak256\n      0x00\n      swap1\n      sload\n      swap1\n      0x0100\n      exp\n      swap1\n      div\n      0xff\n      and\n        /* \"contracts/ERC721.sol\":2828:2989  ownerOf(_tokenId) == msg.sender ||... */\n    tag_133:\n        /* \"contracts/ERC721.sol\":2806:3066  require(... */\n      tag_135\n      jumpi\n      mload(0x40)\n      0x08c379a000000000000000000000000000000000000000000000000000000000\n      dup2\n      mstore\n      0x04\n      add\n      tag_136\n      swap1\n      tag_137\n      jump\t// in\n    tag_136:\n      mload(0x40)\n      dup1\n      swap2\n      sub\n      swap1\n      revert\n    tag_135:\n        /* \"contracts/ERC721.sol\":3077:3108  _transfer(_from, _to, _tokenId) */\n      tag_138\n        /* \"contracts/ERC721.sol\":3087:3092  _from */\n      dup4\n        /* \"contracts/ERC721.sol\":3094:3097  _to */\n      dup4\n        /* \"contracts/ERC721.sol\":3099:3107  _tokenId */\n      dup4\n        /* \"contracts/ERC721.sol\":3077:3086  _transfer */\n      tag_139\n        /* \"contracts/ERC721.sol\":3077:3108  _transfer(_from, _to, _tokenId) */\n      jump\t// in\n    tag_138:\n        /* \"contracts/ERC721.sol\":2678:3116  function transferFrom(... */\n      pop\n      pop\n      pop\n      jump\t// out\n        /* \"contracts/ERC721.sol\":169:201  uint256 public nextTokenIdToMint */\n    tag_57:\n      sload(0x02)\n      dup2\n      jump\t// out\n        /* \"contracts/ERC721.sol\":1861:2035  function safeTransferFrom(... */\n    tag_62:\n        /* \"contracts/ERC721.sol\":1985:2027  safeTransferFrom(_from, _to, _tokenId, \"\") */\n      tag_141\n        /* \"contracts/ERC721.sol\":2002:2007  _from */\n      dup4\n        /* \"contracts/ERC721.sol\":2009:2012  _to */\n      dup4\n        /* \"contracts/ERC721.sol\":2014:2022  _tokenId */\n      dup4\n        /* \"contracts/ERC721.sol\":1985:2027  safeTransferFrom(_from, _to, _tokenId, \"\") */\n      mload(0x40)\n      dup1\n      0x20\n      add\n      0x40\n      mstore\n      dup1\n      0x00\n      dup2\n      mstore\n      pop\n        /* \"contracts/ERC721.sol\":1985:2001  safeTransferFrom */\n      tag_91\n        /* \"contracts/ERC721.sol\":1985:2027  safeTransferFrom(_from, _to, _tokenId, \"\") */\n      jump\t// in\n    tag_141:\n        /* \"contracts/ERC721.sol\":1861:2035  function safeTransferFrom(... */\n      pop\n      pop\n      pop\n      jump\t// out\n        /* \"contracts/ERC721.sol\":1573:1853  function ownerOf(uint256 tokenId) public view returns (address) {... */\n    tag_66:\n        /* \"contracts/ERC721.sol\":1628:1635  address */\n      0x00\n        /* \"contracts/ERC721.sol\":1648:1668  address ownerAddress */\n      0x00\n        /* \"contracts/ERC721.sol\":1671:1678  _owners */\n      0x04\n        /* \"contracts/ERC721.sol\":1671:1687  _owners[tokenId] */\n      0x00\n        /* \"contracts/ERC721.sol\":1679:1686  tokenId */\n      dup5\n        /* \"contracts/ERC721.sol\":1671:1687  _owners[tokenId] */\n      dup2\n      mstore\n      0x20\n      add\n      swap1\n      dup2\n      mstore\n      0x20\n      add\n      0x00\n      keccak256\n      0x00\n      swap1\n      sload\n      swap1\n      0x0100\n      exp\n      swap1\n      div\n      0xffffffffffffffffffffffffffffffffffffffff\n      and\n        /* \"contracts/ERC721.sol\":1648:1687  address ownerAddress = _owners[tokenId] */\n      swap1\n      pop\n        /* \"contracts/ERC721.sol\":1744:1745  0 */\n      0x00\n        /* \"contracts/ERC721.sol\":1720:1746  ownerAddress != address(0) */\n      0xffffffffffffffffffffffffffffffffffffffff\n      and\n        /* \"contracts/ERC721.sol\":1720:1732  ownerAddress */\n      dup2\n        /* \"contracts/ERC721.sol\":1720:1746  ownerAddress != address(0) */\n      0xffffffffffffffffffffffffffffffffffffffff\n      and\n      sub\n        /* \"contracts/ERC721.sol\":1698:1815  require(... */\n      tag_143\n      jumpi\n      mload(0x40)\n      0x08c379a000000000000000000000000000000000000000000000000000000000\n      dup2\n      mstore\n      0x04\n      add\n      tag_144\n      swap1\n      tag_145\n      jump\t// in\n    tag_144:\n      mload(0x40)\n      dup1\n      swap2\n      sub\n      swap1\n      revert\n    tag_143:\n        /* \"contracts/ERC721.sol\":1833:1845  ownerAddress */\n      dup1\n        /* \"contracts/ERC721.sol\":1826:1845  return ownerAddress */\n      swap2\n      pop\n      pop\n        /* \"contracts/ERC721.sol\":1573:1853  function ownerOf(uint256 tokenId) public view returns (address) {... */\n      swap2\n      swap1\n      pop\n      jump\t// out\n        /* \"contracts/ERC721.sol\":1334:1565  function balanceOf(address _owner) public view returns (uint256) {... */\n    tag_72:\n        /* \"contracts/ERC721.sol\":1390:1397  uint256 */\n      0x00\n        /* \"contracts/ERC721.sol\":1450:1451  0 */\n      0x00\n        /* \"contracts/ERC721.sol\":1432:1452  _owner != address(0) */\n      0xffffffffffffffffffffffffffffffffffffffff\n      and\n        /* \"contracts/ERC721.sol\":1432:1438  _owner */\n      dup3\n        /* \"contracts/ERC721.sol\":1432:1452  _owner != address(0) */\n      0xffffffffffffffffffffffffffffffffffffffff\n      and\n      sub\n        /* \"contracts/ERC721.sol\":1410:1522  require(... */\n      tag_147\n      jumpi\n      mload(0x40)\n      0x08c379a000000000000000000000000000000000000000000000000000000000\n      dup2\n      mstore\n      0x04\n      add\n      tag_148\n      swap1\n      tag_149\n      jump\t// in\n    tag_148:\n      mload(0x40)\n      dup1\n      swap2\n      sub\n      swap1\n      revert\n    tag_147:\n        /* \"contracts/ERC721.sol\":1540:1549  _balances */\n      0x05\n        /* \"contracts/ERC721.sol\":1540:1557  _balances[_owner] */\n      0x00\n        /* \"contracts/ERC721.sol\":1550:1556  _owner */\n      dup4\n        /* \"contracts/ERC721.sol\":1540:1557  _balances[_owner] */\n      0xffffffffffffffffffffffffffffffffffffffff\n      and\n      0xffffffffffffffffffffffffffffffffffffffff\n      and\n      dup2\n      mstore\n      0x20\n      add\n      swap1\n      dup2\n      mstore\n      0x20\n      add\n      0x00\n      keccak256\n      sload\n        /* \"contracts/ERC721.sol\":1533:1557  return _balances[_owner] */\n      swap1\n      pop\n        /* \"contracts/ERC721.sol\":1334:1565  function balanceOf(address _owner) public view returns (uint256) {... */\n      swap2\n      swap1\n      pop\n      jump\t// out\n        /* \"contracts/ERC721.sol\":208:228  address public owner */\n    tag_76:\n      0x03\n      0x00\n      swap1\n      sload\n      swap1\n      0x0100\n      exp\n      swap1\n      div\n      0xffffffffffffffffffffffffffffffffffffffff\n      and\n      dup2\n      jump\t// out\n        /* \"contracts/ERC721.sol\":140:160  string public symbol */\n    tag_80:\n      0x01\n      dup1\n      sload\n      tag_150\n      swap1\n      tag_112\n      jump\t// in\n    tag_150:\n      dup1\n      0x1f\n      add\n      0x20\n      dup1\n      swap2\n      div\n      mul\n      0x20\n      add\n      mload(0x40)\n      swap1\n      dup2\n      add\n      0x40\n      mstore\n      dup1\n      swap3\n      swap2\n      swap1\n      dup2\n      dup2\n      mstore\n      0x20\n      add\n      dup3\n      dup1\n      sload\n      tag_151\n      swap1\n      tag_112\n      jump\t// in\n    tag_151:\n      dup1\n      iszero\n      tag_152\n      jumpi\n      dup1\n      0x1f\n      lt\n      tag_153\n      jumpi\n      0x0100\n      dup1\n      dup4\n      sload\n      div\n      mul\n      dup4\n      mstore\n      swap2\n      0x20\n      add\n      swap2\n      jump(tag_152)\n    tag_153:\n      dup3\n      add\n      swap2\n      swap1\n      0x00\n      mstore\n      keccak256(0x00, 0x20)\n      swap1\n    tag_154:\n      dup2\n      sload\n      dup2\n      mstore\n      swap1\n      0x01\n      add\n      swap1\n      0x20\n      add\n      dup1\n      dup4\n      gt\n      tag_154\n      jumpi\n      dup3\n      swap1\n      sub\n      0x1f\n      and\n      dup3\n      add\n      swap2\n    tag_152:\n      pop\n      pop\n      pop\n      pop\n      pop\n      dup2\n      jump\t// out\n        /* \"contracts/ERC721.sol\":3446:3723  function setApprovalForAll(address _operator, bool _approved) public {... */\n    tag_86:\n        /* \"contracts/ERC721.sol\":3547:3557  msg.sender */\n      caller\n        /* \"contracts/ERC721.sol\":3534:3557  _operator != msg.sender */\n      0xffffffffffffffffffffffffffffffffffffffff\n      and\n        /* \"contracts/ERC721.sol\":3534:3543  _operator */\n      dup3\n        /* \"contracts/ERC721.sol\":3534:3557  _operator != msg.sender */\n      0xffffffffffffffffffffffffffffffffffffffff\n      and\n      sub\n        /* \"contracts/ERC721.sol\":3526:3587  require(_operator != msg.sender, \"ERC721: approve to caller\") */\n      tag_156\n      jumpi\n      mload(0x40)\n      0x08c379a000000000000000000000000000000000000000000000000000000000\n      dup2\n      mstore\n      0x04\n      add\n      tag_157\n      swap1\n      tag_158\n      jump\t// in\n    tag_157:\n      mload(0x40)\n      dup1\n      swap2\n      sub\n      swap1\n      revert\n    tag_156:\n        /* \"contracts/ERC721.sol\":3642:3651  _approved */\n      dup1\n        /* \"contracts/ERC721.sol\":3598:3616  _operatorApprovals */\n      0x07\n        /* \"contracts/ERC721.sol\":3598:3628  _operatorApprovals[msg.sender] */\n      0x00\n        /* \"contracts/ERC721.sol\":3617:3627  msg.sender */\n      caller\n        /* \"contracts/ERC721.sol\":3598:3628  _operatorApprovals[msg.sender] */\n      0xffffffffffffffffffffffffffffffffffffffff\n      and\n      0xffffffffffffffffffffffffffffffffffffffff\n      and\n      dup2\n      mstore\n      0x20\n      add\n      swap1\n      dup2\n      mstore\n      0x20\n      add\n      0x00\n      keccak256\n        /* \"contracts/ERC721.sol\":3598:3639  _operatorApprovals[msg.sender][_operator] */\n      0x00\n        /* \"contracts/ERC721.sol\":3629:3638  _operator */\n      dup5\n        /* \"contracts/ERC721.sol\":3598:3639  _operatorApprovals[msg.sender][_operator] */\n      0xffffffffffffffffffffffffffffffffffffffff\n      and\n      0xffffffffffffffffffffffffffffffffffffffff\n      and\n      dup2\n      mstore\n      0x20\n      add\n      swap1\n      dup2\n      mstore\n      0x20\n      add\n      0x00\n      keccak256\n      0x00\n        /* \"contracts/ERC721.sol\":3598:3651  _operatorApprovals[msg.sender][_operator] = _approved */\n      0x0100\n      exp\n      dup2\n      sload\n      dup2\n      0xff\n      mul\n      not\n      and\n      swap1\n      dup4\n      iszero\n      iszero\n      mul\n      or\n      swap1\n      sstore\n      pop\n        /* \"contracts/ERC721.sol\":3694:3703  _operator */\n      dup2\n        /* \"contracts/ERC721.sol\":3667:3715  ApprovalForAll(msg.sender, _operator, _approved) */\n      0xffffffffffffffffffffffffffffffffffffffff\n      and\n        /* \"contracts/ERC721.sol\":3682:3692  msg.sender */\n      caller\n        /* \"contracts/ERC721.sol\":3667:3715  ApprovalForAll(msg.sender, _operator, _approved) */\n      0xffffffffffffffffffffffffffffffffffffffff\n      and\n      0x17307eab39ab6107e8899845ad3d59bd9653f200f220920489ca2b5937696c31\n        /* \"contracts/ERC721.sol\":3705:3714  _approved */\n      dup4\n        /* \"contracts/ERC721.sol\":3667:3715  ApprovalForAll(msg.sender, _operator, _approved) */\n      mload(0x40)\n      tag_159\n      swap2\n      swap1\n      tag_28\n      jump\t// in\n    tag_159:\n      mload(0x40)\n      dup1\n      swap2\n      sub\n      swap1\n      log3\n        /* \"contracts/ERC721.sol\":3446:3723  function setApprovalForAll(address _operator, bool _approved) public {... */\n      pop\n      pop\n      jump\t// out\n        /* \"contracts/ERC721.sol\":2043:2670  function safeTransferFrom(... */\n    tag_91:\n        /* \"contracts/ERC721.sol\":2239:2249  msg.sender */\n      caller\n        /* \"contracts/ERC721.sol\":2218:2249  ownerOf(_tokenId) == msg.sender */\n      0xffffffffffffffffffffffffffffffffffffffff\n      and\n        /* \"contracts/ERC721.sol\":2218:2235  ownerOf(_tokenId) */\n      tag_161\n        /* \"contracts/ERC721.sol\":2226:2234  _tokenId */\n      dup4\n        /* \"contracts/ERC721.sol\":2218:2225  ownerOf */\n      tag_66\n        /* \"contracts/ERC721.sol\":2218:2235  ownerOf(_tokenId) */\n      jump\t// in\n    tag_161:\n        /* \"contracts/ERC721.sol\":2218:2249  ownerOf(_tokenId) == msg.sender */\n      0xffffffffffffffffffffffffffffffffffffffff\n      and\n      eq\n        /* \"contracts/ERC721.sol\":2218:2309  ownerOf(_tokenId) == msg.sender ||... */\n      dup1\n      tag_162\n      jumpi\n      pop\n        /* \"contracts/ERC721.sol\":2299:2309  msg.sender */\n      caller\n        /* \"contracts/ERC721.sol\":2270:2309  _tokenApprovals[_tokenId] == msg.sender */\n      0xffffffffffffffffffffffffffffffffffffffff\n      and\n        /* \"contracts/ERC721.sol\":2270:2285  _tokenApprovals */\n      0x06\n        /* \"contracts/ERC721.sol\":2270:2295  _tokenApprovals[_tokenId] */\n      0x00\n        /* \"contracts/ERC721.sol\":2286:2294  _tokenId */\n      dup5\n        /* \"contracts/ERC721.sol\":2270:2295  _tokenApprovals[_tokenId] */\n      dup2\n      mstore\n      0x20\n      add\n      swap1\n      dup2\n      mstore\n      0x20\n      add\n      0x00\n      keccak256\n      0x00\n      swap1\n      sload\n      swap1\n      0x0100\n      exp\n      swap1\n      div\n      0xffffffffffffffffffffffffffffffffffffffff\n      and\n        /* \"contracts/ERC721.sol\":2270:2309  _tokenApprovals[_tokenId] == msg.sender */\n      0xffffffffffffffffffffffffffffffffffffffff\n      and\n      eq\n        /* \"contracts/ERC721.sol\":2218:2309  ownerOf(_tokenId) == msg.sender ||... */\n    tag_162:\n        /* \"contracts/ERC721.sol\":2218:2379  ownerOf(_tokenId) == msg.sender ||... */\n      dup1\n      tag_163\n      jumpi\n      pop\n        /* \"contracts/ERC721.sol\":2330:2348  _operatorApprovals */\n      0x07\n        /* \"contracts/ERC721.sol\":2330:2367  _operatorApprovals[ownerOf(_tokenId)] */\n      0x00\n        /* \"contracts/ERC721.sol\":2349:2366  ownerOf(_tokenId) */\n      tag_164\n        /* \"contracts/ERC721.sol\":2357:2365  _tokenId */\n      dup5\n        /* \"contracts/ERC721.sol\":2349:2356  ownerOf */\n      tag_66\n        /* \"contracts/ERC721.sol\":2349:2366  ownerOf(_tokenId) */\n      jump\t// in\n    tag_164:\n        /* \"contracts/ERC721.sol\":2330:2367  _operatorApprovals[ownerOf(_tokenId)] */\n      0xffffffffffffffffffffffffffffffffffffffff\n      and\n      0xffffffffffffffffffffffffffffffffffffffff\n      and\n      dup2\n      mstore\n      0x20\n      add\n      swap1\n      dup2\n      mstore\n      0x20\n      add\n      0x00\n      keccak256\n        /* \"contracts/ERC721.sol\":2330:2379  _operatorApprovals[ownerOf(_tokenId)][msg.sender] */\n      0x00\n        /* \"contracts/ERC721.sol\":2368:2378  msg.sender */\n      caller\n        /* \"contracts/ERC721.sol\":2330:2379  _operatorApprovals[ownerOf(_tokenId)][msg.sender] */\n      0xffffffffffffffffffffffffffffffffffffffff\n      and\n      0xffffffffffffffffffffffffffffffffffffffff\n      and\n      dup2\n      mstore\n      0x20\n      add\n      swap1\n      dup2\n      mstore\n      0x20\n      add\n      0x00\n      keccak256\n      0x00\n      swap1\n      sload\n      swap1\n      0x0100\n      exp\n      swap1\n      div\n      0xff\n      and\n        /* \"contracts/ERC721.sol\":2218:2379  ownerOf(_tokenId) == msg.sender ||... */\n    tag_163:\n        /* \"contracts/ERC721.sol\":2196:2456  require(... */\n      tag_165\n      jumpi\n      mload(0x40)\n      0x08c379a000000000000000000000000000000000000000000000000000000000\n      dup2\n      mstore\n      0x04\n      add\n      tag_166\n      swap1\n      tag_137\n      jump\t// in\n    tag_166:\n      mload(0x40)\n      dup1\n      swap2\n      sub\n      swap1\n      revert\n    tag_165:\n        /* \"contracts/ERC721.sol\":2467:2498  _transfer(_from, _to, _tokenId) */\n      tag_167\n        /* \"contracts/ERC721.sol\":2477:2482  _from */\n      dup5\n        /* \"contracts/ERC721.sol\":2484:2487  _to */\n      dup5\n        /* \"contracts/ERC721.sol\":2489:2497  _tokenId */\n      dup5\n        /* \"contracts/ERC721.sol\":2467:2476  _transfer */\n      tag_139\n        /* \"contracts/ERC721.sol\":2467:2498  _transfer(_from, _to, _tokenId) */\n      jump\t// in\n    tag_167:\n        /* \"contracts/ERC721.sol\":2533:2584  _checkOnERC721Received(_from, _to, _tokenId, _data) */\n      tag_168\n        /* \"contracts/ERC721.sol\":2556:2561  _from */\n      dup5\n        /* \"contracts/ERC721.sol\":2563:2566  _to */\n      dup5\n        /* \"contracts/ERC721.sol\":2568:2576  _tokenId */\n      dup5\n        /* \"contracts/ERC721.sol\":2578:2583  _data */\n      dup5\n        /* \"contracts/ERC721.sol\":2533:2555  _checkOnERC721Received */\n      tag_169\n        /* \"contracts/ERC721.sol\":2533:2584  _checkOnERC721Received(_from, _to, _tokenId, _data) */\n      jump\t// in\n    tag_168:\n        /* \"contracts/ERC721.sol\":2511:2662  require(... */\n      tag_170\n      jumpi\n      mload(0x40)\n      0x08c379a000000000000000000000000000000000000000000000000000000000\n      dup2\n      mstore\n      0x04\n      add\n      tag_171\n      swap1\n      tag_172\n      jump\t// in\n    tag_171:\n      mload(0x40)\n      dup1\n      swap2\n      sub\n      swap1\n      revert\n    tag_170:\n        /* \"contracts/ERC721.sol\":2043:2670  function safeTransferFrom(... */\n      pop\n      pop\n      pop\n      pop\n      jump\t// out\n        /* \"contracts/ERC721.sol\":4573:4827  function tokenURI(uint256 tokenId) public view returns (string memory) {... */\n    tag_95:\n        /* \"contracts/ERC721.sol\":4629:4642  string memory */\n      0x60\n        /* \"contracts/ERC721.sol\":4705:4706  0 */\n      0x00\n        /* \"contracts/ERC721.sol\":4677:4707  _owners[tokenId] != address(0) */\n      0xffffffffffffffffffffffffffffffffffffffff\n      and\n        /* \"contracts/ERC721.sol\":4677:4684  _owners */\n      0x04\n        /* \"contracts/ERC721.sol\":4677:4693  _owners[tokenId] */\n      0x00\n        /* \"contracts/ERC721.sol\":4685:4692  tokenId */\n      dup5\n        /* \"contracts/ERC721.sol\":4677:4693  _owners[tokenId] */\n      dup2\n      mstore\n      0x20\n      add\n      swap1\n      dup2\n      mstore\n      0x20\n      add\n      0x00\n      keccak256\n      0x00\n      swap1\n      sload\n      swap1\n      0x0100\n      exp\n      swap1\n      div\n      0xffffffffffffffffffffffffffffffffffffffff\n      and\n        /* \"contracts/ERC721.sol\":4677:4707  _owners[tokenId] != address(0) */\n      0xffffffffffffffffffffffffffffffffffffffff\n      and\n      sub\n        /* \"contracts/ERC721.sol\":4655:4782  require(... */\n      tag_174\n      jumpi\n      mload(0x40)\n      0x08c379a000000000000000000000000000000000000000000000000000000000\n      dup2\n      mstore\n      0x04\n      add\n      tag_175\n      swap1\n      tag_176\n      jump\t// in\n    tag_175:\n      mload(0x40)\n      dup1\n      swap2\n      sub\n      swap1\n      revert\n    tag_174:\n        /* \"contracts/ERC721.sol\":4800:4810  _tokenURIs */\n      0x08\n        /* \"contracts/ERC721.sol\":4800:4819  _tokenURIs[tokenId] */\n      0x00\n        /* \"contracts/ERC721.sol\":4811:4818  tokenId */\n      dup4\n        /* \"contracts/ERC721.sol\":4800:4819  _tokenURIs[tokenId] */\n      dup2\n      mstore\n      0x20\n      add\n      swap1\n      dup2\n      mstore\n      0x20\n      add\n      0x00\n      keccak256\n        /* \"contracts/ERC721.sol\":4793:4819  return _tokenURIs[tokenId] */\n      dup1\n      sload\n      tag_177\n      swap1\n      tag_112\n      jump\t// in\n    tag_177:\n      dup1\n      0x1f\n      add\n      0x20\n      dup1\n      swap2\n      div\n      mul\n      0x20\n      add\n      mload(0x40)\n      swap1\n      dup2\n      add\n      0x40\n      mstore\n      dup1\n      swap3\n      swap2\n      swap1\n      dup2\n      dup2\n      mstore\n      0x20\n      add\n      dup3\n      dup1\n      sload\n      tag_178\n      swap1\n      tag_112\n      jump\t// in\n    tag_178:\n      dup1\n      iszero\n      tag_179\n      jumpi\n      dup1\n      0x1f\n      lt\n      tag_180\n      jumpi\n      0x0100\n      dup1\n      dup4\n      sload\n      div\n      mul\n      dup4\n      mstore\n      swap2\n      0x20\n      add\n      swap2\n      jump(tag_179)\n    tag_180:\n      dup3\n      add\n      swap2\n      swap1\n      0x00\n      mstore\n      keccak256(0x00, 0x20)\n      swap1\n    tag_181:\n      dup2\n      sload\n      dup2\n      mstore\n      swap1\n      0x01\n      add\n      swap1\n      0x20\n      add\n      dup1\n      dup4\n      gt\n      tag_181\n      jumpi\n      dup3\n      swap1\n      sub\n      0x1f\n      and\n      dup3\n      add\n      swap2\n    tag_179:\n      pop\n      pop\n      pop\n      pop\n      pop\n      swap1\n      pop\n        /* \"contracts/ERC721.sol\":4573:4827  function tokenURI(uint256 tokenId) public view returns (string memory) {... */\n      swap2\n      swap1\n      pop\n      jump\t// out\n        /* \"contracts/ERC721.sol\":4179:4565  function mint(address _to, string memory _tokenURI) public {... */\n    tag_101:\n        /* \"contracts/ERC721.sol\":4271:4276  owner */\n      0x03\n      0x00\n      swap1\n      sload\n      swap1\n      0x0100\n      exp\n      swap1\n      div\n      0xffffffffffffffffffffffffffffffffffffffff\n      and\n        /* \"contracts/ERC721.sol\":4257:4276  msg.sender == owner */\n      0xffffffffffffffffffffffffffffffffffffffff\n      and\n        /* \"contracts/ERC721.sol\":4257:4267  msg.sender */\n      caller\n        /* \"contracts/ERC721.sol\":4257:4276  msg.sender == owner */\n      0xffffffffffffffffffffffffffffffffffffffff\n      and\n      eq\n        /* \"contracts/ERC721.sol\":4249:4320  require(msg.sender == owner, \"Only the contract owner can mint tokens\") */\n      tag_183\n      jumpi\n      mload(0x40)\n      0x08c379a000000000000000000000000000000000000000000000000000000000\n      dup2\n      mstore\n      0x04\n      add\n      tag_184\n      swap1\n      tag_185\n      jump\t// in\n    tag_184:\n      mload(0x40)\n      dup1\n      swap2\n      sub\n      swap1\n      revert\n    tag_183:\n        /* \"contracts/ERC721.sol\":4333:4348  uint256 tokenId */\n      0x00\n        /* \"contracts/ERC721.sol\":4351:4368  nextTokenIdToMint */\n      sload(0x02)\n        /* \"contracts/ERC721.sol\":4333:4368  uint256 tokenId = nextTokenIdToMint */\n      swap1\n      pop\n        /* \"contracts/ERC721.sol\":4398:4401  _to */\n      dup3\n        /* \"contracts/ERC721.sol\":4379:4386  _owners */\n      0x04\n        /* \"contracts/ERC721.sol\":4379:4395  _owners[tokenId] */\n      0x00\n        /* \"contracts/ERC721.sol\":4387:4394  tokenId */\n      dup4\n        /* \"contracts/ERC721.sol\":4379:4395  _owners[tokenId] */\n      dup2\n      mstore\n      0x20\n      add\n      swap1\n      dup2\n      mstore\n      0x20\n      add\n      0x00\n      keccak256\n      0x00\n        /* \"contracts/ERC721.sol\":4379:4401  _owners[tokenId] = _to */\n      0x0100\n      exp\n      dup2\n      sload\n      dup2\n      0xffffffffffffffffffffffffffffffffffffffff\n      mul\n      not\n      and\n      swap1\n      dup4\n      0xffffffffffffffffffffffffffffffffffffffff\n      and\n      mul\n      or\n      swap1\n      sstore\n      pop\n        /* \"contracts/ERC721.sol\":4430:4431  1 */\n      0x01\n        /* \"contracts/ERC721.sol\":4412:4421  _balances */\n      0x05\n        /* \"contracts/ERC721.sol\":4412:4426  _balances[_to] */\n      0x00\n        /* \"contracts/ERC721.sol\":4422:4425  _to */\n      dup6\n        /* \"contracts/ERC721.sol\":4412:4426  _balances[_to] */\n      0xffffffffffffffffffffffffffffffffffffffff\n      and\n      0xffffffffffffffffffffffffffffffffffffffff\n      and\n      dup2\n      mstore\n      0x20\n      add\n      swap1\n      dup2\n      mstore\n      0x20\n      add\n      0x00\n      keccak256\n      0x00\n        /* \"contracts/ERC721.sol\":4412:4431  _balances[_to] += 1 */\n      dup3\n      dup3\n      sload\n      tag_186\n      swap2\n      swap1\n      tag_187\n      jump\t// in\n    tag_186:\n      swap3\n      pop\n      pop\n      dup2\n      swap1\n      sstore\n      pop\n        /* \"contracts/ERC721.sol\":4464:4473  _tokenURI */\n      dup2\n        /* \"contracts/ERC721.sol\":4442:4452  _tokenURIs */\n      0x08\n        /* \"contracts/ERC721.sol\":4442:4461  _tokenURIs[tokenId] */\n      0x00\n        /* \"contracts/ERC721.sol\":4453:4460  tokenId */\n      dup4\n        /* \"contracts/ERC721.sol\":4442:4461  _tokenURIs[tokenId] */\n      dup2\n      mstore\n      0x20\n      add\n      swap1\n      dup2\n      mstore\n      0x20\n      add\n      0x00\n      keccak256\n        /* \"contracts/ERC721.sol\":4442:4473  _tokenURIs[tokenId] = _tokenURI */\n      swap1\n      dup2\n      tag_188\n      swap2\n      swap1\n      tag_189\n      jump\t// in\n    tag_188:\n      pop\n        /* \"contracts/ERC721.sol\":4517:4524  tokenId */\n      dup1\n        /* \"contracts/ERC721.sol\":4512:4515  _to */\n      dup4\n        /* \"contracts/ERC721.sol\":4491:4525  Transfer(address(0), _to, tokenId) */\n      0xffffffffffffffffffffffffffffffffffffffff\n      and\n        /* \"contracts/ERC721.sol\":4508:4509  0 */\n      0x00\n        /* \"contracts/ERC721.sol\":4491:4525  Transfer(address(0), _to, tokenId) */\n      0xffffffffffffffffffffffffffffffffffffffff\n      and\n      0xddf252ad1be2c89b69c2b068fc378daa952ba7f163c4a11628f55a4df523b3ef\n      mload(0x40)\n      mload(0x40)\n      dup1\n      swap2\n      sub\n      swap1\n      log4\n        /* \"contracts/ERC721.sol\":4538:4555  nextTokenIdToMint */\n      0x02\n      0x00\n        /* \"contracts/ERC721.sol\":4538:4557  nextTokenIdToMint++ */\n      dup2\n      sload\n      dup1\n      swap3\n      swap2\n      swap1\n      tag_190\n      swap1\n      tag_191\n      jump\t// in\n    tag_190:\n      swap2\n      swap1\n      pop\n      sstore\n      pop\n        /* \"contracts/ERC721.sol\":4238:4565  {... */\n      pop\n        /* \"contracts/ERC721.sol\":4179:4565  function mint(address _to, string memory _tokenURI) public {... */\n      pop\n      pop\n      jump\t// out\n        /* \"contracts/ERC721.sol\":3995:4171  function isApprovedForAll(... */\n    tag_106:\n        /* \"contracts/ERC721.sol\":4102:4106  bool */\n      0x00\n        /* \"contracts/ERC721.sol\":4126:4144  _operatorApprovals */\n      0x07\n        /* \"contracts/ERC721.sol\":4126:4152  _operatorApprovals[_owner] */\n      0x00\n        /* \"contracts/ERC721.sol\":4145:4151  _owner */\n      dup5\n        /* \"contracts/ERC721.sol\":4126:4152  _operatorApprovals[_owner] */\n      0xffffffffffffffffffffffffffffffffffffffff\n      and\n      0xffffffffffffffffffffffffffffffffffffffff\n      and\n      dup2\n      mstore\n      0x20\n      add\n      swap1\n      dup2\n      mstore\n      0x20\n      add\n      0x00\n      keccak256\n        /* \"contracts/ERC721.sol\":4126:4163  _operatorApprovals[_owner][_operator] */\n      0x00\n        /* \"contracts/ERC721.sol\":4153:4162  _operator */\n      dup4\n        /* \"contracts/ERC721.sol\":4126:4163  _operatorApprovals[_owner][_operator] */\n      0xffffffffffffffffffffffffffffffffffffffff\n      and\n      0xffffffffffffffffffffffffffffffffffffffff\n      and\n      dup2\n      mstore\n      0x20\n      add\n      swap1\n      dup2\n      mstore\n      0x20\n      add\n      0x00\n      keccak256\n      0x00\n      swap1\n      sload\n      swap1\n      0x0100\n      exp\n      swap1\n      div\n      0xff\n      and\n        /* \"contracts/ERC721.sol\":4119:4163  return _operatorApprovals[_owner][_operator] */\n      swap1\n      pop\n        /* \"contracts/ERC721.sol\":3995:4171  function isApprovedForAll(... */\n      swap3\n      swap2\n      pop\n      pop\n      jump\t// out\n        /* \"contracts/ERC721.sol\":6246:6722  function _transfer(address _from, address _to, uint256 _tokenId) internal {... */\n    tag_139:\n        /* \"contracts/ERC721.sol\":6374:6379  _from */\n      dup3\n        /* \"contracts/ERC721.sol\":6353:6379  ownerOf(_tokenId) == _from */\n      0xffffffffffffffffffffffffffffffffffffffff\n      and\n        /* \"contracts/ERC721.sol\":6353:6370  ownerOf(_tokenId) */\n      tag_194\n        /* \"contracts/ERC721.sol\":6361:6369  _tokenId */\n      dup3\n        /* \"contracts/ERC721.sol\":6353:6360  ownerOf */\n      tag_66\n        /* \"contracts/ERC721.sol\":6353:6370  ownerOf(_tokenId) */\n      jump\t// in\n    tag_194:\n        /* \"contracts/ERC721.sol\":6353:6379  ownerOf(_tokenId) == _from */\n      0xffffffffffffffffffffffffffffffffffffffff\n      and\n      eq\n        /* \"contracts/ERC721.sol\":6331:6448  require(... */\n      tag_195\n      jumpi\n      mload(0x40)\n      0x08c379a000000000000000000000000000000000000000000000000000000000\n      dup2\n      mstore\n      0x04\n      add\n      tag_196\n      swap1\n      tag_197\n      jump\t// in\n    tag_196:\n      mload(0x40)\n      dup1\n      swap2\n      sub\n      swap1\n      revert\n    tag_195:\n        /* \"contracts/ERC721.sol\":6482:6483  0 */\n      0x00\n        /* \"contracts/ERC721.sol\":6467:6484  _to != address(0) */\n      0xffffffffffffffffffffffffffffffffffffffff\n      and\n        /* \"contracts/ERC721.sol\":6467:6470  _to */\n      dup3\n        /* \"contracts/ERC721.sol\":6467:6484  _to != address(0) */\n      0xffffffffffffffffffffffffffffffffffffffff\n      and\n      sub\n        /* \"contracts/ERC721.sol\":6459:6525  require(_to != address(0), \"ERC721: transfer to the zero address\") */\n      tag_198\n      jumpi\n      mload(0x40)\n      0x08c379a000000000000000000000000000000000000000000000000000000000\n      dup2\n      mstore\n      0x04\n      add\n      tag_199\n      swap1\n      tag_200\n      jump\t// in\n    tag_199:\n      mload(0x40)\n      dup1\n      swap2\n      sub\n      swap1\n      revert\n    tag_198:\n        /* \"contracts/ERC721.sol\":6545:6560  _tokenApprovals */\n      0x06\n        /* \"contracts/ERC721.sol\":6545:6570  _tokenApprovals[_tokenId] */\n      0x00\n        /* \"contracts/ERC721.sol\":6561:6569  _tokenId */\n      dup3\n        /* \"contracts/ERC721.sol\":6545:6570  _tokenApprovals[_tokenId] */\n      dup2\n      mstore\n      0x20\n      add\n      swap1\n      dup2\n      mstore\n      0x20\n      add\n      0x00\n      keccak256\n      0x00\n        /* \"contracts/ERC721.sol\":6538:6570  delete _tokenApprovals[_tokenId] */\n      0x0100\n      exp\n      dup2\n      sload\n      swap1\n      0xffffffffffffffffffffffffffffffffffffffff\n      mul\n      not\n      and\n      swap1\n      sstore\n        /* \"contracts/ERC721.sol\":6601:6602  1 */\n      0x01\n        /* \"contracts/ERC721.sol\":6581:6590  _balances */\n      0x05\n        /* \"contracts/ERC721.sol\":6581:6597  _balances[_from] */\n      0x00\n        /* \"contracts/ERC721.sol\":6591:6596  _from */\n      dup6\n        /* \"contracts/ERC721.sol\":6581:6597  _balances[_from] */\n      0xffffffffffffffffffffffffffffffffffffffff\n      and\n      0xffffffffffffffffffffffffffffffffffffffff\n      and\n      dup2\n      mstore\n      0x20\n      add\n      swap1\n      dup2\n      mstore\n      0x20\n      add\n      0x00\n      keccak256\n      0x00\n        /* \"contracts/ERC721.sol\":6581:6602  _balances[_from] -= 1 */\n      dup3\n      dup3\n      sload\n      tag_201\n      swap2\n      swap1\n      tag_129\n      jump\t// in\n    tag_201:\n      swap3\n      pop\n      pop\n      dup2\n      swap1\n      sstore\n      pop\n        /* \"contracts/ERC721.sol\":6631:6632  1 */\n      0x01\n        /* \"contracts/ERC721.sol\":6613:6622  _balances */\n      0x05\n        /* \"contracts/ERC721.sol\":6613:6627  _balances[_to] */\n      0x00\n        /* \"contracts/ERC721.sol\":6623:6626  _to */\n      dup5\n        /* \"contracts/ERC721.sol\":6613:6627  _balances[_to] */\n      0xffffffffffffffffffffffffffffffffffffffff\n      and\n      0xffffffffffffffffffffffffffffffffffffffff\n      and\n      dup2\n      mstore\n      0x20\n      add\n      swap1\n      dup2\n      mstore\n      0x20\n      add\n      0x00\n      keccak256\n      0x00\n        /* \"contracts/ERC721.sol\":6613:6632  _balances[_to] += 1 */\n      dup3\n      dup3\n      sload\n      tag_202\n      swap2\n      swap1\n      tag_187\n      jump\t// in\n    tag_202:\n      swap3\n      pop\n      pop\n      dup2\n      swap1\n      sstore\n      pop\n        /* \"contracts/ERC721.sol\":6663:6666  _to */\n      dup2\n        /* \"contracts/ERC721.sol\":6643:6650  _owners */\n      0x04\n        /* \"contracts/ERC721.sol\":6643:6660  _owners[_tokenId] */\n      0x00\n        /* \"contracts/ERC721.sol\":6651:6659  _tokenId */\n      dup4\n        /* \"contracts/ERC721.sol\":6643:6660  _owners[_tokenId] */\n      dup2\n      mstore\n      0x20\n      add\n      swap1\n      dup2\n      mstore\n      0x20\n      add\n      0x00\n      keccak256\n      0x00\n        /* \"contracts/ERC721.sol\":6643:6666  _owners[_tokenId] = _to */\n      0x0100\n      exp\n      dup2\n      sload\n      dup2\n      0xffffffffffffffffffffffffffffffffffffffff\n      mul\n      not\n      and\n      swap1\n      dup4\n      0xffffffffffffffffffffffffffffffffffffffff\n      and\n      mul\n      or\n      swap1\n      sstore\n      pop\n        /* \"contracts/ERC721.sol\":6705:6713  _tokenId */\n      dup1\n        /* \"contracts/ERC721.sol\":6700:6703  _to */\n      dup3\n        /* \"contracts/ERC721.sol\":6684:6714  Transfer(_from, _to, _tokenId) */\n      0xffffffffffffffffffffffffffffffffffffffff\n      and\n        /* \"contracts/ERC721.sol\":6693:6698  _from */\n      dup5\n        /* \"contracts/ERC721.sol\":6684:6714  Transfer(_from, _to, _tokenId) */\n      0xffffffffffffffffffffffffffffffffffffffff\n      and\n      0xddf252ad1be2c89b69c2b068fc378daa952ba7f163c4a11628f55a4df523b3ef\n      mload(0x40)\n      mload(0x40)\n      dup1\n      swap2\n      sub\n      swap1\n      log4\n        /* \"contracts/ERC721.sol\":6246:6722  function _transfer(address _from, address _to, uint256 _tokenId) internal {... */\n      pop\n      pop\n      pop\n      jump\t// out\n        /* \"contracts/ERC721.sol\":5238:6211  function _checkOnERC721Received(... */\n    tag_169:\n        /* \"contracts/ERC721.sol\":5393:5397  bool */\n      0x00\n        /* \"contracts/ERC721.sol\":5431:5432  0 */\n      0x00\n        /* \"contracts/ERC721.sol\":5414:5416  to */\n      dup5\n        /* \"contracts/ERC721.sol\":5414:5428  to.code.length */\n      0xffffffffffffffffffffffffffffffffffffffff\n      and\n      extcodesize\n        /* \"contracts/ERC721.sol\":5414:5432  to.code.length > 0 */\n      gt\n        /* \"contracts/ERC721.sol\":5410:6204  if (to.code.length > 0) {... */\n      iszero\n      tag_204\n      jumpi\n        /* \"contracts/ERC721.sol\":5482:5484  to */\n      dup4\n        /* \"contracts/ERC721.sol\":5470:5502  IERC721Full(to).onERC721Received */\n      0xffffffffffffffffffffffffffffffffffffffff\n      and\n      0x150b7a02\n        /* \"contracts/ERC721.sol\":5525:5535  msg.sender */\n      caller\n        /* \"contracts/ERC721.sol\":5558:5562  from */\n      dup8\n        /* \"contracts/ERC721.sol\":5585:5592  tokenId */\n      dup7\n        /* \"contracts/ERC721.sol\":5615:5620  _data */\n      dup7\n        /* \"contracts/ERC721.sol\":5470:5639  IERC721Full(to).onERC721Received(... */\n      mload(0x40)\n      dup6\n      0xffffffff\n      and\n      0xe0\n      shl\n      dup2\n      mstore\n      0x04\n      add\n      tag_205\n      swap5\n      swap4\n      swap3\n      swap2\n      swap1\n      tag_206\n      jump\t// in\n    tag_205:\n      0x20\n      mload(0x40)\n      dup1\n      dup4\n      sub\n      dup2\n      0x00\n      dup8\n      gas\n      call\n      swap3\n      pop\n      pop\n      pop\n      dup1\n      iszero\n      tag_207\n      jumpi\n      pop\n      mload(0x40)\n      returndatasize\n      not(0x1f)\n      0x1f\n      dup3\n      add\n      and\n      dup3\n      add\n      dup1\n      0x40\n      mstore\n      pop\n      dup2\n      add\n      swap1\n      tag_208\n      swap2\n      swap1\n      tag_209\n      jump\t// in\n    tag_208:\n      0x01\n    tag_207:\n        /* \"contracts/ERC721.sol\":5449:6149  try... */\n      tag_210\n      jumpi\n      returndatasize\n      dup1\n      0x00\n      dup2\n      eq\n      tag_215\n      jumpi\n      mload(0x40)\n      swap2\n      pop\n      and(add(returndatasize, 0x3f), not(0x1f))\n      dup3\n      add\n      0x40\n      mstore\n      returndatasize\n      dup3\n      mstore\n      returndatasize\n      0x00\n      0x20\n      dup5\n      add\n      returndatacopy\n      jump(tag_214)\n    tag_215:\n      0x60\n      swap2\n      pop\n    tag_214:\n      pop\n        /* \"contracts/ERC721.sol\":5835:5836  0 */\n      0x00\n        /* \"contracts/ERC721.sol\":5818:5824  reason */\n      dup2\n        /* \"contracts/ERC721.sol\":5818:5831  reason.length */\n      mload\n        /* \"contracts/ERC721.sol\":5818:5836  reason.length == 0 */\n      sub\n        /* \"contracts/ERC721.sol\":5814:6134  if (reason.length == 0) {... */\n      tag_216\n      jumpi\n        /* \"contracts/ERC721.sol\":5861:5969  revert(... */\n      mload(0x40)\n      0x08c379a000000000000000000000000000000000000000000000000000000000\n      dup2\n      mstore\n      0x04\n      add\n      tag_217\n      swap1\n      tag_172\n      jump\t// in\n    tag_217:\n      mload(0x40)\n      dup1\n      swap2\n      sub\n      swap1\n      revert\n        /* \"contracts/ERC721.sol\":5814:6134  if (reason.length == 0) {... */\n    tag_216:\n        /* \"contracts/ERC721.sol\":6084:6090  reason */\n      dup1\n        /* \"contracts/ERC721.sol\":6078:6091  mload(reason) */\n      mload\n        /* \"contracts/ERC721.sol\":6069:6075  reason */\n      dup2\n        /* \"contracts/ERC721.sol\":6065:6067  32 */\n      0x20\n        /* \"contracts/ERC721.sol\":6061:6076  add(32, reason) */\n      add\n        /* \"contracts/ERC721.sol\":6054:6092  revert(add(32, reason), mload(reason)) */\n      revert\n        /* \"contracts/ERC721.sol\":5449:6149  try... */\n    tag_210:\n        /* \"contracts/ERC721.sol\":5713:5750  IERC721Full.onERC721Received.selector */\n      shl(0xe0, 0x150b7a02)\n        /* \"contracts/ERC721.sol\":5703:5750  retval == IERC721Full.onERC721Received.selector */\n      not(0xffffffffffffffffffffffffffffffffffffffffffffffffffffffff)\n      and\n        /* \"contracts/ERC721.sol\":5703:5709  retval */\n      dup2\n        /* \"contracts/ERC721.sol\":5703:5750  retval == IERC721Full.onERC721Received.selector */\n      not(0xffffffffffffffffffffffffffffffffffffffffffffffffffffffff)\n      and\n      eq\n        /* \"contracts/ERC721.sol\":5696:5750  return retval == IERC721Full.onERC721Received.selector */\n      swap2\n      pop\n      pop\n      jump(tag_203)\n        /* \"contracts/ERC721.sol\":5410:6204  if (to.code.length > 0) {... */\n    tag_204:\n        /* \"contracts/ERC721.sol\":6188:6192  true */\n      0x01\n        /* \"contracts/ERC721.sol\":6181:6192  return true */\n      swap1\n      pop\n        /* \"contracts/ERC721.sol\":5238:6211  function _checkOnERC721Received(... */\n    tag_203:\n      swap5\n      swap4\n      pop\n      pop\n      pop\n      pop\n      jump\t// out\n        /* \"#utility.yul\":7:82   */\n    tag_221:\n        /* \"#utility.yul\":40:46   */\n      0x00\n        /* \"#utility.yul\":73:75   */\n      0x40\n        /* \"#utility.yul\":67:76   */\n      mload\n        /* \"#utility.yul\":57:76   */\n      swap1\n      pop\n        /* \"#utility.yul\":7:82   */\n      swap1\n      jump\t// out\n        /* \"#utility.yul\":88:205   */\n    tag_222:\n        /* \"#utility.yul\":197:198   */\n      0x00\n        /* \"#utility.yul\":194:195   */\n      0x00\n        /* \"#utility.yul\":187:199   */\n      revert\n        /* \"#utility.yul\":211:328   */\n    tag_223:\n        /* \"#utility.yul\":320:321   */\n      0x00\n        /* \"#utility.yul\":317:318   */\n      0x00\n        /* \"#utility.yul\":310:322   */\n      revert\n        /* \"#utility.yul\":334:483   */\n    tag_224:\n        /* \"#utility.yul\":370:377   */\n      0x00\n        /* \"#utility.yul\":410:476   */\n      0xffffffff00000000000000000000000000000000000000000000000000000000\n        /* \"#utility.yul\":403:408   */\n      dup3\n        /* \"#utility.yul\":399:477   */\n      and\n        /* \"#utility.yul\":388:477   */\n      swap1\n      pop\n        /* \"#utility.yul\":334:483   */\n      swap2\n      swap1\n      pop\n      jump\t// out\n        /* \"#utility.yul\":489:609   */\n    tag_225:\n        /* \"#utility.yul\":561:584   */\n      tag_306\n        /* \"#utility.yul\":578:583   */\n      dup2\n        /* \"#utility.yul\":561:584   */\n      tag_224\n      jump\t// in\n    tag_306:\n        /* \"#utility.yul\":554:559   */\n      dup2\n        /* \"#utility.yul\":551:585   */\n      eq\n        /* \"#utility.yul\":541:603   */\n      tag_307\n      jumpi\n        /* \"#utility.yul\":599:600   */\n      0x00\n        /* \"#utility.yul\":596:597   */\n      0x00\n        /* \"#utility.yul\":589:601   */\n      revert\n        /* \"#utility.yul\":541:603   */\n    tag_307:\n        /* \"#utility.yul\":489:609   */\n      pop\n      jump\t// out\n        /* \"#utility.yul\":615:752   */\n    tag_226:\n        /* \"#utility.yul\":660:665   */\n      0x00\n        /* \"#utility.yul\":698:704   */\n      dup2\n        /* \"#utility.yul\":685:705   */\n      calldataload\n        /* \"#utility.yul\":676:705   */\n      swap1\n      pop\n        /* \"#utility.yul\":714:746   */\n      tag_309\n        /* \"#utility.yul\":740:745   */\n      dup2\n        /* \"#utility.yul\":714:746   */\n      tag_225\n      jump\t// in\n    tag_309:\n        /* \"#utility.yul\":615:752   */\n      swap3\n      swap2\n      pop\n      pop\n      jump\t// out\n        /* \"#utility.yul\":758:1085   */\n    tag_25:\n        /* \"#utility.yul\":816:822   */\n      0x00\n        /* \"#utility.yul\":865:867   */\n      0x20\n        /* \"#utility.yul\":853:862   */\n      dup3\n        /* \"#utility.yul\":844:851   */\n      dup5\n        /* \"#utility.yul\":840:863   */\n      sub\n        /* \"#utility.yul\":836:868   */\n      slt\n        /* \"#utility.yul\":833:952   */\n      iszero\n      tag_311\n      jumpi\n        /* \"#utility.yul\":871:950   */\n      tag_312\n      tag_222\n      jump\t// in\n    tag_312:\n        /* \"#utility.yul\":833:952   */\n    tag_311:\n        /* \"#utility.yul\":991:992   */\n      0x00\n        /* \"#utility.yul\":1016:1068   */\n      tag_313\n        /* \"#utility.yul\":1060:1067   */\n      dup5\n        /* \"#utility.yul\":1051:1057   */\n      dup3\n        /* \"#utility.yul\":1040:1049   */\n      dup6\n        /* \"#utility.yul\":1036:1058   */\n      add\n        /* \"#utility.yul\":1016:1068   */\n      tag_226\n      jump\t// in\n    tag_313:\n        /* \"#utility.yul\":1006:1068   */\n      swap2\n      pop\n        /* \"#utility.yul\":962:1078   */\n      pop\n        /* \"#utility.yul\":758:1085   */\n      swap3\n      swap2\n      pop\n      pop\n      jump\t// out\n        /* \"#utility.yul\":1091:1181   */\n    tag_227:\n        /* \"#utility.yul\":1125:1132   */\n      0x00\n        /* \"#utility.yul\":1168:1173   */\n      dup2\n        /* \"#utility.yul\":1161:1174   */\n      iszero\n        /* \"#utility.yul\":1154:1175   */\n      iszero\n        /* \"#utility.yul\":1143:1175   */\n      swap1\n      pop\n        /* \"#utility.yul\":1091:1181   */\n      swap2\n      swap1\n      pop\n      jump\t// out\n        /* \"#utility.yul\":1187:1296   */\n    tag_228:\n        /* \"#utility.yul\":1268:1289   */\n      tag_316\n        /* \"#utility.yul\":1283:1288   */\n      dup2\n        /* \"#utility.yul\":1268:1289   */\n      tag_227\n      jump\t// in\n    tag_316:\n        /* \"#utility.yul\":1263:1266   */\n      dup3\n        /* \"#utility.yul\":1256:1290   */\n      mstore\n        /* \"#utility.yul\":1187:1296   */\n      pop\n      pop\n      jump\t// out\n        /* \"#utility.yul\":1302:1512   */\n    tag_28:\n        /* \"#utility.yul\":1389:1393   */\n      0x00\n        /* \"#utility.yul\":1427:1429   */\n      0x20\n        /* \"#utility.yul\":1416:1425   */\n      dup3\n        /* \"#utility.yul\":1412:1430   */\n      add\n        /* \"#utility.yul\":1404:1430   */\n      swap1\n      pop\n        /* \"#utility.yul\":1440:1505   */\n      tag_318\n        /* \"#utility.yul\":1502:1503   */\n      0x00\n        /* \"#utility.yul\":1491:1500   */\n      dup4\n        /* \"#utility.yul\":1487:1504   */\n      add\n        /* \"#utility.yul\":1478:1484   */\n      dup5\n        /* \"#utility.yul\":1440:1505   */\n      tag_228\n      jump\t// in\n    tag_318:\n        /* \"#utility.yul\":1302:1512   */\n      swap3\n      swap2\n      pop\n      pop\n      jump\t// out\n        /* \"#utility.yul\":1518:1617   */\n    tag_229:\n        /* \"#utility.yul\":1570:1576   */\n      0x00\n        /* \"#utility.yul\":1604:1609   */\n      dup2\n        /* \"#utility.yul\":1598:1610   */\n      mload\n        /* \"#utility.yul\":1588:1610   */\n      swap1\n      pop\n        /* \"#utility.yul\":1518:1617   */\n      swap2\n      swap1\n      pop\n      jump\t// out\n        /* \"#utility.yul\":1623:1792   */\n    tag_230:\n        /* \"#utility.yul\":1707:1718   */\n      0x00\n        /* \"#utility.yul\":1741:1747   */\n      dup3\n        /* \"#utility.yul\":1736:1739   */\n      dup3\n        /* \"#utility.yul\":1729:1748   */\n      mstore\n        /* \"#utility.yul\":1781:1785   */\n      0x20\n        /* \"#utility.yul\":1776:1779   */\n      dup3\n        /* \"#utility.yul\":1772:1786   */\n      add\n        /* \"#utility.yul\":1757:1786   */\n      swap1\n      pop\n        /* \"#utility.yul\":1623:1792   */\n      swap3\n      swap2\n      pop\n      pop\n      jump\t// out\n        /* \"#utility.yul\":1798:1937   */\n    tag_231:\n        /* \"#utility.yul\":1887:1893   */\n      dup3\n        /* \"#utility.yul\":1882:1885   */\n      dup2\n        /* \"#utility.yul\":1877:1880   */\n      dup4\n        /* \"#utility.yul\":1871:1894   */\n      mcopy\n        /* \"#utility.yul\":1928:1929   */\n      0x00\n        /* \"#utility.yul\":1919:1925   */\n      dup4\n        /* \"#utility.yul\":1914:1917   */\n      dup4\n        /* \"#utility.yul\":1910:1926   */\n      add\n        /* \"#utility.yul\":1903:1930   */\n      mstore\n        /* \"#utility.yul\":1798:1937   */\n      pop\n      pop\n      pop\n      jump\t// out\n        /* \"#utility.yul\":1943:2045   */\n    tag_232:\n        /* \"#utility.yul\":1984:1990   */\n      0x00\n        /* \"#utility.yul\":2035:2037   */\n      0x1f\n        /* \"#utility.yul\":2031:2038   */\n      not\n        /* \"#utility.yul\":2026:2028   */\n      0x1f\n        /* \"#utility.yul\":2019:2024   */\n      dup4\n        /* \"#utility.yul\":2015:2029   */\n      add\n        /* \"#utility.yul\":2011:2039   */\n      and\n        /* \"#utility.yul\":2001:2039   */\n      swap1\n      pop\n        /* \"#utility.yul\":1943:2045   */\n      swap2\n      swap1\n      pop\n      jump\t// out\n        /* \"#utility.yul\":2051:2428   */\n    tag_233:\n        /* \"#utility.yul\":2139:2142   */\n      0x00\n        /* \"#utility.yul\":2167:2206   */\n      tag_324\n        /* \"#utility.yul\":2200:2205   */\n      dup3\n        /* \"#utility.yul\":2167:2206   */\n      tag_229\n      jump\t// in\n    tag_324:\n        /* \"#utility.yul\":2222:2293   */\n      tag_325\n        /* \"#utility.yul\":2286:2292   */\n      dup2\n        /* \"#utility.yul\":2281:2284   */\n      dup6\n        /* \"#utility.yul\":2222:2293   */\n      tag_230\n      jump\t// in\n    tag_325:\n        /* \"#utility.yul\":2215:2293   */\n      swap4\n      pop\n        /* \"#utility.yul\":2302:2367   */\n      tag_326\n        /* \"#utility.yul\":2360:2366   */\n      dup2\n        /* \"#utility.yul\":2355:2358   */\n      dup6\n        /* \"#utility.yul\":2348:2352   */\n      0x20\n        /* \"#utility.yul\":2341:2346   */\n      dup7\n        /* \"#utility.yul\":2337:2353   */\n      add\n        /* \"#utility.yul\":2302:2367   */\n      tag_231\n      jump\t// in\n    tag_326:\n        /* \"#utility.yul\":2392:2421   */\n      tag_327\n        /* \"#utility.yul\":2414:2420   */\n      dup2\n        /* \"#utility.yul\":2392:2421   */\n      tag_232\n      jump\t// in\n    tag_327:\n        /* \"#utility.yul\":2387:2390   */\n      dup5\n        /* \"#utility.yul\":2383:2422   */\n      add\n        /* \"#utility.yul\":2376:2422   */\n      swap2\n      pop\n        /* \"#utility.yul\":2143:2428   */\n      pop\n        /* \"#utility.yul\":2051:2428   */\n      swap3\n      swap2\n      pop\n      pop\n      jump\t// out\n        /* \"#utility.yul\":2434:2747   */\n    tag_33:\n        /* \"#utility.yul\":2547:2551   */\n      0x00\n        /* \"#utility.yul\":2585:2587   */\n      0x20\n        /* \"#utility.yul\":2574:2583   */\n      dup3\n        /* \"#utility.yul\":2570:2588   */\n      add\n        /* \"#utility.yul\":2562:2588   */\n      swap1\n      pop\n        /* \"#utility.yul\":2634:2643   */\n      dup2\n        /* \"#utility.yul\":2628:2632   */\n      dup2\n        /* \"#utility.yul\":2624:2644   */\n      sub\n        /* \"#utility.yul\":2620:2621   */\n      0x00\n        /* \"#utility.yul\":2609:2618   */\n      dup4\n        /* \"#utility.yul\":2605:2622   */\n      add\n        /* \"#utility.yul\":2598:2645   */\n      mstore\n        /* \"#utility.yul\":2662:2740   */\n      tag_329\n        /* \"#utility.yul\":2735:2739   */\n      dup2\n        /* \"#utility.yul\":2726:2732   */\n      dup5\n        /* \"#utility.yul\":2662:2740   */\n      tag_233\n      jump\t// in\n    tag_329:\n        /* \"#utility.yul\":2654:2740   */\n      swap1\n      pop\n        /* \"#utility.yul\":2434:2747   */\n      swap3\n      swap2\n      pop\n      pop\n      jump\t// out\n        /* \"#utility.yul\":2753:2830   */\n    tag_234:\n        /* \"#utility.yul\":2790:2797   */\n      0x00\n        /* \"#utility.yul\":2819:2824   */\n      dup2\n        /* \"#utility.yul\":2808:2824   */\n      swap1\n      pop\n        /* \"#utility.yul\":2753:2830   */\n      swap2\n      swap1\n      pop\n      jump\t// out\n        /* \"#utility.yul\":2836:2958   */\n    tag_235:\n        /* \"#utility.yul\":2909:2933   */\n      tag_332\n        /* \"#utility.yul\":2927:2932   */\n      dup2\n        /* \"#utility.yul\":2909:2933   */\n      tag_234\n      jump\t// in\n    tag_332:\n        /* \"#utility.yul\":2902:2907   */\n      dup2\n        /* \"#utility.yul\":2899:2934   */\n      eq\n        /* \"#utility.yul\":2889:2952   */\n      tag_333\n      jumpi\n        /* \"#utility.yul\":2948:2949   */\n      0x00\n        /* \"#utility.yul\":2945:2946   */\n      0x00\n        /* \"#utility.yul\":2938:2950   */\n      revert\n        /* \"#utility.yul\":2889:2952   */\n    tag_333:\n        /* \"#utility.yul\":2836:2958   */\n      pop\n      jump\t// out\n        /* \"#utility.yul\":2964:3103   */\n    tag_236:\n        /* \"#utility.yul\":3010:3015   */\n      0x00\n        /* \"#utility.yul\":3048:3054   */\n      dup2\n        /* \"#utility.yul\":3035:3055   */\n      calldataload\n        /* \"#utility.yul\":3026:3055   */\n      swap1\n      pop\n        /* \"#utility.yul\":3064:3097   */\n      tag_335\n        /* \"#utility.yul\":3091:3096   */\n      dup2\n        /* \"#utility.yul\":3064:3097   */\n      tag_235\n      jump\t// in\n    tag_335:\n        /* \"#utility.yul\":2964:3103   */\n      swap3\n      swap2\n      pop\n      pop\n      jump\t// out\n        /* \"#utility.yul\":3109:3438   */\n    tag_37:\n        /* \"#utility.yul\":3168:3174   */\n      0x00\n        /* \"#utility.yul\":3217:3219   */\n      0x20\n        /* \"#utility.yul\":3205:3214   */\n      dup3\n        /* \"#utility.yul\":3196:3203   */\n      dup5\n        /* \"#utility.yul\":3192:3215   */\n      sub\n        /* \"#utility.yul\":3188:3220   */\n      slt\n        /* \"#utility.yul\":3185:3304   */\n      iszero\n      tag_337\n      jumpi\n        /* \"#utility.yul\":3223:3302   */\n      tag_338\n      tag_222\n      jump\t// in\n    tag_338:\n        /* \"#utility.yul\":3185:3304   */\n    tag_337:\n        /* \"#utility.yul\":3343:3344   */\n      0x00\n        /* \"#utility.yul\":3368:3421   */\n      tag_339\n        /* \"#utility.yul\":3413:3420   */\n      dup5\n        /* \"#utility.yul\":3404:3410   */\n      dup3\n        /* \"#utility.yul\":3393:3402   */\n      dup6\n        /* \"#utility.yul\":3389:3411   */\n      add\n        /* \"#utility.yul\":3368:3421   */\n      tag_236\n      jump\t// in\n    tag_339:\n        /* \"#utility.yul\":3358:3421   */\n      swap2\n      pop\n        /* \"#utility.yul\":3314:3431   */\n      pop\n        /* \"#utility.yul\":3109:3438   */\n      swap3\n      swap2\n      pop\n      pop\n      jump\t// out\n        /* \"#utility.yul\":3444:3570   */\n    tag_237:\n        /* \"#utility.yul\":3481:3488   */\n      0x00\n        /* \"#utility.yul\":3521:3563   */\n      0xffffffffffffffffffffffffffffffffffffffff\n        /* \"#utility.yul\":3514:3519   */\n      dup3\n        /* \"#utility.yul\":3510:3564   */\n      and\n        /* \"#utility.yul\":3499:3564   */\n      swap1\n      pop\n        /* \"#utility.yul\":3444:3570   */\n      swap2\n      swap1\n      pop\n      jump\t// out\n        /* \"#utility.yul\":3576:3672   */\n    tag_238:\n        /* \"#utility.yul\":3613:3620   */\n      0x00\n        /* \"#utility.yul\":3642:3666   */\n      tag_342\n        /* \"#utility.yul\":3660:3665   */\n      dup3\n        /* \"#utility.yul\":3642:3666   */\n      tag_237\n      jump\t// in\n    tag_342:\n        /* \"#utility.yul\":3631:3666   */\n      swap1\n      pop\n        /* \"#utility.yul\":3576:3672   */\n      swap2\n      swap1\n      pop\n      jump\t// out\n        /* \"#utility.yul\":3678:3796   */\n    tag_239:\n        /* \"#utility.yul\":3765:3789   */\n      tag_344\n        /* \"#utility.yul\":3783:3788   */\n      dup2\n        /* \"#utility.yul\":3765:3789   */\n      tag_238\n      jump\t// in\n    tag_344:\n        /* \"#utility.yul\":3760:3763   */\n      dup3\n        /* \"#utility.yul\":3753:3790   */\n      mstore\n        /* \"#utility.yul\":3678:3796   */\n      pop\n      pop\n      jump\t// out\n        /* \"#utility.yul\":3802:4024   */\n    tag_40:\n        /* \"#utility.yul\":3895:3899   */\n      0x00\n        /* \"#utility.yul\":3933:3935   */\n      0x20\n        /* \"#utility.yul\":3922:3931   */\n      dup3\n        /* \"#utility.yul\":3918:3936   */\n      add\n        /* \"#utility.yul\":3910:3936   */\n      swap1\n      pop\n        /* \"#utility.yul\":3946:4017   */\n      tag_346\n        /* \"#utility.yul\":4014:4015   */\n      0x00\n        /* \"#utility.yul\":4003:4012   */\n      dup4\n        /* \"#utility.yul\":3999:4016   */\n      add\n        /* \"#utility.yul\":3990:3996   */\n      dup5\n        /* \"#utility.yul\":3946:4017   */\n      tag_239\n      jump\t// in\n    tag_346:\n        /* \"#utility.yul\":3802:4024   */\n      swap3\n      swap2\n      pop\n      pop\n      jump\t// out\n        /* \"#utility.yul\":4030:4152   */\n    tag_240:\n        /* \"#utility.yul\":4103:4127   */\n      tag_348\n        /* \"#utility.yul\":4121:4126   */\n      dup2\n        /* \"#utility.yul\":4103:4127   */\n      tag_238\n      jump\t// in\n    tag_348:\n        /* \"#utility.yul\":4096:4101   */\n      dup2\n        /* \"#utility.yul\":4093:4128   */\n      eq\n        /* \"#utility.yul\":4083:4146   */\n      tag_349\n      jumpi\n        /* \"#utility.yul\":4142:4143   */\n      0x00\n        /* \"#utility.yul\":4139:4140   */\n      0x00\n        /* \"#utility.yul\":4132:4144   */\n      revert\n        /* \"#utility.yul\":4083:4146   */\n    tag_349:\n        /* \"#utility.yul\":4030:4152   */\n      pop\n      jump\t// out\n        /* \"#utility.yul\":4158:4297   */\n    tag_241:\n        /* \"#utility.yul\":4204:4209   */\n      0x00\n        /* \"#utility.yul\":4242:4248   */\n      dup2\n        /* \"#utility.yul\":4229:4249   */\n      calldataload\n        /* \"#utility.yul\":4220:4249   */\n      swap1\n      pop\n        /* \"#utility.yul\":4258:4291   */\n      tag_351\n        /* \"#utility.yul\":4285:4290   */\n      dup2\n        /* \"#utility.yul\":4258:4291   */\n      tag_240\n      jump\t// in\n    tag_351:\n        /* \"#utility.yul\":4158:4297   */\n      swap3\n      swap2\n      pop\n      pop\n      jump\t// out\n        /* \"#utility.yul\":4303:4777   */\n    tag_44:\n        /* \"#utility.yul\":4371:4377   */\n      0x00\n        /* \"#utility.yul\":4379:4385   */\n      0x00\n        /* \"#utility.yul\":4428:4430   */\n      0x40\n        /* \"#utility.yul\":4416:4425   */\n      dup4\n        /* \"#utility.yul\":4407:4414   */\n      dup6\n        /* \"#utility.yul\":4403:4426   */\n      sub\n        /* \"#utility.yul\":4399:4431   */\n      slt\n        /* \"#utility.yul\":4396:4515   */\n      iszero\n      tag_353\n      jumpi\n        /* \"#utility.yul\":4434:4513   */\n      tag_354\n      tag_222\n      jump\t// in\n    tag_354:\n        /* \"#utility.yul\":4396:4515   */\n    tag_353:\n        /* \"#utility.yul\":4554:4555   */\n      0x00\n        /* \"#utility.yul\":4579:4632   */\n      tag_355\n        /* \"#utility.yul\":4624:4631   */\n      dup6\n        /* \"#utility.yul\":4615:4621   */\n      dup3\n        /* \"#utility.yul\":4604:4613   */\n      dup7\n        /* \"#utility.yul\":4600:4622   */\n      add\n        /* \"#utility.yul\":4579:4632   */\n      tag_241\n      jump\t// in\n    tag_355:\n        /* \"#utility.yul\":4569:4632   */\n      swap3\n      pop\n        /* \"#utility.yul\":4525:4642   */\n      pop\n        /* \"#utility.yul\":4681:4683   */\n      0x20\n        /* \"#utility.yul\":4707:4760   */\n      tag_356\n        /* \"#utility.yul\":4752:4759   */\n      dup6\n        /* \"#utility.yul\":4743:4749   */\n      dup3\n        /* \"#utility.yul\":4732:4741   */\n      dup7\n        /* \"#utility.yul\":4728:4750   */\n      add\n        /* \"#utility.yul\":4707:4760   */\n      tag_236\n      jump\t// in\n    tag_356:\n        /* \"#utility.yul\":4697:4760   */\n      swap2\n      pop\n        /* \"#utility.yul\":4652:4770   */\n      pop\n        /* \"#utility.yul\":4303:4777   */\n      swap3\n      pop\n      swap3\n      swap1\n      pop\n      jump\t// out\n        /* \"#utility.yul\":4783:4901   */\n    tag_242:\n        /* \"#utility.yul\":4870:4894   */\n      tag_358\n        /* \"#utility.yul\":4888:4893   */\n      dup2\n        /* \"#utility.yul\":4870:4894   */\n      tag_234\n      jump\t// in\n    tag_358:\n        /* \"#utility.yul\":4865:4868   */\n      dup3\n        /* \"#utility.yul\":4858:4895   */\n      mstore\n        /* \"#utility.yul\":4783:4901   */\n      pop\n      pop\n      jump\t// out\n        /* \"#utility.yul\":4907:5129   */\n    tag_50:\n        /* \"#utility.yul\":5000:5004   */\n      0x00\n        /* \"#utility.yul\":5038:5040   */\n      0x20\n        /* \"#utility.yul\":5027:5036   */\n      dup3\n        /* \"#utility.yul\":5023:5041   */\n      add\n        /* \"#utility.yul\":5015:5041   */\n      swap1\n      pop\n        /* \"#utility.yul\":5051:5122   */\n      tag_360\n        /* \"#utility.yul\":5119:5120   */\n      0x00\n        /* \"#utility.yul\":5108:5117   */\n      dup4\n        /* \"#utility.yul\":5104:5121   */\n      add\n        /* \"#utility.yul\":5095:5101   */\n      dup5\n        /* \"#utility.yul\":5051:5122   */\n      tag_242\n      jump\t// in\n    tag_360:\n        /* \"#utility.yul\":4907:5129   */\n      swap3\n      swap2\n      pop\n      pop\n      jump\t// out\n        /* \"#utility.yul\":5135:5754   */\n    tag_53:\n        /* \"#utility.yul\":5212:5218   */\n      0x00\n        /* \"#utility.yul\":5220:5226   */\n      0x00\n        /* \"#utility.yul\":5228:5234   */\n      0x00\n        /* \"#utility.yul\":5277:5279   */\n      0x60\n        /* \"#utility.yul\":5265:5274   */\n      dup5\n        /* \"#utility.yul\":5256:5263   */\n      dup7\n        /* \"#utility.yul\":5252:5275   */\n      sub\n        /* \"#utility.yul\":5248:5280   */\n      slt\n        /* \"#utility.yul\":5245:5364   */\n      iszero\n      tag_362\n      jumpi\n        /* \"#utility.yul\":5283:5362   */\n      tag_363\n      tag_222\n      jump\t// in\n    tag_363:\n        /* \"#utility.yul\":5245:5364   */\n    tag_362:\n        /* \"#utility.yul\":5403:5404   */\n      0x00\n        /* \"#utility.yul\":5428:5481   */\n      tag_364\n        /* \"#utility.yul\":5473:5480   */\n      dup7\n        /* \"#utility.yul\":5464:5470   */\n      dup3\n        /* \"#utility.yul\":5453:5462   */\n      dup8\n        /* \"#utility.yul\":5449:5471   */\n      add\n        /* \"#utility.yul\":5428:5481   */\n      tag_241\n      jump\t// in\n    tag_364:\n        /* \"#utility.yul\":5418:5481   */\n      swap4\n      pop\n        /* \"#utility.yul\":5374:5491   */\n      pop\n        /* \"#utility.yul\":5530:5532   */\n      0x20\n        /* \"#utility.yul\":5556:5609   */\n      tag_365\n        /* \"#utility.yul\":5601:5608   */\n      dup7\n        /* \"#utility.yul\":5592:5598   */\n      dup3\n        /* \"#utility.yul\":5581:5590   */\n      dup8\n        /* \"#utility.yul\":5577:5599   */\n      add\n        /* \"#utility.yul\":5556:5609   */\n      tag_241\n      jump\t// in\n    tag_365:\n        /* \"#utility.yul\":5546:5609   */\n      swap3\n      pop\n        /* \"#utility.yul\":5501:5619   */\n      pop\n        /* \"#utility.yul\":5658:5660   */\n      0x40\n        /* \"#utility.yul\":5684:5737   */\n      tag_366\n        /* \"#utility.yul\":5729:5736   */\n      dup7\n        /* \"#utility.yul\":5720:5726   */\n      dup3\n        /* \"#utility.yul\":5709:5718   */\n      dup8\n        /* \"#utility.yul\":5705:5727   */\n      add\n        /* \"#utility.yul\":5684:5737   */\n      tag_236\n      jump\t// in\n    tag_366:\n        /* \"#utility.yul\":5674:5737   */\n      swap2\n      pop\n        /* \"#utility.yul\":5629:5747   */\n      pop\n        /* \"#utility.yul\":5135:5754   */\n      swap3\n      pop\n      swap3\n      pop\n      swap3\n      jump\t// out\n        /* \"#utility.yul\":5760:6089   */\n    tag_71:\n        /* \"#utility.yul\":5819:5825   */\n      0x00\n        /* \"#utility.yul\":5868:5870   */\n      0x20\n        /* \"#utility.yul\":5856:5865   */\n      dup3\n        /* \"#utility.yul\":5847:5854   */\n      dup5\n        /* \"#utility.yul\":5843:5866   */\n      sub\n        /* \"#utility.yul\":5839:5871   */\n      slt\n        /* \"#utility.yul\":5836:5955   */\n      iszero\n      tag_368\n      jumpi\n        /* \"#utility.yul\":5874:5953   */\n      tag_369\n      tag_222\n      jump\t// in\n    tag_369:\n        /* \"#utility.yul\":5836:5955   */\n    tag_368:\n        /* \"#utility.yul\":5994:5995   */\n      0x00\n        /* \"#utility.yul\":6019:6072   */\n      tag_370\n        /* \"#utility.yul\":6064:6071   */\n      dup5\n        /* \"#utility.yul\":6055:6061   */\n      dup3\n        /* \"#utility.yul\":6044:6053   */\n      dup6\n        /* \"#utility.yul\":6040:6062   */\n      add\n        /* \"#utility.yul\":6019:6072   */\n      tag_241\n      jump\t// in\n    tag_370:\n        /* \"#utility.yul\":6009:6072   */\n      swap2\n      pop\n        /* \"#utility.yul\":5965:6082   */\n      pop\n        /* \"#utility.yul\":5760:6089   */\n      swap3\n      swap2\n      pop\n      pop\n      jump\t// out\n        /* \"#utility.yul\":6095:6211   */\n    tag_243:\n        /* \"#utility.yul\":6165:6186   */\n      tag_372\n        /* \"#utility.yul\":6180:6185   */\n      dup2\n        /* \"#utility.yul\":6165:6186   */\n      tag_227\n      jump\t// in\n    tag_372:\n        /* \"#utility.yul\":6158:6163   */\n      dup2\n        /* \"#utility.yul\":6155:6187   */\n      eq\n        /* \"#utility.yul\":6145:6205   */\n      tag_373\n      jumpi\n        /* \"#utility.yul\":6201:6202   */\n      0x00\n        /* \"#utility.yul\":6198:6199   */\n      0x00\n        /* \"#utility.yul\":6191:6203   */\n      revert\n        /* \"#utility.yul\":6145:6205   */\n    tag_373:\n        /* \"#utility.yul\":6095:6211   */\n      pop\n      jump\t// out\n        /* \"#utility.yul\":6217:6350   */\n    tag_244:\n        /* \"#utility.yul\":6260:6265   */\n      0x00\n        /* \"#utility.yul\":6298:6304   */\n      dup2\n        /* \"#utility.yul\":6285:6305   */\n      calldataload\n        /* \"#utility.yul\":6276:6305   */\n      swap1\n      pop\n        /* \"#utility.yul\":6314:6344   */\n      tag_375\n        /* \"#utility.yul\":6338:6343   */\n      dup2\n        /* \"#utility.yul\":6314:6344   */\n      tag_243\n      jump\t// in\n    tag_375:\n        /* \"#utility.yul\":6217:6350   */\n      swap3\n      swap2\n      pop\n      pop\n      jump\t// out\n        /* \"#utility.yul\":6356:6824   */\n    tag_85:\n        /* \"#utility.yul\":6421:6427   */\n      0x00\n        /* \"#utility.yul\":6429:6435   */\n      0x00\n        /* \"#utility.yul\":6478:6480   */\n      0x40\n        /* \"#utility.yul\":6466:6475   */\n      dup4\n        /* \"#utility.yul\":6457:6464   */\n      dup6\n        /* \"#utility.yul\":6453:6476   */\n      sub\n        /* \"#utility.yul\":6449:6481   */\n      slt\n        /* \"#utility.yul\":6446:6565   */\n      iszero\n      tag_377\n      jumpi\n        /* \"#utility.yul\":6484:6563   */\n      tag_378\n      tag_222\n      jump\t// in\n    tag_378:\n        /* \"#utility.yul\":6446:6565   */\n    tag_377:\n        /* \"#utility.yul\":6604:6605   */\n      0x00\n        /* \"#utility.yul\":6629:6682   */\n      tag_379\n        /* \"#utility.yul\":6674:6681   */\n      dup6\n        /* \"#utility.yul\":6665:6671   */\n      dup3\n        /* \"#utility.yul\":6654:6663   */\n      dup7\n        /* \"#utility.yul\":6650:6672   */\n      add\n        /* \"#utility.yul\":6629:6682   */\n      tag_241\n      jump\t// in\n    tag_379:\n        /* \"#utility.yul\":6619:6682   */\n      swap3\n      pop\n        /* \"#utility.yul\":6575:6692   */\n      pop\n        /* \"#utility.yul\":6731:6733   */\n      0x20\n        /* \"#utility.yul\":6757:6807   */\n      tag_380\n        /* \"#utility.yul\":6799:6806   */\n      dup6\n        /* \"#utility.yul\":6790:6796   */\n      dup3\n        /* \"#utility.yul\":6779:6788   */\n      dup7\n        /* \"#utility.yul\":6775:6797   */\n      add\n        /* \"#utility.yul\":6757:6807   */\n      tag_244\n      jump\t// in\n    tag_380:\n        /* \"#utility.yul\":6747:6807   */\n      swap2\n      pop\n        /* \"#utility.yul\":6702:6817   */\n      pop\n        /* \"#utility.yul\":6356:6824   */\n      swap3\n      pop\n      swap3\n      swap1\n      pop\n      jump\t// out\n        /* \"#utility.yul\":6830:6947   */\n    tag_245:\n        /* \"#utility.yul\":6939:6940   */\n      0x00\n        /* \"#utility.yul\":6936:6937   */\n      0x00\n        /* \"#utility.yul\":6929:6941   */\n      revert\n        /* \"#utility.yul\":6953:7070   */\n    tag_246:\n        /* \"#utility.yul\":7062:7063   */\n      0x00\n        /* \"#utility.yul\":7059:7060   */\n      0x00\n        /* \"#utility.yul\":7052:7064   */\n      revert\n        /* \"#utility.yul\":7076:7256   */\n    tag_247:\n        /* \"#utility.yul\":7124:7201   */\n      0x4e487b7100000000000000000000000000000000000000000000000000000000\n        /* \"#utility.yul\":7121:7122   */\n      0x00\n        /* \"#utility.yul\":7114:7202   */\n      mstore\n        /* \"#utility.yul\":7221:7225   */\n      0x41\n        /* \"#utility.yul\":7218:7219   */\n      0x04\n        /* \"#utility.yul\":7211:7226   */\n      mstore\n        /* \"#utility.yul\":7245:7249   */\n      0x24\n        /* \"#utility.yul\":7242:7243   */\n      0x00\n        /* \"#utility.yul\":7235:7250   */\n      revert\n        /* \"#utility.yul\":7262:7543   */\n    tag_248:\n        /* \"#utility.yul\":7345:7372   */\n      tag_385\n        /* \"#utility.yul\":7367:7371   */\n      dup3\n        /* \"#utility.yul\":7345:7372   */\n      tag_232\n      jump\t// in\n    tag_385:\n        /* \"#utility.yul\":7337:7343   */\n      dup2\n        /* \"#utility.yul\":7333:7373   */\n      add\n        /* \"#utility.yul\":7475:7481   */\n      dup2\n        /* \"#utility.yul\":7463:7473   */\n      dup2\n        /* \"#utility.yul\":7460:7482   */\n      lt\n        /* \"#utility.yul\":7439:7457   */\n      0xffffffffffffffff\n        /* \"#utility.yul\":7427:7437   */\n      dup3\n        /* \"#utility.yul\":7424:7458   */\n      gt\n        /* \"#utility.yul\":7421:7483   */\n      or\n        /* \"#utility.yul\":7418:7506   */\n      iszero\n      tag_386\n      jumpi\n        /* \"#utility.yul\":7486:7504   */\n      tag_387\n      tag_247\n      jump\t// in\n    tag_387:\n        /* \"#utility.yul\":7418:7506   */\n    tag_386:\n        /* \"#utility.yul\":7526:7536   */\n      dup1\n        /* \"#utility.yul\":7522:7524   */\n      0x40\n        /* \"#utility.yul\":7515:7537   */\n      mstore\n        /* \"#utility.yul\":7305:7543   */\n      pop\n        /* \"#utility.yul\":7262:7543   */\n      pop\n      pop\n      jump\t// out\n        /* \"#utility.yul\":7549:7678   */\n    tag_249:\n        /* \"#utility.yul\":7583:7589   */\n      0x00\n        /* \"#utility.yul\":7610:7630   */\n      tag_389\n      tag_221\n      jump\t// in\n    tag_389:\n        /* \"#utility.yul\":7600:7630   */\n      swap1\n      pop\n        /* \"#utility.yul\":7639:7672   */\n      tag_390\n        /* \"#utility.yul\":7667:7671   */\n      dup3\n        /* \"#utility.yul\":7659:7665   */\n      dup3\n        /* \"#utility.yul\":7639:7672   */\n      tag_248\n      jump\t// in\n    tag_390:\n        /* \"#utility.yul\":7549:7678   */\n      swap2\n      swap1\n      pop\n      jump\t// out\n        /* \"#utility.yul\":7684:7991   */\n    tag_250:\n        /* \"#utility.yul\":7745:7749   */\n      0x00\n        /* \"#utility.yul\":7835:7853   */\n      0xffffffffffffffff\n        /* \"#utility.yul\":7827:7833   */\n      dup3\n        /* \"#utility.yul\":7824:7854   */\n      gt\n        /* \"#utility.yul\":7821:7877   */\n      iszero\n      tag_392\n      jumpi\n        /* \"#utility.yul\":7857:7875   */\n      tag_393\n      tag_247\n      jump\t// in\n    tag_393:\n        /* \"#utility.yul\":7821:7877   */\n    tag_392:\n        /* \"#utility.yul\":7895:7924   */\n      tag_394\n        /* \"#utility.yul\":7917:7923   */\n      dup3\n        /* \"#utility.yul\":7895:7924   */\n      tag_232\n      jump\t// in\n    tag_394:\n        /* \"#utility.yul\":7887:7924   */\n      swap1\n      pop\n        /* \"#utility.yul\":7979:7983   */\n      0x20\n        /* \"#utility.yul\":7973:7977   */\n      dup2\n        /* \"#utility.yul\":7969:7984   */\n      add\n        /* \"#utility.yul\":7961:7984   */\n      swap1\n      pop\n        /* \"#utility.yul\":7684:7991   */\n      swap2\n      swap1\n      pop\n      jump\t// out\n        /* \"#utility.yul\":7997:8145   */\n    tag_251:\n        /* \"#utility.yul\":8095:8101   */\n      dup3\n        /* \"#utility.yul\":8090:8093   */\n      dup2\n        /* \"#utility.yul\":8085:8088   */\n      dup4\n        /* \"#utility.yul\":8072:8102   */\n      calldatacopy\n        /* \"#utility.yul\":8136:8137   */\n      0x00\n        /* \"#utility.yul\":8127:8133   */\n      dup4\n        /* \"#utility.yul\":8122:8125   */\n      dup4\n        /* \"#utility.yul\":8118:8134   */\n      add\n        /* \"#utility.yul\":8111:8138   */\n      mstore\n        /* \"#utility.yul\":7997:8145   */\n      pop\n      pop\n      pop\n      jump\t// out\n        /* \"#utility.yul\":8151:8574   */\n    tag_252:\n        /* \"#utility.yul\":8228:8233   */\n      0x00\n        /* \"#utility.yul\":8253:8318   */\n      tag_397\n        /* \"#utility.yul\":8269:8317   */\n      tag_398\n        /* \"#utility.yul\":8310:8316   */\n      dup5\n        /* \"#utility.yul\":8269:8317   */\n      tag_250\n      jump\t// in\n    tag_398:\n        /* \"#utility.yul\":8253:8318   */\n      tag_249\n      jump\t// in\n    tag_397:\n        /* \"#utility.yul\":8244:8318   */\n      swap1\n      pop\n        /* \"#utility.yul\":8341:8347   */\n      dup3\n        /* \"#utility.yul\":8334:8339   */\n      dup2\n        /* \"#utility.yul\":8327:8348   */\n      mstore\n        /* \"#utility.yul\":8379:8383   */\n      0x20\n        /* \"#utility.yul\":8372:8377   */\n      dup2\n        /* \"#utility.yul\":8368:8384   */\n      add\n        /* \"#utility.yul\":8417:8420   */\n      dup5\n        /* \"#utility.yul\":8408:8414   */\n      dup5\n        /* \"#utility.yul\":8403:8406   */\n      dup5\n        /* \"#utility.yul\":8399:8415   */\n      add\n        /* \"#utility.yul\":8396:8421   */\n      gt\n        /* \"#utility.yul\":8393:8505   */\n      iszero\n      tag_399\n      jumpi\n        /* \"#utility.yul\":8424:8503   */\n      tag_400\n      tag_246\n      jump\t// in\n    tag_400:\n        /* \"#utility.yul\":8393:8505   */\n    tag_399:\n        /* \"#utility.yul\":8514:8568   */\n      tag_401\n        /* \"#utility.yul\":8561:8567   */\n      dup5\n        /* \"#utility.yul\":8556:8559   */\n      dup3\n        /* \"#utility.yul\":8551:8554   */\n      dup6\n        /* \"#utility.yul\":8514:8568   */\n      tag_251\n      jump\t// in\n    tag_401:\n        /* \"#utility.yul\":8234:8574   */\n      pop\n        /* \"#utility.yul\":8151:8574   */\n      swap4\n      swap3\n      pop\n      pop\n      pop\n      jump\t// out\n        /* \"#utility.yul\":8593:8931   */\n    tag_253:\n        /* \"#utility.yul\":8648:8653   */\n      0x00\n        /* \"#utility.yul\":8697:8700   */\n      dup3\n        /* \"#utility.yul\":8690:8694   */\n      0x1f\n        /* \"#utility.yul\":8682:8688   */\n      dup4\n        /* \"#utility.yul\":8678:8695   */\n      add\n        /* \"#utility.yul\":8674:8701   */\n      slt\n        /* \"#utility.yul\":8664:8786   */\n      tag_403\n      jumpi\n        /* \"#utility.yul\":8705:8784   */\n      tag_404\n      tag_245\n      jump\t// in\n    tag_404:\n        /* \"#utility.yul\":8664:8786   */\n    tag_403:\n        /* \"#utility.yul\":8822:8828   */\n      dup2\n        /* \"#utility.yul\":8809:8829   */\n      calldataload\n        /* \"#utility.yul\":8847:8925   */\n      tag_405\n        /* \"#utility.yul\":8921:8924   */\n      dup5\n        /* \"#utility.yul\":8913:8919   */\n      dup3\n        /* \"#utility.yul\":8906:8910   */\n      0x20\n        /* \"#utility.yul\":8898:8904   */\n      dup7\n        /* \"#utility.yul\":8894:8911   */\n      add\n        /* \"#utility.yul\":8847:8925   */\n      tag_252\n      jump\t// in\n    tag_405:\n        /* \"#utility.yul\":8838:8925   */\n      swap2\n      pop\n        /* \"#utility.yul\":8654:8931   */\n      pop\n        /* \"#utility.yul\":8593:8931   */\n      swap3\n      swap2\n      pop\n      pop\n      jump\t// out\n        /* \"#utility.yul\":8937:9880   */\n    tag_90:\n        /* \"#utility.yul\":9032:9038   */\n      0x00\n        /* \"#utility.yul\":9040:9046   */\n      0x00\n        /* \"#utility.yul\":9048:9054   */\n      0x00\n        /* \"#utility.yul\":9056:9062   */\n      0x00\n        /* \"#utility.yul\":9105:9108   */\n      0x80\n        /* \"#utility.yul\":9093:9102   */\n      dup6\n        /* \"#utility.yul\":9084:9091   */\n      dup8\n        /* \"#utility.yul\":9080:9103   */\n      sub\n        /* \"#utility.yul\":9076:9109   */\n      slt\n        /* \"#utility.yul\":9073:9193   */\n      iszero\n      tag_407\n      jumpi\n        /* \"#utility.yul\":9112:9191   */\n      tag_408\n      tag_222\n      jump\t// in\n    tag_408:\n        /* \"#utility.yul\":9073:9193   */\n    tag_407:\n        /* \"#utility.yul\":9232:9233   */\n      0x00\n        /* \"#utility.yul\":9257:9310   */\n      tag_409\n        /* \"#utility.yul\":9302:9309   */\n      dup8\n        /* \"#utility.yul\":9293:9299   */\n      dup3\n        /* \"#utility.yul\":9282:9291   */\n      dup9\n        /* \"#utility.yul\":9278:9300   */\n      add\n        /* \"#utility.yul\":9257:9310   */\n      tag_241\n      jump\t// in\n    tag_409:\n        /* \"#utility.yul\":9247:9310   */\n      swap5\n      pop\n        /* \"#utility.yul\":9203:9320   */\n      pop\n        /* \"#utility.yul\":9359:9361   */\n      0x20\n        /* \"#utility.yul\":9385:9438   */\n      tag_410\n        /* \"#utility.yul\":9430:9437   */\n      dup8\n        /* \"#utility.yul\":9421:9427   */\n      dup3\n        /* \"#utility.yul\":9410:9419   */\n      dup9\n        /* \"#utility.yul\":9406:9428   */\n      add\n        /* \"#utility.yul\":9385:9438   */\n      tag_241\n      jump\t// in\n    tag_410:\n        /* \"#utility.yul\":9375:9438   */\n      swap4\n      pop\n        /* \"#utility.yul\":9330:9448   */\n      pop\n        /* \"#utility.yul\":9487:9489   */\n      0x40\n        /* \"#utility.yul\":9513:9566   */\n      tag_411\n        /* \"#utility.yul\":9558:9565   */\n      dup8\n        /* \"#utility.yul\":9549:9555   */\n      dup3\n        /* \"#utility.yul\":9538:9547   */\n      dup9\n        /* \"#utility.yul\":9534:9556   */\n      add\n        /* \"#utility.yul\":9513:9566   */\n      tag_236\n      jump\t// in\n    tag_411:\n        /* \"#utility.yul\":9503:9566   */\n      swap3\n      pop\n        /* \"#utility.yul\":9458:9576   */\n      pop\n        /* \"#utility.yul\":9643:9645   */\n      0x60\n        /* \"#utility.yul\":9632:9641   */\n      dup6\n        /* \"#utility.yul\":9628:9646   */\n      add\n        /* \"#utility.yul\":9615:9647   */\n      calldataload\n        /* \"#utility.yul\":9674:9692   */\n      0xffffffffffffffff\n        /* \"#utility.yul\":9666:9672   */\n      dup2\n        /* \"#utility.yul\":9663:9693   */\n      gt\n        /* \"#utility.yul\":9660:9777   */\n      iszero\n      tag_412\n      jumpi\n        /* \"#utility.yul\":9696:9775   */\n      tag_413\n      tag_223\n      jump\t// in\n    tag_413:\n        /* \"#utility.yul\":9660:9777   */\n    tag_412:\n        /* \"#utility.yul\":9801:9863   */\n      tag_414\n        /* \"#utility.yul\":9855:9862   */\n      dup8\n        /* \"#utility.yul\":9846:9852   */\n      dup3\n        /* \"#utility.yul\":9835:9844   */\n      dup9\n        /* \"#utility.yul\":9831:9853   */\n      add\n        /* \"#utility.yul\":9801:9863   */\n      tag_253\n      jump\t// in\n    tag_414:\n        /* \"#utility.yul\":9791:9863   */\n      swap2\n      pop\n        /* \"#utility.yul\":9586:9873   */\n      pop\n        /* \"#utility.yul\":8937:9880   */\n      swap3\n      swap6\n      swap2\n      swap5\n      pop\n      swap3\n      pop\n      jump\t// out\n        /* \"#utility.yul\":9886:10194   */\n    tag_254:\n        /* \"#utility.yul\":9948:9952   */\n      0x00\n        /* \"#utility.yul\":10038:10056   */\n      0xffffffffffffffff\n        /* \"#utility.yul\":10030:10036   */\n      dup3\n        /* \"#utility.yul\":10027:10057   */\n      gt\n        /* \"#utility.yul\":10024:10080   */\n      iszero\n      tag_416\n      jumpi\n        /* \"#utility.yul\":10060:10078   */\n      tag_417\n      tag_247\n      jump\t// in\n    tag_417:\n        /* \"#utility.yul\":10024:10080   */\n    tag_416:\n        /* \"#utility.yul\":10098:10127   */\n      tag_418\n        /* \"#utility.yul\":10120:10126   */\n      dup3\n        /* \"#utility.yul\":10098:10127   */\n      tag_232\n      jump\t// in\n    tag_418:\n        /* \"#utility.yul\":10090:10127   */\n      swap1\n      pop\n        /* \"#utility.yul\":10182:10186   */\n      0x20\n        /* \"#utility.yul\":10176:10180   */\n      dup2\n        /* \"#utility.yul\":10172:10187   */\n      add\n        /* \"#utility.yul\":10164:10187   */\n      swap1\n      pop\n        /* \"#utility.yul\":9886:10194   */\n      swap2\n      swap1\n      pop\n      jump\t// out\n        /* \"#utility.yul\":10200:10625   */\n    tag_255:\n        /* \"#utility.yul\":10278:10283   */\n      0x00\n        /* \"#utility.yul\":10303:10369   */\n      tag_420\n        /* \"#utility.yul\":10319:10368   */\n      tag_421\n        /* \"#utility.yul\":10361:10367   */\n      dup5\n        /* \"#utility.yul\":10319:10368   */\n      tag_254\n      jump\t// in\n    tag_421:\n        /* \"#utility.yul\":10303:10369   */\n      tag_249\n      jump\t// in\n    tag_420:\n        /* \"#utility.yul\":10294:10369   */\n      swap1\n      pop\n        /* \"#utility.yul\":10392:10398   */\n      dup3\n        /* \"#utility.yul\":10385:10390   */\n      dup2\n        /* \"#utility.yul\":10378:10399   */\n      mstore\n        /* \"#utility.yul\":10430:10434   */\n      0x20\n        /* \"#utility.yul\":10423:10428   */\n      dup2\n        /* \"#utility.yul\":10419:10435   */\n      add\n        /* \"#utility.yul\":10468:10471   */\n      dup5\n        /* \"#utility.yul\":10459:10465   */\n      dup5\n        /* \"#utility.yul\":10454:10457   */\n      dup5\n        /* \"#utility.yul\":10450:10466   */\n      add\n        /* \"#utility.yul\":10447:10472   */\n      gt\n        /* \"#utility.yul\":10444:10556   */\n      iszero\n      tag_422\n      jumpi\n        /* \"#utility.yul\":10475:10554   */\n      tag_423\n      tag_246\n      jump\t// in\n    tag_423:\n        /* \"#utility.yul\":10444:10556   */\n    tag_422:\n        /* \"#utility.yul\":10565:10619   */\n      tag_424\n        /* \"#utility.yul\":10612:10618   */\n      dup5\n        /* \"#utility.yul\":10607:10610   */\n      dup3\n        /* \"#utility.yul\":10602:10605   */\n      dup6\n        /* \"#utility.yul\":10565:10619   */\n      tag_251\n      jump\t// in\n    tag_424:\n        /* \"#utility.yul\":10284:10625   */\n      pop\n        /* \"#utility.yul\":10200:10625   */\n      swap4\n      swap3\n      pop\n      pop\n      pop\n      jump\t// out\n        /* \"#utility.yul\":10645:10985   */\n    tag_256:\n        /* \"#utility.yul\":10701:10706   */\n      0x00\n        /* \"#utility.yul\":10750:10753   */\n      dup3\n        /* \"#utility.yul\":10743:10747   */\n      0x1f\n        /* \"#utility.yul\":10735:10741   */\n      dup4\n        /* \"#utility.yul\":10731:10748   */\n      add\n        /* \"#utility.yul\":10727:10754   */\n      slt\n        /* \"#utility.yul\":10717:10839   */\n      tag_426\n      jumpi\n        /* \"#utility.yul\":10758:10837   */\n      tag_427\n      tag_245\n      jump\t// in\n    tag_427:\n        /* \"#utility.yul\":10717:10839   */\n    tag_426:\n        /* \"#utility.yul\":10875:10881   */\n      dup2\n        /* \"#utility.yul\":10862:10882   */\n      calldataload\n        /* \"#utility.yul\":10900:10979   */\n      tag_428\n        /* \"#utility.yul\":10975:10978   */\n      dup5\n        /* \"#utility.yul\":10967:10973   */\n      dup3\n        /* \"#utility.yul\":10960:10964   */\n      0x20\n        /* \"#utility.yul\":10952:10958   */\n      dup7\n        /* \"#utility.yul\":10948:10965   */\n      add\n        /* \"#utility.yul\":10900:10979   */\n      tag_255\n      jump\t// in\n    tag_428:\n        /* \"#utility.yul\":10891:10979   */\n      swap2\n      pop\n        /* \"#utility.yul\":10707:10985   */\n      pop\n        /* \"#utility.yul\":10645:10985   */\n      swap3\n      swap2\n      pop\n      pop\n      jump\t// out\n        /* \"#utility.yul\":10991:11645   */\n    tag_100:\n        /* \"#utility.yul\":11069:11075   */\n      0x00\n        /* \"#utility.yul\":11077:11083   */\n      0x00\n        /* \"#utility.yul\":11126:11128   */\n      0x40\n        /* \"#utility.yul\":11114:11123   */\n      dup4\n        /* \"#utility.yul\":11105:11112   */\n      dup6\n        /* \"#utility.yul\":11101:11124   */\n      sub\n        /* \"#utility.yul\":11097:11129   */\n      slt\n        /* \"#utility.yul\":11094:11213   */\n      iszero\n      tag_430\n      jumpi\n        /* \"#utility.yul\":11132:11211   */\n      tag_431\n      tag_222\n      jump\t// in\n    tag_431:\n        /* \"#utility.yul\":11094:11213   */\n    tag_430:\n        /* \"#utility.yul\":11252:11253   */\n      0x00\n        /* \"#utility.yul\":11277:11330   */\n      tag_432\n        /* \"#utility.yul\":11322:11329   */\n      dup6\n        /* \"#utility.yul\":11313:11319   */\n      dup3\n        /* \"#utility.yul\":11302:11311   */\n      dup7\n        /* \"#utility.yul\":11298:11320   */\n      add\n        /* \"#utility.yul\":11277:11330   */\n      tag_241\n      jump\t// in\n    tag_432:\n        /* \"#utility.yul\":11267:11330   */\n      swap3\n      pop\n        /* \"#utility.yul\":11223:11340   */\n      pop\n        /* \"#utility.yul\":11407:11409   */\n      0x20\n        /* \"#utility.yul\":11396:11405   */\n      dup4\n        /* \"#utility.yul\":11392:11410   */\n      add\n        /* \"#utility.yul\":11379:11411   */\n      calldataload\n        /* \"#utility.yul\":11438:11456   */\n      0xffffffffffffffff\n        /* \"#utility.yul\":11430:11436   */\n      dup2\n        /* \"#utility.yul\":11427:11457   */\n      gt\n        /* \"#utility.yul\":11424:11541   */\n      iszero\n      tag_433\n      jumpi\n        /* \"#utility.yul\":11460:11539   */\n      tag_434\n      tag_223\n      jump\t// in\n    tag_434:\n        /* \"#utility.yul\":11424:11541   */\n    tag_433:\n        /* \"#utility.yul\":11565:11628   */\n      tag_435\n        /* \"#utility.yul\":11620:11627   */\n      dup6\n        /* \"#utility.yul\":11611:11617   */\n      dup3\n        /* \"#utility.yul\":11600:11609   */\n      dup7\n        /* \"#utility.yul\":11596:11618   */\n      add\n        /* \"#utility.yul\":11565:11628   */\n      tag_256\n      jump\t// in\n    tag_435:\n        /* \"#utility.yul\":11555:11628   */\n      swap2\n      pop\n        /* \"#utility.yul\":11350:11638   */\n      pop\n        /* \"#utility.yul\":10991:11645   */\n      swap3\n      pop\n      swap3\n      swap1\n      pop\n      jump\t// out\n        /* \"#utility.yul\":11651:12125   */\n    tag_105:\n        /* \"#utility.yul\":11719:11725   */\n      0x00\n        /* \"#utility.yul\":11727:11733   */\n      0x00\n        /* \"#utility.yul\":11776:11778   */\n      0x40\n        /* \"#utility.yul\":11764:11773   */\n      dup4\n        /* \"#utility.yul\":11755:11762   */\n      dup6\n        /* \"#utility.yul\":11751:11774   */\n      sub\n        /* \"#utility.yul\":11747:11779   */\n      slt\n        /* \"#utility.yul\":11744:11863   */\n      iszero\n      tag_437\n      jumpi\n        /* \"#utility.yul\":11782:11861   */\n      tag_438\n      tag_222\n      jump\t// in\n    tag_438:\n        /* \"#utility.yul\":11744:11863   */\n    tag_437:\n        /* \"#utility.yul\":11902:11903   */\n      0x00\n        /* \"#utility.yul\":11927:11980   */\n      tag_439\n        /* \"#utility.yul\":11972:11979   */\n      dup6\n        /* \"#utility.yul\":11963:11969   */\n      dup3\n        /* \"#utility.yul\":11952:11961   */\n      dup7\n        /* \"#utility.yul\":11948:11970   */\n      add\n        /* \"#utility.yul\":11927:11980   */\n      tag_241\n      jump\t// in\n    tag_439:\n        /* \"#utility.yul\":11917:11980   */\n      swap3\n      pop\n        /* \"#utility.yul\":11873:11990   */\n      pop\n        /* \"#utility.yul\":12029:12031   */\n      0x20\n        /* \"#utility.yul\":12055:12108   */\n      tag_440\n        /* \"#utility.yul\":12100:12107   */\n      dup6\n        /* \"#utility.yul\":12091:12097   */\n      dup3\n        /* \"#utility.yul\":12080:12089   */\n      dup7\n        /* \"#utility.yul\":12076:12098   */\n      add\n        /* \"#utility.yul\":12055:12108   */\n      tag_241\n      jump\t// in\n    tag_440:\n        /* \"#utility.yul\":12045:12108   */\n      swap2\n      pop\n        /* \"#utility.yul\":12000:12118   */\n      pop\n        /* \"#utility.yul\":11651:12125   */\n      swap3\n      pop\n      swap3\n      swap1\n      pop\n      jump\t// out\n        /* \"#utility.yul\":12131:12311   */\n    tag_257:\n        /* \"#utility.yul\":12179:12256   */\n      0x4e487b7100000000000000000000000000000000000000000000000000000000\n        /* \"#utility.yul\":12176:12177   */\n      0x00\n        /* \"#utility.yul\":12169:12257   */\n      mstore\n        /* \"#utility.yul\":12276:12280   */\n      0x22\n        /* \"#utility.yul\":12273:12274   */\n      0x04\n        /* \"#utility.yul\":12266:12281   */\n      mstore\n        /* \"#utility.yul\":12300:12304   */\n      0x24\n        /* \"#utility.yul\":12297:12298   */\n      0x00\n        /* \"#utility.yul\":12290:12305   */\n      revert\n        /* \"#utility.yul\":12317:12637   */\n    tag_112:\n        /* \"#utility.yul\":12361:12367   */\n      0x00\n        /* \"#utility.yul\":12398:12399   */\n      0x02\n        /* \"#utility.yul\":12392:12396   */\n      dup3\n        /* \"#utility.yul\":12388:12400   */\n      div\n        /* \"#utility.yul\":12378:12400   */\n      swap1\n      pop\n        /* \"#utility.yul\":12445:12446   */\n      0x01\n        /* \"#utility.yul\":12439:12443   */\n      dup3\n        /* \"#utility.yul\":12435:12447   */\n      and\n        /* \"#utility.yul\":12466:12484   */\n      dup1\n        /* \"#utility.yul\":12456:12537   */\n      tag_443\n      jumpi\n        /* \"#utility.yul\":12522:12526   */\n      0x7f\n        /* \"#utility.yul\":12514:12520   */\n      dup3\n        /* \"#utility.yul\":12510:12527   */\n      and\n        /* \"#utility.yul\":12500:12527   */\n      swap2\n      pop\n        /* \"#utility.yul\":12456:12537   */\n    tag_443:\n        /* \"#utility.yul\":12584:12586   */\n      0x20\n        /* \"#utility.yul\":12576:12582   */\n      dup3\n        /* \"#utility.yul\":12573:12587   */\n      lt\n        /* \"#utility.yul\":12553:12571   */\n      dup2\n        /* \"#utility.yul\":12550:12588   */\n      sub\n        /* \"#utility.yul\":12547:12631   */\n      tag_444\n      jumpi\n        /* \"#utility.yul\":12603:12621   */\n      tag_445\n      tag_257\n      jump\t// in\n    tag_445:\n        /* \"#utility.yul\":12547:12631   */\n    tag_444:\n        /* \"#utility.yul\":12368:12637   */\n      pop\n        /* \"#utility.yul\":12317:12637   */\n      swap2\n      swap1\n      pop\n      jump\t// out\n        /* \"#utility.yul\":12643:12874   */\n    tag_258:\n        /* \"#utility.yul\":12783:12817   */\n      0x4552433732313a20617070726f76656420717565727920666f72206e6f6e6578\n        /* \"#utility.yul\":12779:12780   */\n      0x00\n        /* \"#utility.yul\":12771:12777   */\n      dup3\n        /* \"#utility.yul\":12767:12781   */\n      add\n        /* \"#utility.yul\":12760:12818   */\n      mstore\n        /* \"#utility.yul\":12852:12866   */\n      0x697374656e7420746f6b656e0000000000000000000000000000000000000000\n        /* \"#utility.yul\":12847:12849   */\n      0x20\n        /* \"#utility.yul\":12839:12845   */\n      dup3\n        /* \"#utility.yul\":12835:12850   */\n      add\n        /* \"#utility.yul\":12828:12867   */\n      mstore\n        /* \"#utility.yul\":12643:12874   */\n      pop\n      jump\t// out\n        /* \"#utility.yul\":12880:13246   */\n    tag_259:\n        /* \"#utility.yul\":13022:13025   */\n      0x00\n        /* \"#utility.yul\":13043:13110   */\n      tag_448\n        /* \"#utility.yul\":13107:13109   */\n      0x2c\n        /* \"#utility.yul\":13102:13105   */\n      dup4\n        /* \"#utility.yul\":13043:13110   */\n      tag_230\n      jump\t// in\n    tag_448:\n        /* \"#utility.yul\":13036:13110   */\n      swap2\n      pop\n        /* \"#utility.yul\":13119:13212   */\n      tag_449\n        /* \"#utility.yul\":13208:13211   */\n      dup3\n        /* \"#utility.yul\":13119:13212   */\n      tag_258\n      jump\t// in\n    tag_449:\n        /* \"#utility.yul\":13237:13239   */\n      0x40\n        /* \"#utility.yul\":13232:13235   */\n      dup3\n        /* \"#utility.yul\":13228:13240   */\n      add\n        /* \"#utility.yul\":13221:13240   */\n      swap1\n      pop\n        /* \"#utility.yul\":12880:13246   */\n      swap2\n      swap1\n      pop\n      jump\t// out\n        /* \"#utility.yul\":13252:13671   */\n    tag_120:\n        /* \"#utility.yul\":13418:13422   */\n      0x00\n        /* \"#utility.yul\":13456:13458   */\n      0x20\n        /* \"#utility.yul\":13445:13454   */\n      dup3\n        /* \"#utility.yul\":13441:13459   */\n      add\n        /* \"#utility.yul\":13433:13459   */\n      swap1\n      pop\n        /* \"#utility.yul\":13505:13514   */\n      dup2\n        /* \"#utility.yul\":13499:13503   */\n      dup2\n        /* \"#utility.yul\":13495:13515   */\n      sub\n        /* \"#utility.yul\":13491:13492   */\n      0x00\n        /* \"#utility.yul\":13480:13489   */\n      dup4\n        /* \"#utility.yul\":13476:13493   */\n      add\n        /* \"#utility.yul\":13469:13516   */\n      mstore\n        /* \"#utility.yul\":13533:13664   */\n      tag_451\n        /* \"#utility.yul\":13659:13663   */\n      dup2\n        /* \"#utility.yul\":13533:13664   */\n      tag_259\n      jump\t// in\n    tag_451:\n        /* \"#utility.yul\":13525:13664   */\n      swap1\n      pop\n        /* \"#utility.yul\":13252:13671   */\n      swap2\n      swap1\n      pop\n      jump\t// out\n        /* \"#utility.yul\":13677:13905   */\n    tag_260:\n        /* \"#utility.yul\":13817:13851   */\n      0x4552433732313a20617070726f76652063616c6c6572206973206e6f7420746f\n        /* \"#utility.yul\":13813:13814   */\n      0x00\n        /* \"#utility.yul\":13805:13811   */\n      dup3\n        /* \"#utility.yul\":13801:13815   */\n      add\n        /* \"#utility.yul\":13794:13852   */\n      mstore\n        /* \"#utility.yul\":13886:13897   */\n      0x6b656e206f776e65720000000000000000000000000000000000000000000000\n        /* \"#utility.yul\":13881:13883   */\n      0x20\n        /* \"#utility.yul\":13873:13879   */\n      dup3\n        /* \"#utility.yul\":13869:13884   */\n      add\n        /* \"#utility.yul\":13862:13898   */\n      mstore\n        /* \"#utility.yul\":13677:13905   */\n      pop\n      jump\t// out\n        /* \"#utility.yul\":13911:14277   */\n    tag_261:\n        /* \"#utility.yul\":14053:14056   */\n      0x00\n        /* \"#utility.yul\":14074:14141   */\n      tag_454\n        /* \"#utility.yul\":14138:14140   */\n      0x29\n        /* \"#utility.yul\":14133:14136   */\n      dup4\n        /* \"#utility.yul\":14074:14141   */\n      tag_230\n      jump\t// in\n    tag_454:\n        /* \"#utility.yul\":14067:14141   */\n      swap2\n      pop\n        /* \"#utility.yul\":14150:14243   */\n      tag_455\n        /* \"#utility.yul\":14239:14242   */\n      dup3\n        /* \"#utility.yul\":14150:14243   */\n      tag_260\n      jump\t// in\n    tag_455:\n        /* \"#utility.yul\":14268:14270   */\n      0x40\n        /* \"#utility.yul\":14263:14266   */\n      dup3\n        /* \"#utility.yul\":14259:14271   */\n      add\n        /* \"#utility.yul\":14252:14271   */\n      swap1\n      pop\n        /* \"#utility.yul\":13911:14277   */\n      swap2\n      swap1\n      pop\n      jump\t// out\n        /* \"#utility.yul\":14283:14702   */\n    tag_125:\n        /* \"#utility.yul\":14449:14453   */\n      0x00\n        /* \"#utility.yul\":14487:14489   */\n      0x20\n        /* \"#utility.yul\":14476:14485   */\n      dup3\n        /* \"#utility.yul\":14472:14490   */\n      add\n        /* \"#utility.yul\":14464:14490   */\n      swap1\n      pop\n        /* \"#utility.yul\":14536:14545   */\n      dup2\n        /* \"#utility.yul\":14530:14534   */\n      dup2\n        /* \"#utility.yul\":14526:14546   */\n      sub\n        /* \"#utility.yul\":14522:14523   */\n      0x00\n        /* \"#utility.yul\":14511:14520   */\n      dup4\n        /* \"#utility.yul\":14507:14524   */\n      add\n        /* \"#utility.yul\":14500:14547   */\n      mstore\n        /* \"#utility.yul\":14564:14695   */\n      tag_457\n        /* \"#utility.yul\":14690:14694   */\n      dup2\n        /* \"#utility.yul\":14564:14695   */\n      tag_261\n      jump\t// in\n    tag_457:\n        /* \"#utility.yul\":14556:14695   */\n      swap1\n      pop\n        /* \"#utility.yul\":14283:14702   */\n      swap2\n      swap1\n      pop\n      jump\t// out\n        /* \"#utility.yul\":14708:14888   */\n    tag_262:\n        /* \"#utility.yul\":14756:14833   */\n      0x4e487b7100000000000000000000000000000000000000000000000000000000\n        /* \"#utility.yul\":14753:14754   */\n      0x00\n        /* \"#utility.yul\":14746:14834   */\n      mstore\n        /* \"#utility.yul\":14853:14857   */\n      0x11\n        /* \"#utility.yul\":14850:14851   */\n      0x04\n        /* \"#utility.yul\":14843:14858   */\n      mstore\n        /* \"#utility.yul\":14877:14881   */\n      0x24\n        /* \"#utility.yul\":14874:14875   */\n      0x00\n        /* \"#utility.yul\":14867:14882   */\n      revert\n        /* \"#utility.yul\":14894:15088   */\n    tag_129:\n        /* \"#utility.yul\":14934:14938   */\n      0x00\n        /* \"#utility.yul\":14954:14974   */\n      tag_460\n        /* \"#utility.yul\":14972:14973   */\n      dup3\n        /* \"#utility.yul\":14954:14974   */\n      tag_234\n      jump\t// in\n    tag_460:\n        /* \"#utility.yul\":14949:14974   */\n      swap2\n      pop\n        /* \"#utility.yul\":14988:15008   */\n      tag_461\n        /* \"#utility.yul\":15006:15007   */\n      dup4\n        /* \"#utility.yul\":14988:15008   */\n      tag_234\n      jump\t// in\n    tag_461:\n        /* \"#utility.yul\":14983:15008   */\n      swap3\n      pop\n        /* \"#utility.yul\":15032:15033   */\n      dup3\n        /* \"#utility.yul\":15029:15030   */\n      dup3\n        /* \"#utility.yul\":15025:15034   */\n      sub\n        /* \"#utility.yul\":15017:15034   */\n      swap1\n      pop\n        /* \"#utility.yul\":15056:15057   */\n      dup2\n        /* \"#utility.yul\":15050:15054   */\n      dup2\n        /* \"#utility.yul\":15047:15058   */\n      gt\n        /* \"#utility.yul\":15044:15081   */\n      iszero\n      tag_462\n      jumpi\n        /* \"#utility.yul\":15061:15079   */\n      tag_463\n      tag_262\n      jump\t// in\n    tag_463:\n        /* \"#utility.yul\":15044:15081   */\n    tag_462:\n        /* \"#utility.yul\":14894:15088   */\n      swap3\n      swap2\n      pop\n      pop\n      jump\t// out\n        /* \"#utility.yul\":15094:15330   */\n    tag_263:\n        /* \"#utility.yul\":15234:15268   */\n      0x4552433732313a207472616e736665722063616c6c6572206973206e6f74206f\n        /* \"#utility.yul\":15230:15231   */\n      0x00\n        /* \"#utility.yul\":15222:15228   */\n      dup3\n        /* \"#utility.yul\":15218:15232   */\n      add\n        /* \"#utility.yul\":15211:15269   */\n      mstore\n        /* \"#utility.yul\":15303:15322   */\n      0x776e6572206e6f7220617070726f766564000000000000000000000000000000\n        /* \"#utility.yul\":15298:15300   */\n      0x20\n        /* \"#utility.yul\":15290:15296   */\n      dup3\n        /* \"#utility.yul\":15286:15301   */\n      add\n        /* \"#utility.yul\":15279:15323   */\n      mstore\n        /* \"#utility.yul\":15094:15330   */\n      pop\n      jump\t// out\n        /* \"#utility.yul\":15336:15702   */\n    tag_264:\n        /* \"#utility.yul\":15478:15481   */\n      0x00\n        /* \"#utility.yul\":15499:15566   */\n      tag_466\n        /* \"#utility.yul\":15563:15565   */\n      0x31\n        /* \"#utility.yul\":15558:15561   */\n      dup4\n        /* \"#utility.yul\":15499:15566   */\n      tag_230\n      jump\t// in\n    tag_466:\n        /* \"#utility.yul\":15492:15566   */\n      swap2\n      pop\n        /* \"#utility.yul\":15575:15668   */\n      tag_467\n        /* \"#utility.yul\":15664:15667   */\n      dup3\n        /* \"#utility.yul\":15575:15668   */\n      tag_263\n      jump\t// in\n    tag_467:\n        /* \"#utility.yul\":15693:15695   */\n      0x40\n        /* \"#utility.yul\":15688:15691   */\n      dup3\n        /* \"#utility.yul\":15684:15696   */\n      add\n        /* \"#utility.yul\":15677:15696   */\n      swap1\n      pop\n        /* \"#utility.yul\":15336:15702   */\n      swap2\n      swap1\n      pop\n      jump\t// out\n        /* \"#utility.yul\":15708:16127   */\n    tag_137:\n        /* \"#utility.yul\":15874:15878   */\n      0x00\n        /* \"#utility.yul\":15912:15914   */\n      0x20\n        /* \"#utility.yul\":15901:15910   */\n      dup3\n        /* \"#utility.yul\":15897:15915   */\n      add\n        /* \"#utility.yul\":15889:15915   */\n      swap1\n      pop\n        /* \"#utility.yul\":15961:15970   */\n      dup2\n        /* \"#utility.yul\":15955:15959   */\n      dup2\n        /* \"#utility.yul\":15951:15971   */\n      sub\n        /* \"#utility.yul\":15947:15948   */\n      0x00\n        /* \"#utility.yul\":15936:15945   */\n      dup4\n        /* \"#utility.yul\":15932:15949   */\n      add\n        /* \"#utility.yul\":15925:15972   */\n      mstore\n        /* \"#utility.yul\":15989:16120   */\n      tag_469\n        /* \"#utility.yul\":16115:16119   */\n      dup2\n        /* \"#utility.yul\":15989:16120   */\n      tag_264\n      jump\t// in\n    tag_469:\n        /* \"#utility.yul\":15981:16120   */\n      swap1\n      pop\n        /* \"#utility.yul\":15708:16127   */\n      swap2\n      swap1\n      pop\n      jump\t// out\n        /* \"#utility.yul\":16133:16361   */\n    tag_265:\n        /* \"#utility.yul\":16273:16307   */\n      0x4552433732313a206f776e657220717565727920666f72206e6f6e6578697374\n        /* \"#utility.yul\":16269:16270   */\n      0x00\n        /* \"#utility.yul\":16261:16267   */\n      dup3\n        /* \"#utility.yul\":16257:16271   */\n      add\n        /* \"#utility.yul\":16250:16308   */\n      mstore\n        /* \"#utility.yul\":16342:16353   */\n      0x656e7420746f6b656e0000000000000000000000000000000000000000000000\n        /* \"#utility.yul\":16337:16339   */\n      0x20\n        /* \"#utility.yul\":16329:16335   */\n      dup3\n        /* \"#utility.yul\":16325:16340   */\n      add\n        /* \"#utility.yul\":16318:16354   */\n      mstore\n        /* \"#utility.yul\":16133:16361   */\n      pop\n      jump\t// out\n        /* \"#utility.yul\":16367:16733   */\n    tag_266:\n        /* \"#utility.yul\":16509:16512   */\n      0x00\n        /* \"#utility.yul\":16530:16597   */\n      tag_472\n        /* \"#utility.yul\":16594:16596   */\n      0x29\n        /* \"#utility.yul\":16589:16592   */\n      dup4\n        /* \"#utility.yul\":16530:16597   */\n      tag_230\n      jump\t// in\n    tag_472:\n        /* \"#utility.yul\":16523:16597   */\n      swap2\n      pop\n        /* \"#utility.yul\":16606:16699   */\n      tag_473\n        /* \"#utility.yul\":16695:16698   */\n      dup3\n        /* \"#utility.yul\":16606:16699   */\n      tag_265\n      jump\t// in\n    tag_473:\n        /* \"#utility.yul\":16724:16726   */\n      0x40\n        /* \"#utility.yul\":16719:16722   */\n      dup3\n        /* \"#utility.yul\":16715:16727   */\n      add\n        /* \"#utility.yul\":16708:16727   */\n      swap1\n      pop\n        /* \"#utility.yul\":16367:16733   */\n      swap2\n      swap1\n      pop\n      jump\t// out\n        /* \"#utility.yul\":16739:17158   */\n    tag_145:\n        /* \"#utility.yul\":16905:16909   */\n      0x00\n        /* \"#utility.yul\":16943:16945   */\n      0x20\n        /* \"#utility.yul\":16932:16941   */\n      dup3\n        /* \"#utility.yul\":16928:16946   */\n      add\n        /* \"#utility.yul\":16920:16946   */\n      swap1\n      pop\n        /* \"#utility.yul\":16992:17001   */\n      dup2\n        /* \"#utility.yul\":16986:16990   */\n      dup2\n        /* \"#utility.yul\":16982:17002   */\n      sub\n        /* \"#utility.yul\":16978:16979   */\n      0x00\n        /* \"#utility.yul\":16967:16976   */\n      dup4\n        /* \"#utility.yul\":16963:16980   */\n      add\n        /* \"#utility.yul\":16956:17003   */\n      mstore\n        /* \"#utility.yul\":17020:17151   */\n      tag_475\n        /* \"#utility.yul\":17146:17150   */\n      dup2\n        /* \"#utility.yul\":17020:17151   */\n      tag_266\n      jump\t// in\n    tag_475:\n        /* \"#utility.yul\":17012:17151   */\n      swap1\n      pop\n        /* \"#utility.yul\":16739:17158   */\n      swap2\n      swap1\n      pop\n      jump\t// out\n        /* \"#utility.yul\":17164:17393   */\n    tag_267:\n        /* \"#utility.yul\":17304:17338   */\n      0x4552433732313a2062616c616e636520717565727920666f7220746865207a65\n        /* \"#utility.yul\":17300:17301   */\n      0x00\n        /* \"#utility.yul\":17292:17298   */\n      dup3\n        /* \"#utility.yul\":17288:17302   */\n      add\n        /* \"#utility.yul\":17281:17339   */\n      mstore\n        /* \"#utility.yul\":17373:17385   */\n      0x726f206164647265737300000000000000000000000000000000000000000000\n        /* \"#utility.yul\":17368:17370   */\n      0x20\n        /* \"#utility.yul\":17360:17366   */\n      dup3\n        /* \"#utility.yul\":17356:17371   */\n      add\n        /* \"#utility.yul\":17349:17386   */\n      mstore\n        /* \"#utility.yul\":17164:17393   */\n      pop\n      jump\t// out\n        /* \"#utility.yul\":17399:17765   */\n    tag_268:\n        /* \"#utility.yul\":17541:17544   */\n      0x00\n        /* \"#utility.yul\":17562:17629   */\n      tag_478\n        /* \"#utility.yul\":17626:17628   */\n      0x2a\n        /* \"#utility.yul\":17621:17624   */\n      dup4\n        /* \"#utility.yul\":17562:17629   */\n      tag_230\n      jump\t// in\n    tag_478:\n        /* \"#utility.yul\":17555:17629   */\n      swap2\n      pop\n        /* \"#utility.yul\":17638:17731   */\n      tag_479\n        /* \"#utility.yul\":17727:17730   */\n      dup3\n        /* \"#utility.yul\":17638:17731   */\n      tag_267\n      jump\t// in\n    tag_479:\n        /* \"#utility.yul\":17756:17758   */\n      0x40\n        /* \"#utility.yul\":17751:17754   */\n      dup3\n        /* \"#utility.yul\":17747:17759   */\n      add\n        /* \"#utility.yul\":17740:17759   */\n      swap1\n      pop\n        /* \"#utility.yul\":17399:17765   */\n      swap2\n      swap1\n      pop\n      jump\t// out\n        /* \"#utility.yul\":17771:18190   */\n    tag_149:\n        /* \"#utility.yul\":17937:17941   */\n      0x00\n        /* \"#utility.yul\":17975:17977   */\n      0x20\n        /* \"#utility.yul\":17964:17973   */\n      dup3\n        /* \"#utility.yul\":17960:17978   */\n      add\n        /* \"#utility.yul\":17952:17978   */\n      swap1\n      pop\n        /* \"#utility.yul\":18024:18033   */\n      dup2\n        /* \"#utility.yul\":18018:18022   */\n      dup2\n        /* \"#utility.yul\":18014:18034   */\n      sub\n        /* \"#utility.yul\":18010:18011   */\n      0x00\n        /* \"#utility.yul\":17999:18008   */\n      dup4\n        /* \"#utility.yul\":17995:18012   */\n      add\n        /* \"#utility.yul\":17988:18035   */\n      mstore\n        /* \"#utility.yul\":18052:18183   */\n      tag_481\n        /* \"#utility.yul\":18178:18182   */\n      dup2\n        /* \"#utility.yul\":18052:18183   */\n      tag_268\n      jump\t// in\n    tag_481:\n        /* \"#utility.yul\":18044:18183   */\n      swap1\n      pop\n        /* \"#utility.yul\":17771:18190   */\n      swap2\n      swap1\n      pop\n      jump\t// out\n        /* \"#utility.yul\":18196:18371   */\n    tag_269:\n        /* \"#utility.yul\":18336:18363   */\n      0x4552433732313a20617070726f766520746f2063616c6c657200000000000000\n        /* \"#utility.yul\":18332:18333   */\n      0x00\n        /* \"#utility.yul\":18324:18330   */\n      dup3\n        /* \"#utility.yul\":18320:18334   */\n      add\n        /* \"#utility.yul\":18313:18364   */\n      mstore\n        /* \"#utility.yul\":18196:18371   */\n      pop\n      jump\t// out\n        /* \"#utility.yul\":18377:18743   */\n    tag_270:\n        /* \"#utility.yul\":18519:18522   */\n      0x00\n        /* \"#utility.yul\":18540:18607   */\n      tag_484\n        /* \"#utility.yul\":18604:18606   */\n      0x19\n        /* \"#utility.yul\":18599:18602   */\n      dup4\n        /* \"#utility.yul\":18540:18607   */\n      tag_230\n      jump\t// in\n    tag_484:\n        /* \"#utility.yul\":18533:18607   */\n      swap2\n      pop\n        /* \"#utility.yul\":18616:18709   */\n      tag_485\n        /* \"#utility.yul\":18705:18708   */\n      dup3\n        /* \"#utility.yul\":18616:18709   */\n      tag_269\n      jump\t// in\n    tag_485:\n        /* \"#utility.yul\":18734:18736   */\n      0x20\n        /* \"#utility.yul\":18729:18732   */\n      dup3\n        /* \"#utility.yul\":18725:18737   */\n      add\n        /* \"#utility.yul\":18718:18737   */\n      swap1\n      pop\n        /* \"#utility.yul\":18377:18743   */\n      swap2\n      swap1\n      pop\n      jump\t// out\n        /* \"#utility.yul\":18749:19168   */\n    tag_158:\n        /* \"#utility.yul\":18915:18919   */\n      0x00\n        /* \"#utility.yul\":18953:18955   */\n      0x20\n        /* \"#utility.yul\":18942:18951   */\n      dup3\n        /* \"#utility.yul\":18938:18956   */\n      add\n        /* \"#utility.yul\":18930:18956   */\n      swap1\n      pop\n        /* \"#utility.yul\":19002:19011   */\n      dup2\n        /* \"#utility.yul\":18996:19000   */\n      dup2\n        /* \"#utility.yul\":18992:19012   */\n      sub\n        /* \"#utility.yul\":18988:18989   */\n      0x00\n        /* \"#utility.yul\":18977:18986   */\n      dup4\n        /* \"#utility.yul\":18973:18990   */\n      add\n        /* \"#utility.yul\":18966:19013   */\n      mstore\n        /* \"#utility.yul\":19030:19161   */\n      tag_487\n        /* \"#utility.yul\":19156:19160   */\n      dup2\n        /* \"#utility.yul\":19030:19161   */\n      tag_270\n      jump\t// in\n    tag_487:\n        /* \"#utility.yul\":19022:19161   */\n      swap1\n      pop\n        /* \"#utility.yul\":18749:19168   */\n      swap2\n      swap1\n      pop\n      jump\t// out\n        /* \"#utility.yul\":19174:19411   */\n    tag_271:\n        /* \"#utility.yul\":19314:19348   */\n      0x4552433732313a207472616e7366657220746f206e6f6e204552433732315265\n        /* \"#utility.yul\":19310:19311   */\n      0x00\n        /* \"#utility.yul\":19302:19308   */\n      dup3\n        /* \"#utility.yul\":19298:19312   */\n      add\n        /* \"#utility.yul\":19291:19349   */\n      mstore\n        /* \"#utility.yul\":19383:19403   */\n      0x63656976657220696d706c656d656e7465720000000000000000000000000000\n        /* \"#utility.yul\":19378:19380   */\n      0x20\n        /* \"#utility.yul\":19370:19376   */\n      dup3\n        /* \"#utility.yul\":19366:19381   */\n      add\n        /* \"#utility.yul\":19359:19404   */\n      mstore\n        /* \"#utility.yul\":19174:19411   */\n      pop\n      jump\t// out\n        /* \"#utility.yul\":19417:19783   */\n    tag_272:\n        /* \"#utility.yul\":19559:19562   */\n      0x00\n        /* \"#utility.yul\":19580:19647   */\n      tag_490\n        /* \"#utility.yul\":19644:19646   */\n      0x32\n        /* \"#utility.yul\":19639:19642   */\n      dup4\n        /* \"#utility.yul\":19580:19647   */\n      tag_230\n      jump\t// in\n    tag_490:\n        /* \"#utility.yul\":19573:19647   */\n      swap2\n      pop\n        /* \"#utility.yul\":19656:19749   */\n      tag_491\n        /* \"#utility.yul\":19745:19748   */\n      dup3\n        /* \"#utility.yul\":19656:19749   */\n      tag_271\n      jump\t// in\n    tag_491:\n        /* \"#utility.yul\":19774:19776   */\n      0x40\n        /* \"#utility.yul\":19769:19772   */\n      dup3\n        /* \"#utility.yul\":19765:19777   */\n      add\n        /* \"#utility.yul\":19758:19777   */\n      swap1\n      pop\n        /* \"#utility.yul\":19417:19783   */\n      swap2\n      swap1\n      pop\n      jump\t// out\n        /* \"#utility.yul\":19789:20208   */\n    tag_172:\n        /* \"#utility.yul\":19955:19959   */\n      0x00\n        /* \"#utility.yul\":19993:19995   */\n      0x20\n        /* \"#utility.yul\":19982:19991   */\n      dup3\n        /* \"#utility.yul\":19978:19996   */\n      add\n        /* \"#utility.yul\":19970:19996   */\n      swap1\n      pop\n        /* \"#utility.yul\":20042:20051   */\n      dup2\n        /* \"#utility.yul\":20036:20040   */\n      dup2\n        /* \"#utility.yul\":20032:20052   */\n      sub\n        /* \"#utility.yul\":20028:20029   */\n      0x00\n        /* \"#utility.yul\":20017:20026   */\n      dup4\n        /* \"#utility.yul\":20013:20030   */\n      add\n        /* \"#utility.yul\":20006:20053   */\n      mstore\n        /* \"#utility.yul\":20070:20201   */\n      tag_493\n        /* \"#utility.yul\":20196:20200   */\n      dup2\n        /* \"#utility.yul\":20070:20201   */\n      tag_272\n      jump\t// in\n    tag_493:\n        /* \"#utility.yul\":20062:20201   */\n      swap1\n      pop\n        /* \"#utility.yul\":19789:20208   */\n      swap2\n      swap1\n      pop\n      jump\t// out\n        /* \"#utility.yul\":20214:20448   */\n    tag_273:\n        /* \"#utility.yul\":20354:20388   */\n      0x4552433732314d657461646174613a2055524920717565727920666f72206e6f\n        /* \"#utility.yul\":20350:20351   */\n      0x00\n        /* \"#utility.yul\":20342:20348   */\n      dup3\n        /* \"#utility.yul\":20338:20352   */\n      add\n        /* \"#utility.yul\":20331:20389   */\n      mstore\n        /* \"#utility.yul\":20423:20440   */\n      0x6e6578697374656e7420746f6b656e0000000000000000000000000000000000\n        /* \"#utility.yul\":20418:20420   */\n      0x20\n        /* \"#utility.yul\":20410:20416   */\n      dup3\n        /* \"#utility.yul\":20406:20421   */\n      add\n        /* \"#utility.yul\":20399:20441   */\n      mstore\n        /* \"#utility.yul\":20214:20448   */\n      pop\n      jump\t// out\n        /* \"#utility.yul\":20454:20820   */\n    tag_274:\n        /* \"#utility.yul\":20596:20599   */\n      0x00\n        /* \"#utility.yul\":20617:20684   */\n      tag_496\n        /* \"#utility.yul\":20681:20683   */\n      0x2f\n        /* \"#utility.yul\":20676:20679   */\n      dup4\n        /* \"#utility.yul\":20617:20684   */\n      tag_230\n      jump\t// in\n    tag_496:\n        /* \"#utility.yul\":20610:20684   */\n      swap2\n      pop\n        /* \"#utility.yul\":20693:20786   */\n      tag_497\n        /* \"#utility.yul\":20782:20785   */\n      dup3\n        /* \"#utility.yul\":20693:20786   */\n      tag_273\n      jump\t// in\n    tag_497:\n        /* \"#utility.yul\":20811:20813   */\n      0x40\n        /* \"#utility.yul\":20806:20809   */\n      dup3\n        /* \"#utility.yul\":20802:20814   */\n      add\n        /* \"#utility.yul\":20795:20814   */\n      swap1\n      pop\n        /* \"#utility.yul\":20454:20820   */\n      swap2\n      swap1\n      pop\n      jump\t// out\n        /* \"#utility.yul\":20826:21245   */\n    tag_176:\n        /* \"#utility.yul\":20992:20996   */\n      0x00\n        /* \"#utility.yul\":21030:21032   */\n      0x20\n        /* \"#utility.yul\":21019:21028   */\n      dup3\n        /* \"#utility.yul\":21015:21033   */\n      add\n        /* \"#utility.yul\":21007:21033   */\n      swap1\n      pop\n        /* \"#utility.yul\":21079:21088   */\n      dup2\n        /* \"#utility.yul\":21073:21077   */\n      dup2\n        /* \"#utility.yul\":21069:21089   */\n      sub\n        /* \"#utility.yul\":21065:21066   */\n      0x00\n        /* \"#utility.yul\":21054:21063   */\n      dup4\n        /* \"#utility.yul\":21050:21067   */\n      add\n        /* \"#utility.yul\":21043:21090   */\n      mstore\n        /* \"#utility.yul\":21107:21238   */\n      tag_499\n        /* \"#utility.yul\":21233:21237   */\n      dup2\n        /* \"#utility.yul\":21107:21238   */\n      tag_274\n      jump\t// in\n    tag_499:\n        /* \"#utility.yul\":21099:21238   */\n      swap1\n      pop\n        /* \"#utility.yul\":20826:21245   */\n      swap2\n      swap1\n      pop\n      jump\t// out\n        /* \"#utility.yul\":21251:21477   */\n    tag_275:\n        /* \"#utility.yul\":21391:21425   */\n      0x4f6e6c792074686520636f6e7472616374206f776e65722063616e206d696e74\n        /* \"#utility.yul\":21387:21388   */\n      0x00\n        /* \"#utility.yul\":21379:21385   */\n      dup3\n        /* \"#utility.yul\":21375:21389   */\n      add\n        /* \"#utility.yul\":21368:21426   */\n      mstore\n        /* \"#utility.yul\":21460:21469   */\n      0x20746f6b656e7300000000000000000000000000000000000000000000000000\n        /* \"#utility.yul\":21455:21457   */\n      0x20\n        /* \"#utility.yul\":21447:21453   */\n      dup3\n        /* \"#utility.yul\":21443:21458   */\n      add\n        /* \"#utility.yul\":21436:21470   */\n      mstore\n        /* \"#utility.yul\":21251:21477   */\n      pop\n      jump\t// out\n        /* \"#utility.yul\":21483:21849   */\n    tag_276:\n        /* \"#utility.yul\":21625:21628   */\n      0x00\n        /* \"#utility.yul\":21646:21713   */\n      tag_502\n        /* \"#utility.yul\":21710:21712   */\n      0x27\n        /* \"#utility.yul\":21705:21708   */\n      dup4\n        /* \"#utility.yul\":21646:21713   */\n      tag_230\n      jump\t// in\n    tag_502:\n        /* \"#utility.yul\":21639:21713   */\n      swap2\n      pop\n        /* \"#utility.yul\":21722:21815   */\n      tag_503\n        /* \"#utility.yul\":21811:21814   */\n      dup3\n        /* \"#utility.yul\":21722:21815   */\n      tag_275\n      jump\t// in\n    tag_503:\n        /* \"#utility.yul\":21840:21842   */\n      0x40\n        /* \"#utility.yul\":21835:21838   */\n      dup3\n        /* \"#utility.yul\":21831:21843   */\n      add\n        /* \"#utility.yul\":21824:21843   */\n      swap1\n      pop\n        /* \"#utility.yul\":21483:21849   */\n      swap2\n      swap1\n      pop\n      jump\t// out\n        /* \"#utility.yul\":21855:22274   */\n    tag_185:\n        /* \"#utility.yul\":22021:22025   */\n      0x00\n        /* \"#utility.yul\":22059:22061   */\n      0x20\n        /* \"#utility.yul\":22048:22057   */\n      dup3\n        /* \"#utility.yul\":22044:22062   */\n      add\n        /* \"#utility.yul\":22036:22062   */\n      swap1\n      pop\n        /* \"#utility.yul\":22108:22117   */\n      dup2\n        /* \"#utility.yul\":22102:22106   */\n      dup2\n        /* \"#utility.yul\":22098:22118   */\n      sub\n        /* \"#utility.yul\":22094:22095   */\n      0x00\n        /* \"#utility.yul\":22083:22092   */\n      dup4\n        /* \"#utility.yul\":22079:22096   */\n      add\n        /* \"#utility.yul\":22072:22119   */\n      mstore\n        /* \"#utility.yul\":22136:22267   */\n      tag_505\n        /* \"#utility.yul\":22262:22266   */\n      dup2\n        /* \"#utility.yul\":22136:22267   */\n      tag_276\n      jump\t// in\n    tag_505:\n        /* \"#utility.yul\":22128:22267   */\n      swap1\n      pop\n        /* \"#utility.yul\":21855:22274   */\n      swap2\n      swap1\n      pop\n      jump\t// out\n        /* \"#utility.yul\":22280:22471   */\n    tag_187:\n        /* \"#utility.yul\":22320:22323   */\n      0x00\n        /* \"#utility.yul\":22339:22359   */\n      tag_507\n        /* \"#utility.yul\":22357:22358   */\n      dup3\n        /* \"#utility.yul\":22339:22359   */\n      tag_234\n      jump\t// in\n    tag_507:\n        /* \"#utility.yul\":22334:22359   */\n      swap2\n      pop\n        /* \"#utility.yul\":22373:22393   */\n      tag_508\n        /* \"#utility.yul\":22391:22392   */\n      dup4\n        /* \"#utility.yul\":22373:22393   */\n      tag_234\n      jump\t// in\n    tag_508:\n        /* \"#utility.yul\":22368:22393   */\n      swap3\n      pop\n        /* \"#utility.yul\":22416:22417   */\n      dup3\n        /* \"#utility.yul\":22413:22414   */\n      dup3\n        /* \"#utility.yul\":22409:22418   */\n      add\n        /* \"#utility.yul\":22402:22418   */\n      swap1\n      pop\n        /* \"#utility.yul\":22437:22440   */\n      dup1\n        /* \"#utility.yul\":22434:22435   */\n      dup3\n        /* \"#utility.yul\":22431:22441   */\n      gt\n        /* \"#utility.yul\":22428:22464   */\n      iszero\n      tag_509\n      jumpi\n        /* \"#utility.yul\":22444:22462   */\n      tag_510\n      tag_262\n      jump\t// in\n    tag_510:\n        /* \"#utility.yul\":22428:22464   */\n    tag_509:\n        /* \"#utility.yul\":22280:22471   */\n      swap3\n      swap2\n      pop\n      pop\n      jump\t// out\n        /* \"#utility.yul\":22477:22618   */\n    tag_277:\n        /* \"#utility.yul\":22526:22530   */\n      0x00\n        /* \"#utility.yul\":22549:22552   */\n      dup2\n        /* \"#utility.yul\":22541:22552   */\n      swap1\n      pop\n        /* \"#utility.yul\":22572:22575   */\n      dup2\n        /* \"#utility.yul\":22569:22570   */\n      0x00\n        /* \"#utility.yul\":22562:22576   */\n      mstore\n        /* \"#utility.yul\":22606:22610   */\n      0x20\n        /* \"#utility.yul\":22603:22604   */\n      0x00\n        /* \"#utility.yul\":22593:22611   */\n      keccak256\n        /* \"#utility.yul\":22585:22611   */\n      swap1\n      pop\n        /* \"#utility.yul\":22477:22618   */\n      swap2\n      swap1\n      pop\n      jump\t// out\n        /* \"#utility.yul\":22624:22717   */\n    tag_278:\n        /* \"#utility.yul\":22661:22667   */\n      0x00\n        /* \"#utility.yul\":22708:22710   */\n      0x20\n        /* \"#utility.yul\":22703:22705   */\n      0x1f\n        /* \"#utility.yul\":22696:22701   */\n      dup4\n        /* \"#utility.yul\":22692:22706   */\n      add\n        /* \"#utility.yul\":22688:22711   */\n      div\n        /* \"#utility.yul\":22678:22711   */\n      swap1\n      pop\n        /* \"#utility.yul\":22624:22717   */\n      swap2\n      swap1\n      pop\n      jump\t// out\n        /* \"#utility.yul\":22723:22830   */\n    tag_279:\n        /* \"#utility.yul\":22767:22775   */\n      0x00\n        /* \"#utility.yul\":22817:22822   */\n      dup3\n        /* \"#utility.yul\":22811:22815   */\n      dup3\n        /* \"#utility.yul\":22807:22823   */\n      shl\n        /* \"#utility.yul\":22786:22823   */\n      swap1\n      pop\n        /* \"#utility.yul\":22723:22830   */\n      swap3\n      swap2\n      pop\n      pop\n      jump\t// out\n        /* \"#utility.yul\":22836:23229   */\n    tag_280:\n        /* \"#utility.yul\":22905:22911   */\n      0x00\n        /* \"#utility.yul\":22955:22956   */\n      0x08\n        /* \"#utility.yul\":22943:22953   */\n      dup4\n        /* \"#utility.yul\":22939:22957   */\n      mul\n        /* \"#utility.yul\":22978:23075   */\n      tag_515\n        /* \"#utility.yul\":23008:23074   */\n      0xffffffffffffffffffffffffffffffffffffffffffffffffffffffffffffffff\n        /* \"#utility.yul\":22997:23006   */\n      dup3\n        /* \"#utility.yul\":22978:23075   */\n      tag_279\n      jump\t// in\n    tag_515:\n        /* \"#utility.yul\":23096:23135   */\n      tag_516\n        /* \"#utility.yul\":23126:23134   */\n      dup7\n        /* \"#utility.yul\":23115:23124   */\n      dup4\n        /* \"#utility.yul\":23096:23135   */\n      tag_279\n      jump\t// in\n    tag_516:\n        /* \"#utility.yul\":23084:23135   */\n      swap6\n      pop\n        /* \"#utility.yul\":23168:23172   */\n      dup1\n        /* \"#utility.yul\":23164:23173   */\n      not\n        /* \"#utility.yul\":23157:23162   */\n      dup5\n        /* \"#utility.yul\":23153:23174   */\n      and\n        /* \"#utility.yul\":23144:23174   */\n      swap4\n      pop\n        /* \"#utility.yul\":23217:23221   */\n      dup1\n        /* \"#utility.yul\":23207:23215   */\n      dup7\n        /* \"#utility.yul\":23203:23222   */\n      and\n        /* \"#utility.yul\":23196:23201   */\n      dup5\n        /* \"#utility.yul\":23193:23223   */\n      or\n        /* \"#utility.yul\":23183:23223   */\n      swap3\n      pop\n        /* \"#utility.yul\":22912:23229   */\n      pop\n      pop\n        /* \"#utility.yul\":22836:23229   */\n      swap4\n      swap3\n      pop\n      pop\n      pop\n      jump\t// out\n        /* \"#utility.yul\":23235:23295   */\n    tag_281:\n        /* \"#utility.yul\":23263:23266   */\n      0x00\n        /* \"#utility.yul\":23284:23289   */\n      dup2\n        /* \"#utility.yul\":23277:23289   */\n      swap1\n      pop\n        /* \"#utility.yul\":23235:23295   */\n      swap2\n      swap1\n      pop\n      jump\t// out\n        /* \"#utility.yul\":23301:23443   */\n    tag_282:\n        /* \"#utility.yul\":23351:23360   */\n      0x00\n        /* \"#utility.yul\":23384:23437   */\n      tag_519\n        /* \"#utility.yul\":23402:23436   */\n      tag_520\n        /* \"#utility.yul\":23411:23435   */\n      tag_521\n        /* \"#utility.yul\":23429:23434   */\n      dup5\n        /* \"#utility.yul\":23411:23435   */\n      tag_234\n      jump\t// in\n    tag_521:\n        /* \"#utility.yul\":23402:23436   */\n      tag_281\n      jump\t// in\n    tag_520:\n        /* \"#utility.yul\":23384:23437   */\n      tag_234\n      jump\t// in\n    tag_519:\n        /* \"#utility.yul\":23371:23437   */\n      swap1\n      pop\n        /* \"#utility.yul\":23301:23443   */\n      swap2\n      swap1\n      pop\n      jump\t// out\n        /* \"#utility.yul\":23449:23524   */\n    tag_283:\n        /* \"#utility.yul\":23492:23495   */\n      0x00\n        /* \"#utility.yul\":23513:23518   */\n      dup2\n        /* \"#utility.yul\":23506:23518   */\n      swap1\n      pop\n        /* \"#utility.yul\":23449:23524   */\n      swap2\n      swap1\n      pop\n      jump\t// out\n        /* \"#utility.yul\":23530:23799   */\n    tag_284:\n        /* \"#utility.yul\":23640:23679   */\n      tag_524\n        /* \"#utility.yul\":23671:23678   */\n      dup4\n        /* \"#utility.yul\":23640:23679   */\n      tag_282\n      jump\t// in\n    tag_524:\n        /* \"#utility.yul\":23701:23792   */\n      tag_525\n        /* \"#utility.yul\":23750:23791   */\n      tag_526\n        /* \"#utility.yul\":23774:23790   */\n      dup3\n        /* \"#utility.yul\":23750:23791   */\n      tag_283\n      jump\t// in\n    tag_526:\n        /* \"#utility.yul\":23742:23748   */\n      dup5\n        /* \"#utility.yul\":23735:23739   */\n      dup5\n        /* \"#utility.yul\":23729:23740   */\n      sload\n        /* \"#utility.yul\":23701:23792   */\n      tag_280\n      jump\t// in\n    tag_525:\n        /* \"#utility.yul\":23695:23699   */\n      dup3\n        /* \"#utility.yul\":23688:23793   */\n      sstore\n        /* \"#utility.yul\":23606:23799   */\n      pop\n        /* \"#utility.yul\":23530:23799   */\n      pop\n      pop\n      pop\n      jump\t// out\n        /* \"#utility.yul\":23805:23878   */\n    tag_285:\n        /* \"#utility.yul\":23850:23853   */\n      0x00\n        /* \"#utility.yul\":23871:23872   */\n      0x00\n        /* \"#utility.yul\":23864:23872   */\n      swap1\n      pop\n        /* \"#utility.yul\":23805:23878   */\n      swap1\n      jump\t// out\n        /* \"#utility.yul\":23884:24073   */\n    tag_286:\n        /* \"#utility.yul\":23961:23993   */\n      tag_529\n      tag_285\n      jump\t// in\n    tag_529:\n        /* \"#utility.yul\":24002:24067   */\n      tag_530\n        /* \"#utility.yul\":24060:24066   */\n      dup2\n        /* \"#utility.yul\":24052:24058   */\n      dup5\n        /* \"#utility.yul\":24046:24050   */\n      dup5\n        /* \"#utility.yul\":24002:24067   */\n      tag_284\n      jump\t// in\n    tag_530:\n        /* \"#utility.yul\":23937:24073   */\n      pop\n        /* \"#utility.yul\":23884:24073   */\n      pop\n      pop\n      jump\t// out\n        /* \"#utility.yul\":24079:24265   */\n    tag_287:\n        /* \"#utility.yul\":24139:24259   */\n    tag_532:\n        /* \"#utility.yul\":24156:24159   */\n      dup2\n        /* \"#utility.yul\":24149:24154   */\n      dup2\n        /* \"#utility.yul\":24146:24160   */\n      lt\n        /* \"#utility.yul\":24139:24259   */\n      iszero\n      tag_534\n      jumpi\n        /* \"#utility.yul\":24210:24249   */\n      tag_535\n        /* \"#utility.yul\":24247:24248   */\n      0x00\n        /* \"#utility.yul\":24240:24245   */\n      dup3\n        /* \"#utility.yul\":24210:24249   */\n      tag_286\n      jump\t// in\n    tag_535:\n        /* \"#utility.yul\":24183:24184   */\n      0x01\n        /* \"#utility.yul\":24176:24181   */\n      dup2\n        /* \"#utility.yul\":24172:24185   */\n      add\n        /* \"#utility.yul\":24163:24185   */\n      swap1\n      pop\n        /* \"#utility.yul\":24139:24259   */\n      jump(tag_532)\n    tag_534:\n        /* \"#utility.yul\":24079:24265   */\n      pop\n      pop\n      jump\t// out\n        /* \"#utility.yul\":24271:24814   */\n    tag_288:\n        /* \"#utility.yul\":24372:24374   */\n      0x1f\n        /* \"#utility.yul\":24367:24370   */\n      dup3\n        /* \"#utility.yul\":24364:24375   */\n      gt\n        /* \"#utility.yul\":24361:24807   */\n      iszero\n      tag_537\n      jumpi\n        /* \"#utility.yul\":24406:24444   */\n      tag_538\n        /* \"#utility.yul\":24438:24443   */\n      dup2\n        /* \"#utility.yul\":24406:24444   */\n      tag_277\n      jump\t// in\n    tag_538:\n        /* \"#utility.yul\":24490:24519   */\n      tag_539\n        /* \"#utility.yul\":24508:24518   */\n      dup5\n        /* \"#utility.yul\":24490:24519   */\n      tag_278\n      jump\t// in\n    tag_539:\n        /* \"#utility.yul\":24480:24488   */\n      dup2\n        /* \"#utility.yul\":24476:24520   */\n      add\n        /* \"#utility.yul\":24673:24675   */\n      0x20\n        /* \"#utility.yul\":24661:24671   */\n      dup6\n        /* \"#utility.yul\":24658:24676   */\n      lt\n        /* \"#utility.yul\":24655:24704   */\n      iszero\n      tag_540\n      jumpi\n        /* \"#utility.yul\":24694:24702   */\n      dup2\n        /* \"#utility.yul\":24679:24702   */\n      swap1\n      pop\n        /* \"#utility.yul\":24655:24704   */\n    tag_540:\n        /* \"#utility.yul\":24717:24797   */\n      tag_541\n        /* \"#utility.yul\":24773:24795   */\n      tag_542\n        /* \"#utility.yul\":24791:24794   */\n      dup6\n        /* \"#utility.yul\":24773:24795   */\n      tag_278\n      jump\t// in\n    tag_542:\n        /* \"#utility.yul\":24763:24771   */\n      dup4\n        /* \"#utility.yul\":24759:24796   */\n      add\n        /* \"#utility.yul\":24746:24757   */\n      dup3\n        /* \"#utility.yul\":24717:24797   */\n      tag_287\n      jump\t// in\n    tag_541:\n        /* \"#utility.yul\":24376:24807   */\n      pop\n      pop\n        /* \"#utility.yul\":24361:24807   */\n    tag_537:\n        /* \"#utility.yul\":24271:24814   */\n      pop\n      pop\n      pop\n      jump\t// out\n        /* \"#utility.yul\":24820:24937   */\n    tag_289:\n        /* \"#utility.yul\":24874:24882   */\n      0x00\n        /* \"#utility.yul\":24924:24929   */\n      dup3\n        /* \"#utility.yul\":24918:24922   */\n      dup3\n        /* \"#utility.yul\":24914:24930   */\n      shr\n        /* \"#utility.yul\":24893:24930   */\n      swap1\n      pop\n        /* \"#utility.yul\":24820:24937   */\n      swap3\n      swap2\n      pop\n      pop\n      jump\t// out\n        /* \"#utility.yul\":24943:25112   */\n    tag_290:\n        /* \"#utility.yul\":24987:24993   */\n      0x00\n        /* \"#utility.yul\":25020:25071   */\n      tag_545\n        /* \"#utility.yul\":25068:25069   */\n      0x00\n        /* \"#utility.yul\":25064:25070   */\n      not\n        /* \"#utility.yul\":25056:25061   */\n      dup5\n        /* \"#utility.yul\":25053:25054   */\n      0x08\n        /* \"#utility.yul\":25049:25062   */\n      mul\n        /* \"#utility.yul\":25020:25071   */\n      tag_289\n      jump\t// in\n    tag_545:\n        /* \"#utility.yul\":25016:25072   */\n      not\n        /* \"#utility.yul\":25101:25105   */\n      dup1\n        /* \"#utility.yul\":25095:25099   */\n      dup4\n        /* \"#utility.yul\":25091:25106   */\n      and\n        /* \"#utility.yul\":25081:25106   */\n      swap2\n      pop\n        /* \"#utility.yul\":24994:25112   */\n      pop\n        /* \"#utility.yul\":24943:25112   */\n      swap3\n      swap2\n      pop\n      pop\n      jump\t// out\n        /* \"#utility.yul\":25117:25412   */\n    tag_291:\n        /* \"#utility.yul\":25193:25197   */\n      0x00\n        /* \"#utility.yul\":25339:25368   */\n      tag_547\n        /* \"#utility.yul\":25364:25367   */\n      dup4\n        /* \"#utility.yul\":25358:25362   */\n      dup4\n        /* \"#utility.yul\":25339:25368   */\n      tag_290\n      jump\t// in\n    tag_547:\n        /* \"#utility.yul\":25331:25368   */\n      swap2\n      pop\n        /* \"#utility.yul\":25401:25404   */\n      dup3\n        /* \"#utility.yul\":25398:25399   */\n      0x02\n        /* \"#utility.yul\":25394:25405   */\n      mul\n        /* \"#utility.yul\":25388:25392   */\n      dup3\n        /* \"#utility.yul\":25385:25406   */\n      or\n        /* \"#utility.yul\":25377:25406   */\n      swap1\n      pop\n        /* \"#utility.yul\":25117:25412   */\n      swap3\n      swap2\n      pop\n      pop\n      jump\t// out\n        /* \"#utility.yul\":25417:26812   */\n    tag_189:\n        /* \"#utility.yul\":25534:25571   */\n      tag_549\n        /* \"#utility.yul\":25567:25570   */\n      dup3\n        /* \"#utility.yul\":25534:25571   */\n      tag_229\n      jump\t// in\n    tag_549:\n        /* \"#utility.yul\":25636:25654   */\n      0xffffffffffffffff\n        /* \"#utility.yul\":25628:25634   */\n      dup2\n        /* \"#utility.yul\":25625:25655   */\n      gt\n        /* \"#utility.yul\":25622:25678   */\n      iszero\n      tag_550\n      jumpi\n        /* \"#utility.yul\":25658:25676   */\n      tag_551\n      tag_247\n      jump\t// in\n    tag_551:\n        /* \"#utility.yul\":25622:25678   */\n    tag_550:\n        /* \"#utility.yul\":25702:25740   */\n      tag_552\n        /* \"#utility.yul\":25734:25738   */\n      dup3\n        /* \"#utility.yul\":25728:25739   */\n      sload\n        /* \"#utility.yul\":25702:25740   */\n      tag_112\n      jump\t// in\n    tag_552:\n        /* \"#utility.yul\":25787:25854   */\n      tag_553\n        /* \"#utility.yul\":25847:25853   */\n      dup3\n        /* \"#utility.yul\":25839:25845   */\n      dup3\n        /* \"#utility.yul\":25833:25837   */\n      dup6\n        /* \"#utility.yul\":25787:25854   */\n      tag_288\n      jump\t// in\n    tag_553:\n        /* \"#utility.yul\":25881:25882   */\n      0x00\n        /* \"#utility.yul\":25905:25909   */\n      0x20\n        /* \"#utility.yul\":25892:25909   */\n      swap1\n      pop\n        /* \"#utility.yul\":25937:25939   */\n      0x1f\n        /* \"#utility.yul\":25929:25935   */\n      dup4\n        /* \"#utility.yul\":25926:25940   */\n      gt\n        /* \"#utility.yul\":25954:25955   */\n      0x01\n        /* \"#utility.yul\":25949:26567   */\n      dup2\n      eq\n      tag_555\n      jumpi\n        /* \"#utility.yul\":26611:26612   */\n      0x00\n        /* \"#utility.yul\":26628:26634   */\n      dup5\n        /* \"#utility.yul\":26625:26702   */\n      iszero\n      tag_556\n      jumpi\n        /* \"#utility.yul\":26677:26686   */\n      dup3\n        /* \"#utility.yul\":26672:26675   */\n      dup8\n        /* \"#utility.yul\":26668:26687   */\n      add\n        /* \"#utility.yul\":26662:26688   */\n      mload\n        /* \"#utility.yul\":26653:26688   */\n      swap1\n      pop\n        /* \"#utility.yul\":26625:26702   */\n    tag_556:\n        /* \"#utility.yul\":26728:26795   */\n      tag_557\n        /* \"#utility.yul\":26788:26794   */\n      dup6\n        /* \"#utility.yul\":26781:26786   */\n      dup3\n        /* \"#utility.yul\":26728:26795   */\n      tag_291\n      jump\t// in\n    tag_557:\n        /* \"#utility.yul\":26722:26726   */\n      dup7\n        /* \"#utility.yul\":26715:26796   */\n      sstore\n        /* \"#utility.yul\":26584:26806   */\n      pop\n        /* \"#utility.yul\":25919:26806   */\n      jump(tag_554)\n        /* \"#utility.yul\":25949:26567   */\n    tag_555:\n        /* \"#utility.yul\":26001:26005   */\n      0x1f\n        /* \"#utility.yul\":25997:26006   */\n      not\n        /* \"#utility.yul\":25989:25995   */\n      dup5\n        /* \"#utility.yul\":25985:26007   */\n      and\n        /* \"#utility.yul\":26035:26072   */\n      tag_558\n        /* \"#utility.yul\":26067:26071   */\n      dup7\n        /* \"#utility.yul\":26035:26072   */\n      tag_277\n      jump\t// in\n    tag_558:\n        /* \"#utility.yul\":26094:26095   */\n      0x00\n        /* \"#utility.yul\":26108:26316   */\n    tag_559:\n        /* \"#utility.yul\":26122:26129   */\n      dup3\n        /* \"#utility.yul\":26119:26120   */\n      dup2\n        /* \"#utility.yul\":26116:26130   */\n      lt\n        /* \"#utility.yul\":26108:26316   */\n      iszero\n      tag_561\n      jumpi\n        /* \"#utility.yul\":26201:26210   */\n      dup5\n        /* \"#utility.yul\":26196:26199   */\n      dup10\n        /* \"#utility.yul\":26192:26211   */\n      add\n        /* \"#utility.yul\":26186:26212   */\n      mload\n        /* \"#utility.yul\":26178:26184   */\n      dup3\n        /* \"#utility.yul\":26171:26213   */\n      sstore\n        /* \"#utility.yul\":26252:26253   */\n      0x01\n        /* \"#utility.yul\":26244:26250   */\n      dup3\n        /* \"#utility.yul\":26240:26254   */\n      add\n        /* \"#utility.yul\":26230:26254   */\n      swap2\n      pop\n        /* \"#utility.yul\":26299:26301   */\n      0x20\n        /* \"#utility.yul\":26288:26297   */\n      dup6\n        /* \"#utility.yul\":26284:26302   */\n      add\n        /* \"#utility.yul\":26271:26302   */\n      swap5\n      pop\n        /* \"#utility.yul\":26145:26149   */\n      0x20\n        /* \"#utility.yul\":26142:26143   */\n      dup2\n        /* \"#utility.yul\":26138:26150   */\n      add\n        /* \"#utility.yul\":26133:26150   */\n      swap1\n      pop\n        /* \"#utility.yul\":26108:26316   */\n      jump(tag_559)\n    tag_561:\n        /* \"#utility.yul\":26344:26350   */\n      dup7\n        /* \"#utility.yul\":26335:26342   */\n      dup4\n        /* \"#utility.yul\":26332:26351   */\n      lt\n        /* \"#utility.yul\":26329:26508   */\n      iszero\n      tag_562\n      jumpi\n        /* \"#utility.yul\":26402:26411   */\n      dup5\n        /* \"#utility.yul\":26397:26400   */\n      dup10\n        /* \"#utility.yul\":26393:26412   */\n      add\n        /* \"#utility.yul\":26387:26413   */\n      mload\n        /* \"#utility.yul\":26445:26493   */\n      tag_563\n        /* \"#utility.yul\":26487:26491   */\n      0x1f\n        /* \"#utility.yul\":26479:26485   */\n      dup10\n        /* \"#utility.yul\":26475:26492   */\n      and\n        /* \"#utility.yul\":26464:26473   */\n      dup3\n        /* \"#utility.yul\":26445:26493   */\n      tag_290\n      jump\t// in\n    tag_563:\n        /* \"#utility.yul\":26437:26443   */\n      dup4\n        /* \"#utility.yul\":26430:26494   */\n      sstore\n        /* \"#utility.yul\":26352:26508   */\n      pop\n        /* \"#utility.yul\":26329:26508   */\n    tag_562:\n        /* \"#utility.yul\":26554:26555   */\n      0x01\n        /* \"#utility.yul\":26550:26551   */\n      0x02\n        /* \"#utility.yul\":26542:26548   */\n      dup9\n        /* \"#utility.yul\":26538:26552   */\n      mul\n        /* \"#utility.yul\":26534:26556   */\n      add\n        /* \"#utility.yul\":26528:26532   */\n      dup9\n        /* \"#utility.yul\":26521:26557   */\n      sstore\n        /* \"#utility.yul\":25956:26567   */\n      pop\n      pop\n      pop\n        /* \"#utility.yul\":25919:26806   */\n    tag_554:\n      pop\n        /* \"#utility.yul\":25509:26812   */\n      pop\n      pop\n      pop\n        /* \"#utility.yul\":25417:26812   */\n      pop\n      pop\n      jump\t// out\n        /* \"#utility.yul\":26818:27051   */\n    tag_191:\n        /* \"#utility.yul\":26857:26860   */\n      0x00\n        /* \"#utility.yul\":26880:26904   */\n      tag_565\n        /* \"#utility.yul\":26898:26903   */\n      dup3\n        /* \"#utility.yul\":26880:26904   */\n      tag_234\n      jump\t// in\n    tag_565:\n        /* \"#utility.yul\":26871:26904   */\n      swap2\n      pop\n        /* \"#utility.yul\":26926:26992   */\n      0xffffffffffffffffffffffffffffffffffffffffffffffffffffffffffffffff\n        /* \"#utility.yul\":26919:26924   */\n      dup3\n        /* \"#utility.yul\":26916:26993   */\n      sub\n        /* \"#utility.yul\":26913:27016   */\n      tag_566\n      jumpi\n        /* \"#utility.yul\":26996:27014   */\n      tag_567\n      tag_262\n      jump\t// in\n    tag_567:\n        /* \"#utility.yul\":26913:27016   */\n    tag_566:\n        /* \"#utility.yul\":27043:27044   */\n      0x01\n        /* \"#utility.yul\":27036:27041   */\n      dup3\n        /* \"#utility.yul\":27032:27045   */\n      add\n        /* \"#utility.yul\":27025:27045   */\n      swap1\n      pop\n        /* \"#utility.yul\":26818:27051   */\n      swap2\n      swap1\n      pop\n      jump\t// out\n        /* \"#utility.yul\":27057:27285   */\n    tag_292:\n        /* \"#utility.yul\":27197:27231   */\n      0x4552433732313a207472616e73666572206f6620746f6b656e20746861742069\n        /* \"#utility.yul\":27193:27194   */\n      0x00\n        /* \"#utility.yul\":27185:27191   */\n      dup3\n        /* \"#utility.yul\":27181:27195   */\n      add\n        /* \"#utility.yul\":27174:27232   */\n      mstore\n        /* \"#utility.yul\":27266:27277   */\n      0x73206e6f74206f776e0000000000000000000000000000000000000000000000\n        /* \"#utility.yul\":27261:27263   */\n      0x20\n        /* \"#utility.yul\":27253:27259   */\n      dup3\n        /* \"#utility.yul\":27249:27264   */\n      add\n        /* \"#utility.yul\":27242:27278   */\n      mstore\n        /* \"#utility.yul\":27057:27285   */\n      pop\n      jump\t// out\n        /* \"#utility.yul\":27291:27657   */\n    tag_293:\n        /* \"#utility.yul\":27433:27436   */\n      0x00\n        /* \"#utility.yul\":27454:27521   */\n      tag_570\n        /* \"#utility.yul\":27518:27520   */\n      0x29\n        /* \"#utility.yul\":27513:27516   */\n      dup4\n        /* \"#utility.yul\":27454:27521   */\n      tag_230\n      jump\t// in\n    tag_570:\n        /* \"#utility.yul\":27447:27521   */\n      swap2\n      pop\n        /* \"#utility.yul\":27530:27623   */\n      tag_571\n        /* \"#utility.yul\":27619:27622   */\n      dup3\n        /* \"#utility.yul\":27530:27623   */\n      tag_292\n      jump\t// in\n    tag_571:\n        /* \"#utility.yul\":27648:27650   */\n      0x40\n        /* \"#utility.yul\":27643:27646   */\n      dup3\n        /* \"#utility.yul\":27639:27651   */\n      add\n        /* \"#utility.yul\":27632:27651   */\n      swap1\n      pop\n        /* \"#utility.yul\":27291:27657   */\n      swap2\n      swap1\n      pop\n      jump\t// out\n        /* \"#utility.yul\":27663:28082   */\n    tag_197:\n        /* \"#utility.yul\":27829:27833   */\n      0x00\n        /* \"#utility.yul\":27867:27869   */\n      0x20\n        /* \"#utility.yul\":27856:27865   */\n      dup3\n        /* \"#utility.yul\":27852:27870   */\n      add\n        /* \"#utility.yul\":27844:27870   */\n      swap1\n      pop\n        /* \"#utility.yul\":27916:27925   */\n      dup2\n        /* \"#utility.yul\":27910:27914   */\n      dup2\n        /* \"#utility.yul\":27906:27926   */\n      sub\n        /* \"#utility.yul\":27902:27903   */\n      0x00\n        /* \"#utility.yul\":27891:27900   */\n      dup4\n        /* \"#utility.yul\":27887:27904   */\n      add\n        /* \"#utility.yul\":27880:27927   */\n      mstore\n        /* \"#utility.yul\":27944:28075   */\n      tag_573\n        /* \"#utility.yul\":28070:28074   */\n      dup2\n        /* \"#utility.yul\":27944:28075   */\n      tag_293\n      jump\t// in\n    tag_573:\n        /* \"#utility.yul\":27936:28075   */\n      swap1\n      pop\n        /* \"#utility.yul\":27663:28082   */\n      swap2\n      swap1\n      pop\n      jump\t// out\n        /* \"#utility.yul\":28088:28311   */\n    tag_294:\n        /* \"#utility.yul\":28228:28262   */\n      0x4552433732313a207472616e7366657220746f20746865207a65726f20616464\n        /* \"#utility.yul\":28224:28225   */\n      0x00\n        /* \"#utility.yul\":28216:28222   */\n      dup3\n        /* \"#utility.yul\":28212:28226   */\n      add\n        /* \"#utility.yul\":28205:28263   */\n      mstore\n        /* \"#utility.yul\":28297:28303   */\n      0x7265737300000000000000000000000000000000000000000000000000000000\n        /* \"#utility.yul\":28292:28294   */\n      0x20\n        /* \"#utility.yul\":28284:28290   */\n      dup3\n        /* \"#utility.yul\":28280:28295   */\n      add\n        /* \"#utility.yul\":28273:28304   */\n      mstore\n        /* \"#utility.yul\":28088:28311   */\n      pop\n      jump\t// out\n        /* \"#utility.yul\":28317:28683   */\n    tag_295:\n        /* \"#utility.yul\":28459:28462   */\n      0x00\n        /* \"#utility.yul\":28480:28547   */\n      tag_576\n        /* \"#utility.yul\":28544:28546   */\n      0x24\n        /* \"#utility.yul\":28539:28542   */\n      dup4\n        /* \"#utility.yul\":28480:28547   */\n      tag_230\n      jump\t// in\n    tag_576:\n        /* \"#utility.yul\":28473:28547   */\n      swap2\n      pop\n        /* \"#utility.yul\":28556:28649   */\n      tag_577\n        /* \"#utility.yul\":28645:28648   */\n      dup3\n        /* \"#utility.yul\":28556:28649   */\n      tag_294\n      jump\t// in\n    tag_577:\n        /* \"#utility.yul\":28674:28676   */\n      0x40\n        /* \"#utility.yul\":28669:28672   */\n      dup3\n        /* \"#utility.yul\":28665:28677   */\n      add\n        /* \"#utility.yul\":28658:28677   */\n      swap1\n      pop\n        /* \"#utility.yul\":28317:28683   */\n      swap2\n      swap1\n      pop\n      jump\t// out\n        /* \"#utility.yul\":28689:29108   */\n    tag_200:\n        /* \"#utility.yul\":28855:28859   */\n      0x00\n        /* \"#utility.yul\":28893:28895   */\n      0x20\n        /* \"#utility.yul\":28882:28891   */\n      dup3\n        /* \"#utility.yul\":28878:28896   */\n      add\n        /* \"#utility.yul\":28870:28896   */\n      swap1\n      pop\n        /* \"#utility.yul\":28942:28951   */\n      dup2\n        /* \"#utility.yul\":28936:28940   */\n      dup2\n        /* \"#utility.yul\":28932:28952   */\n      sub\n        /* \"#utility.yul\":28928:28929   */\n      0x00\n        /* \"#utility.yul\":28917:28926   */\n      dup4\n        /* \"#utility.yul\":28913:28930   */\n      add\n        /* \"#utility.yul\":28906:28953   */\n      mstore\n        /* \"#utility.yul\":28970:29101   */\n      tag_579\n        /* \"#utility.yul\":29096:29100   */\n      dup2\n        /* \"#utility.yul\":28970:29101   */\n      tag_295\n      jump\t// in\n    tag_579:\n        /* \"#utility.yul\":28962:29101   */\n      swap1\n      pop\n        /* \"#utility.yul\":28689:29108   */\n      swap2\n      swap1\n      pop\n      jump\t// out\n        /* \"#utility.yul\":29114:29212   */\n    tag_296:\n        /* \"#utility.yul\":29165:29171   */\n      0x00\n        /* \"#utility.yul\":29199:29204   */\n      dup2\n        /* \"#utility.yul\":29193:29205   */\n      mload\n        /* \"#utility.yul\":29183:29205   */\n      swap1\n      pop\n        /* \"#utility.yul\":29114:29212   */\n      swap2\n      swap1\n      pop\n      jump\t// out\n        /* \"#utility.yul\":29218:29386   */\n    tag_297:\n        /* \"#utility.yul\":29301:29312   */\n      0x00\n        /* \"#utility.yul\":29335:29341   */\n      dup3\n        /* \"#utility.yul\":29330:29333   */\n      dup3\n        /* \"#utility.yul\":29323:29342   */\n      mstore\n        /* \"#utility.yul\":29375:29379   */\n      0x20\n        /* \"#utility.yul\":29370:29373   */\n      dup3\n        /* \"#utility.yul\":29366:29380   */\n      add\n        /* \"#utility.yul\":29351:29380   */\n      swap1\n      pop\n        /* \"#utility.yul\":29218:29386   */\n      swap3\n      swap2\n      pop\n      pop\n      jump\t// out\n        /* \"#utility.yul\":29392:29765   */\n    tag_298:\n        /* \"#utility.yul\":29478:29481   */\n      0x00\n        /* \"#utility.yul\":29506:29544   */\n      tag_583\n        /* \"#utility.yul\":29538:29543   */\n      dup3\n        /* \"#utility.yul\":29506:29544   */\n      tag_296\n      jump\t// in\n    tag_583:\n        /* \"#utility.yul\":29560:29630   */\n      tag_584\n        /* \"#utility.yul\":29623:29629   */\n      dup2\n        /* \"#utility.yul\":29618:29621   */\n      dup6\n        /* \"#utility.yul\":29560:29630   */\n      tag_297\n      jump\t// in\n    tag_584:\n        /* \"#utility.yul\":29553:29630   */\n      swap4\n      pop\n        /* \"#utility.yul\":29639:29704   */\n      tag_585\n        /* \"#utility.yul\":29697:29703   */\n      dup2\n        /* \"#utility.yul\":29692:29695   */\n      dup6\n        /* \"#utility.yul\":29685:29689   */\n      0x20\n        /* \"#utility.yul\":29678:29683   */\n      dup7\n        /* \"#utility.yul\":29674:29690   */\n      add\n        /* \"#utility.yul\":29639:29704   */\n      tag_231\n      jump\t// in\n    tag_585:\n        /* \"#utility.yul\":29729:29758   */\n      tag_586\n        /* \"#utility.yul\":29751:29757   */\n      dup2\n        /* \"#utility.yul\":29729:29758   */\n      tag_232\n      jump\t// in\n    tag_586:\n        /* \"#utility.yul\":29724:29727   */\n      dup5\n        /* \"#utility.yul\":29720:29759   */\n      add\n        /* \"#utility.yul\":29713:29759   */\n      swap2\n      pop\n        /* \"#utility.yul\":29482:29765   */\n      pop\n        /* \"#utility.yul\":29392:29765   */\n      swap3\n      swap2\n      pop\n      pop\n      jump\t// out\n        /* \"#utility.yul\":29771:30411   */\n    tag_206:\n        /* \"#utility.yul\":29966:29970   */\n      0x00\n        /* \"#utility.yul\":30004:30007   */\n      0x80\n        /* \"#utility.yul\":29993:30002   */\n      dup3\n        /* \"#utility.yul\":29989:30008   */\n      add\n        /* \"#utility.yul\":29981:30008   */\n      swap1\n      pop\n        /* \"#utility.yul\":30018:30089   */\n      tag_588\n        /* \"#utility.yul\":30086:30087   */\n      0x00\n        /* \"#utility.yul\":30075:30084   */\n      dup4\n        /* \"#utility.yul\":30071:30088   */\n      add\n        /* \"#utility.yul\":30062:30068   */\n      dup8\n        /* \"#utility.yul\":30018:30089   */\n      tag_239\n      jump\t// in\n    tag_588:\n        /* \"#utility.yul\":30099:30171   */\n      tag_589\n        /* \"#utility.yul\":30167:30169   */\n      0x20\n        /* \"#utility.yul\":30156:30165   */\n      dup4\n        /* \"#utility.yul\":30152:30170   */\n      add\n        /* \"#utility.yul\":30143:30149   */\n      dup7\n        /* \"#utility.yul\":30099:30171   */\n      tag_239\n      jump\t// in\n    tag_589:\n        /* \"#utility.yul\":30181:30253   */\n      tag_590\n        /* \"#utility.yul\":30249:30251   */\n      0x40\n        /* \"#utility.yul\":30238:30247   */\n      dup4\n        /* \"#utility.yul\":30234:30252   */\n      add\n        /* \"#utility.yul\":30225:30231   */\n      dup6\n        /* \"#utility.yul\":30181:30253   */\n      tag_242\n      jump\t// in\n    tag_590:\n        /* \"#utility.yul\":30300:30309   */\n      dup2\n        /* \"#utility.yul\":30294:30298   */\n      dup2\n        /* \"#utility.yul\":30290:30310   */\n      sub\n        /* \"#utility.yul\":30285:30287   */\n      0x60\n        /* \"#utility.yul\":30274:30283   */\n      dup4\n        /* \"#utility.yul\":30270:30288   */\n      add\n        /* \"#utility.yul\":30263:30311   */\n      mstore\n        /* \"#utility.yul\":30328:30404   */\n      tag_591\n        /* \"#utility.yul\":30399:30403   */\n      dup2\n        /* \"#utility.yul\":30390:30396   */\n      dup5\n        /* \"#utility.yul\":30328:30404   */\n      tag_298\n      jump\t// in\n    tag_591:\n        /* \"#utility.yul\":30320:30404   */\n      swap1\n      pop\n        /* \"#utility.yul\":29771:30411   */\n      swap6\n      swap5\n      pop\n      pop\n      pop\n      pop\n      pop\n      jump\t// out\n        /* \"#utility.yul\":30417:30558   */\n    tag_299:\n        /* \"#utility.yul\":30473:30478   */\n      0x00\n        /* \"#utility.yul\":30504:30510   */\n      dup2\n        /* \"#utility.yul\":30498:30511   */\n      mload\n        /* \"#utility.yul\":30489:30511   */\n      swap1\n      pop\n        /* \"#utility.yul\":30520:30552   */\n      tag_593\n        /* \"#utility.yul\":30546:30551   */\n      dup2\n        /* \"#utility.yul\":30520:30552   */\n      tag_225\n      jump\t// in\n    tag_593:\n        /* \"#utility.yul\":30417:30558   */\n      swap3\n      swap2\n      pop\n      pop\n      jump\t// out\n        /* \"#utility.yul\":30564:30913   */\n    tag_209:\n        /* \"#utility.yul\":30633:30639   */\n      0x00\n        /* \"#utility.yul\":30682:30684   */\n      0x20\n        /* \"#utility.yul\":30670:30679   */\n      dup3\n        /* \"#utility.yul\":30661:30668   */\n      dup5\n        /* \"#utility.yul\":30657:30680   */\n      sub\n        /* \"#utility.yul\":30653:30685   */\n      slt\n        /* \"#utility.yul\":30650:30769   */\n      iszero\n      tag_595\n      jumpi\n        /* \"#utility.yul\":30688:30767   */\n      tag_596\n      tag_222\n      jump\t// in\n    tag_596:\n        /* \"#utility.yul\":30650:30769   */\n    tag_595:\n        /* \"#utility.yul\":30808:30809   */\n      0x00\n        /* \"#utility.yul\":30833:30896   */\n      tag_597\n        /* \"#utility.yul\":30888:30895   */\n      dup5\n        /* \"#utility.yul\":30879:30885   */\n      dup3\n        /* \"#utility.yul\":30868:30877   */\n      dup6\n        /* \"#utility.yul\":30864:30886   */\n      add\n        /* \"#utility.yul\":30833:30896   */\n      tag_299\n      jump\t// in\n    tag_597:\n        /* \"#utility.yul\":30823:30896   */\n      swap2\n      pop\n        /* \"#utility.yul\":30779:30906   */\n      pop\n        /* \"#utility.yul\":30564:30913   */\n      swap3\n      swap2\n      pop\n      pop\n      jump\t// out\n\n    auxdata: 0xa264697066735822122065c10ffe636720e048e365e9ad184baa89c73b4b1730369a37d75bf01ed6753c64736f6c634300081e0033\n}\n",
				"bytecode": {
					"linkReferences": {},
					"object": "608060405234801561000f575f5ffd5b50604051612c12380380612c12833981810160405281019061003191906101ec565b815f908161003f9190610472565b50806001908161004f9190610472565b5060016002819055503360035f6101000a81548173ffffffffffffffffffffffffffffffffffffffff021916908373ffffffffffffffffffffffffffffffffffffffff1602179055505050610541565b5f604051905090565b5f5ffd5b5f5ffd5b5f5ffd5b5f5ffd5b5f601f19601f8301169050919050565b7f4e487b71000000000000000000000000000000000000000000000000000000005f52604160045260245ffd5b6100fe826100b8565b810181811067ffffffffffffffff8211171561011d5761011c6100c8565b5b80604052505050565b5f61012f61009f565b905061013b82826100f5565b919050565b5f67ffffffffffffffff82111561015a576101596100c8565b5b610163826100b8565b9050602081019050919050565b8281835e5f83830152505050565b5f61019061018b84610140565b610126565b9050828152602081018484840111156101ac576101ab6100b4565b5b6101b7848285610170565b509392505050565b5f82601f8301126101d3576101d26100b0565b5b81516101e384826020860161017e565b91505092915050565b5f5f60408385031215610202576102016100a8565b5b5f83015167ffffffffffffffff81111561021f5761021e6100ac565b5b61022b858286016101bf565b925050602083015167ffffffffffffffff81111561024c5761024b6100ac565b5b610258858286016101bf565b9150509250929050565b5f81519050919050565b7f4e487b71000000000000000000000000000000000000000000000000000000005f52602260045260245ffd5b5f60028204905060018216806102b057607f821691505b6020821081036102c3576102c261026c565b5b50919050565b5f819050815f5260205f209050919050565b5f6020601f8301049050919050565b5f82821b905092915050565b5f600883026103257fffffffffffffffffffffffffffffffffffffffffffffffffffffffffffffffff826102ea565b61032f86836102ea565b95508019841693508086168417925050509392505050565b5f819050919050565b5f819050919050565b5f61037361036e61036984610347565b610350565b610347565b9050919050565b5f819050919050565b61038c83610359565b6103a06103988261037a565b8484546102f6565b825550505050565b5f5f905090565b6103b76103a8565b6103c2818484610383565b505050565b5b818110156103e5576103da5f826103af565b6001810190506103c8565b5050565b601f82111561042a576103fb816102c9565b610404846102db565b81016020851015610413578190505b61042761041f856102db565b8301826103c7565b50505b505050565b5f82821c905092915050565b5f61044a5f198460080261042f565b1980831691505092915050565b5f610462838361043b565b9150826002028217905092915050565b61047b82610262565b67ffffffffffffffff811115610494576104936100c8565b5b61049e8254610299565b6104a98282856103e9565b5f60209050601f8311600181146104da575f84156104c8578287015190505b6104d28582610457565b865550610539565b601f1984166104e8866102c9565b5f5b8281101561050f578489015182556001820191506020850194506020810190506104ea565b8683101561052c5784890151610528601f89168261043b565b8355505b6001600288020188555050505b505050505050565b6126c48061054e5f395ff3fe6080604052600436106100fd575f3560e01c80636352211e11610094578063a22cb46511610063578063a22cb4651461032f578063b88d4fde14610357578063c87b56dd1461037f578063d0def521146103bb578063e985e9c5146103e3576100fd565b80636352211e1461026357806370a082311461029f5780638da5cb5b146102db57806395d89b4114610305576100fd565b806318160ddd116100d057806318160ddd146101cb57806323b872dd146101f55780633b1475a71461021157806342842e0e1461023b576100fd565b806301ffc9a71461010157806306fdde031461013d578063081812fc14610167578063095ea7b3146101a3575b5f5ffd5b34801561010c575f5ffd5b5061012760048036038101906101229190611620565b61041f565b6040516101349190611665565b60405180910390f35b348015610148575f5ffd5b506101516104b0565b60405161015e91906116ee565b60405180910390f35b348015610172575f5ffd5b5061018d60048036038101906101889190611741565b61053b565b60405161019a91906117ab565b60405180910390f35b3480156101ae575f5ffd5b506101c960048036038101906101c491906117ee565b610612565b005b3480156101d6575f5ffd5b506101df61073e565b6040516101ec919061183b565b60405180910390f35b61020f600480360381019061020a9190611854565b610753565b005b34801561021c575f5ffd5b506102256108d3565b604051610232919061183b565b60405180910390f35b348015610246575f5ffd5b50610261600480360381019061025c9190611854565b6108d9565b005b34801561026e575f5ffd5b5061028960048036038101906102849190611741565b6108f8565b60405161029691906117ab565b60405180910390f35b3480156102aa575f5ffd5b506102c560048036038101906102c091906118a4565b6109a4565b6040516102d2919061183b565b60405180910390f35b3480156102e6575f5ffd5b506102ef610a58565b6040516102fc91906117ab565b60405180910390f35b348015610310575f5ffd5b50610319610a7d565b60405161032691906116ee565b60405180910390f35b34801561033a575f5ffd5b50610355600480360381019061035091906118f9565b610b09565b005b348015610362575f5ffd5b5061037d60048036038101906103789190611a63565b610c6f565b005b34801561038a575f5ffd5b506103a560048036038101906103a09190611741565b610e3b565b6040516103b291906116ee565b60405180910390f35b3480156103c6575f5ffd5b506103e160048036038101906103dc9190611b81565b610f7a565b005b3480156103ee575f5ffd5b5061040960048036038101906104049190611bdb565b611148565b6040516104169190611665565b60405180910390f35b5f6380ac58cd60e01b827bffffffffffffffffffffffffffffffffffffffffffffffffffffffff191614806104795750635b5e139f60e01b827bffffffffffffffffffffffffffffffffffffffffffffffffffffffff1916145b806104a957506301ffc9a760e01b827bffffffffffffffffffffffffffffffffffffffffffffffffffffffff1916145b9050919050565b5f80546104bc90611c46565b80601f01602080910402602001604051908101604052809291908181526020018280546104e890611c46565b80156105335780601f1061050a57610100808354040283529160200191610533565b820191905f5260205f20905b81548152906001019060200180831161051657829003601f168201915b505050505081565b5f5f73ffffffffffffffffffffffffffffffffffffffff1660045f8481526020019081526020015f205f9054906101000a900473ffffffffffffffffffffffffffffffffffffffff1673ffffffffffffffffffffffffffffffffffffffff16036105da576040517f08c379a00000000000000000000000000000000000000000000000000000000081526004016105d190611ce6565b60405180910390fd5b60065f8381526020019081526020015f205f9054906101000a900473ffffffffffffffffffffffffffffffffffffffff169050919050565b3373ffffffffffffffffffffffffffffffffffffffff16610632826108f8565b73ffffffffffffffffffffffffffffffffffffffff1614610688576040517f08c379a000000000000000000000000000000000000000000000000000000000815260040161067f90611d74565b60405180910390fd5b8160065f8381526020019081526020015f205f6101000a81548173ffffffffffffffffffffffffffffffffffffffff021916908373ffffffffffffffffffffffffffffffffffffffff160217905550808273ffffffffffffffffffffffffffffffffffffffff166106f8836108f8565b73ffffffffffffffffffffffffffffffffffffffff167f8c5be1e5ebec7d5bd14f71427d1e84f3dd0314c0f7b2291e5b200ac8c7c3b92560405160405180910390a45050565b5f600160025461074e9190611dbf565b905090565b3373ffffffffffffffffffffffffffffffffffffffff16610773826108f8565b73ffffffffffffffffffffffffffffffffffffffff1614806107f057503373ffffffffffffffffffffffffffffffffffffffff1660065f8381526020019081526020015f205f9054906101000a900473ffffffffffffffffffffffffffffffffffffffff1673ffffffffffffffffffffffffffffffffffffffff16145b80610884575060075f610802836108f8565b73ffffffffffffffffffffffffffffffffffffffff1673ffffffffffffffffffffffffffffffffffffffff1681526020019081526020015f205f3373ffffffffffffffffffffffffffffffffffffffff1673ffffffffffffffffffffffffffffffffffffffff1681526020019081526020015f205f9054906101000a900460ff165b6108c3576040517f08c379a00000000000000000000000000000000000000000000000000000000081526004016108ba90611e62565b60405180910390fd5b6108ce8383836111d6565b505050565b60025481565b6108f383838360405180602001604052805f815250610c6f565b505050565b5f5f60045f8481526020019081526020015f205f9054906101000a900473ffffffffffffffffffffffffffffffffffffffff1690505f73ffffffffffffffffffffffffffffffffffffffff168173ffffffffffffffffffffffffffffffffffffffff160361099b576040517f08c379a000000000000000000000000000000000000000000000000000000000815260040161099290611ef0565b60405180910390fd5b80915050919050565b5f5f73ffffffffffffffffffffffffffffffffffffffff168273ffffffffffffffffffffffffffffffffffffffff1603610a13576040517f08c379a0000000000000000000000000000000000000000000000000000000008152600401610a0a90611f7e565b60405180910390fd5b60055f8373ffffffffffffffffffffffffffffffffffffffff1673ffffffffffffffffffffffffffffffffffffffff1681526020019081526020015f20549050919050565b60035f9054906101000a900473ffffffffffffffffffffffffffffffffffffffff1681565b60018054610a8a90611c46565b80601f0160208091040260200160405190810160405280929190818152602001828054610ab690611c46565b8015610b015780601f10610ad857610100808354040283529160200191610b01565b820191905f5260205f20905b815481529060010190602001808311610ae457829003601f168201915b505050505081565b3373ffffffffffffffffffffffffffffffffffffffff168273ffffffffffffffffffffffffffffffffffffffff1603610b77576040517f08c379a0000000000000000000000000000000000000000000000000000000008152600401610b6e90611fe6565b60405180910390fd5b8060075f3373ffffffffffffffffffffffffffffffffffffffff1673ffffffffffffffffffffffffffffffffffffffff1681526020019081526020015f205f8473ffffffffffffffffffffffffffffffffffffffff1673ffffffffffffffffffffffffffffffffffffffff1681526020019081526020015f205f6101000a81548160ff0219169083151502179055508173ffffffffffffffffffffffffffffffffffffffff163373ffffffffffffffffffffffffffffffffffffffff167f17307eab39ab6107e8899845ad3d59bd9653f200f220920489ca2b5937696c3183604051610c639190611665565b60405180910390a35050565b3373ffffffffffffffffffffffffffffffffffffffff16610c8f836108f8565b73ffffffffffffffffffffffffffffffffffffffff161480610d0c57503373ffffffffffffffffffffffffffffffffffffffff1660065f8481526020019081526020015f205f9054906101000a900473ffffffffffffffffffffffffffffffffffffffff1673ffffffffffffffffffffffffffffffffffffffff16145b80610da0575060075f610d1e846108f8565b73ffffffffffffffffffffffffffffffffffffffff1673ffffffffffffffffffffffffffffffffffffffff1681526020019081526020015f205f3373ffffffffffffffffffffffffffffffffffffffff1673ffffffffffffffffffffffffffffffffffffffff1681526020019081526020015f205f9054906101000a900460ff165b610ddf576040517f08c379a0000000000000000000000000000000000000000000000000000000008152600401610dd690611e62565b60405180910390fd5b610dea8484846111d6565b610df684848484611444565b610e35576040517f08c379a0000000000000000000000000000000000000000000000000000000008152600401610e2c90612074565b60405180910390fd5b50505050565b60605f73ffffffffffffffffffffffffffffffffffffffff1660045f8481526020019081526020015f205f9054906101000a900473ffffffffffffffffffffffffffffffffffffffff1673ffffffffffffffffffffffffffffffffffffffff1603610edb576040517f08c379a0000000000000000000000000000000000000000000000000000000008152600401610ed290612102565b60405180910390fd5b60085f8381526020019081526020015f208054610ef790611c46565b80601f0160208091040260200160405190810160405280929190818152602001828054610f2390611c46565b8015610f6e5780601f10610f4557610100808354040283529160200191610f6e565b820191905f5260205f20905b815481529060010190602001808311610f5157829003601f168201915b50505050509050919050565b60035f9054906101000a900473ffffffffffffffffffffffffffffffffffffffff1673ffffffffffffffffffffffffffffffffffffffff163373ffffffffffffffffffffffffffffffffffffffff1614611009576040517f08c379a000000000000000000000000000000000000000000000000000000000815260040161100090612190565b60405180910390fd5b5f60025490508260045f8381526020019081526020015f205f6101000a81548173ffffffffffffffffffffffffffffffffffffffff021916908373ffffffffffffffffffffffffffffffffffffffff160217905550600160055f8573ffffffffffffffffffffffffffffffffffffffff1673ffffffffffffffffffffffffffffffffffffffff1681526020019081526020015f205f8282546110ab91906121ae565b925050819055508160085f8381526020019081526020015f2090816110d09190612381565b50808373ffffffffffffffffffffffffffffffffffffffff165f73ffffffffffffffffffffffffffffffffffffffff167fddf252ad1be2c89b69c2b068fc378daa952ba7f163c4a11628f55a4df523b3ef60405160405180910390a460025f81548092919061113e90612450565b9190505550505050565b5f60075f8473ffffffffffffffffffffffffffffffffffffffff1673ffffffffffffffffffffffffffffffffffffffff1681526020019081526020015f205f8373ffffffffffffffffffffffffffffffffffffffff1673ffffffffffffffffffffffffffffffffffffffff1681526020019081526020015f205f9054906101000a900460ff16905092915050565b8273ffffffffffffffffffffffffffffffffffffffff166111f6826108f8565b73ffffffffffffffffffffffffffffffffffffffff161461124c576040517f08c379a000000000000000000000000000000000000000000000000000000000815260040161124390612507565b60405180910390fd5b5f73ffffffffffffffffffffffffffffffffffffffff168273ffffffffffffffffffffffffffffffffffffffff16036112ba576040517f08c379a00000000000000000000000000000000000000000000000000000000081526004016112b190612595565b60405180910390fd5b60065f8281526020019081526020015f205f6101000a81549073ffffffffffffffffffffffffffffffffffffffff0219169055600160055f8573ffffffffffffffffffffffffffffffffffffffff1673ffffffffffffffffffffffffffffffffffffffff1681526020019081526020015f205f82825461133a9190611dbf565b92505081905550600160055f8473ffffffffffffffffffffffffffffffffffffffff1673ffffffffffffffffffffffffffffffffffffffff1681526020019081526020015f205f82825461138e91906121ae565b925050819055508160045f8381526020019081526020015f205f6101000a81548173ffffffffffffffffffffffffffffffffffffffff021916908373ffffffffffffffffffffffffffffffffffffffff160217905550808273ffffffffffffffffffffffffffffffffffffffff168473ffffffffffffffffffffffffffffffffffffffff167fddf252ad1be2c89b69c2b068fc378daa952ba7f163c4a11628f55a4df523b3ef60405160405180910390a4505050565b5f5f8473ffffffffffffffffffffffffffffffffffffffff163b11156115ad578373ffffffffffffffffffffffffffffffffffffffff1663150b7a02338786866040518563ffffffff1660e01b81526004016114a39493929190612605565b6020604051808303815f875af19250505080156114de57506040513d601f19601f820116820180604052508101906114db9190612663565b60015b61155d573d805f811461150c576040519150601f19603f3d011682016040523d82523d5f602084013e611511565b606091505b505f815103611555576040517f08c379a000000000000000000000000000000000000000000000000000000000815260040161154c90612074565b60405180910390fd5b805181602001fd5b63150b7a0260e01b7bffffffffffffffffffffffffffffffffffffffffffffffffffffffff1916817bffffffffffffffffffffffffffffffffffffffffffffffffffffffff1916149150506115b2565b600190505b949350505050565b5f604051905090565b5f5ffd5b5f5ffd5b5f7fffffffff0000000000000000000000000000000000000000000000000000000082169050919050565b6115ff816115cb565b8114611609575f5ffd5b50565b5f8135905061161a816115f6565b92915050565b5f60208284031215611635576116346115c3565b5b5f6116428482850161160c565b91505092915050565b5f8115159050919050565b61165f8161164b565b82525050565b5f6020820190506116785f830184611656565b92915050565b5f81519050919050565b5f82825260208201905092915050565b8281835e5f83830152505050565b5f601f19601f8301169050919050565b5f6116c08261167e565b6116ca8185611688565b93506116da818560208601611698565b6116e3816116a6565b840191505092915050565b5f6020820190508181035f83015261170681846116b6565b905092915050565b5f819050919050565b6117208161170e565b811461172a575f5ffd5b50565b5f8135905061173b81611717565b92915050565b5f60208284031215611756576117556115c3565b5b5f6117638482850161172d565b91505092915050565b5f73ffffffffffffffffffffffffffffffffffffffff82169050919050565b5f6117958261176c565b9050919050565b6117a58161178b565b82525050565b5f6020820190506117be5f83018461179c565b92915050565b6117cd8161178b565b81146117d7575f5ffd5b50565b5f813590506117e8816117c4565b92915050565b5f5f60408385031215611804576118036115c3565b5b5f611811858286016117da565b92505060206118228582860161172d565b9150509250929050565b6118358161170e565b82525050565b5f60208201905061184e5f83018461182c565b92915050565b5f5f5f6060848603121561186b5761186a6115c3565b5b5f611878868287016117da565b9350506020611889868287016117da565b925050604061189a8682870161172d565b9150509250925092565b5f602082840312156118b9576118b86115c3565b5b5f6118c6848285016117da565b91505092915050565b6118d88161164b565b81146118e2575f5ffd5b50565b5f813590506118f3816118cf565b92915050565b5f5f6040838503121561190f5761190e6115c3565b5b5f61191c858286016117da565b925050602061192d858286016118e5565b9150509250929050565b5f5ffd5b5f5ffd5b7f4e487b71000000000000000000000000000000000000000000000000000000005f52604160045260245ffd5b611975826116a6565b810181811067ffffffffffffffff821117156119945761199361193f565b5b80604052505050565b5f6119a66115ba565b90506119b2828261196c565b919050565b5f67ffffffffffffffff8211156119d1576119d061193f565b5b6119da826116a6565b9050602081019050919050565b828183375f83830152505050565b5f611a07611a02846119b7565b61199d565b905082815260208101848484011115611a2357611a2261193b565b5b611a2e8482856119e7565b509392505050565b5f82601f830112611a4a57611a49611937565b5b8135611a5a8482602086016119f5565b91505092915050565b5f5f5f5f60808587031215611a7b57611a7a6115c3565b5b5f611a88878288016117da565b9450506020611a99878288016117da565b9350506040611aaa8782880161172d565b925050606085013567ffffffffffffffff811115611acb57611aca6115c7565b5b611ad787828801611a36565b91505092959194509250565b5f67ffffffffffffffff821115611afd57611afc61193f565b5b611b06826116a6565b9050602081019050919050565b5f611b25611b2084611ae3565b61199d565b905082815260208101848484011115611b4157611b4061193b565b5b611b4c8482856119e7565b509392505050565b5f82601f830112611b6857611b67611937565b5b8135611b78848260208601611b13565b91505092915050565b5f5f60408385031215611b9757611b966115c3565b5b5f611ba4858286016117da565b925050602083013567ffffffffffffffff811115611bc557611bc46115c7565b5b611bd185828601611b54565b9150509250929050565b5f5f60408385031215611bf157611bf06115c3565b5b5f611bfe858286016117da565b9250506020611c0f858286016117da565b9150509250929050565b7f4e487b71000000000000000000000000000000000000000000000000000000005f52602260045260245ffd5b5f6002820490506001821680611c5d57607f821691505b602082108103611c7057611c6f611c19565b5b50919050565b7f4552433732313a20617070726f76656420717565727920666f72206e6f6e65785f8201527f697374656e7420746f6b656e0000000000000000000000000000000000000000602082015250565b5f611cd0602c83611688565b9150611cdb82611c76565b604082019050919050565b5f6020820190508181035f830152611cfd81611cc4565b9050919050565b7f4552433732313a20617070726f76652063616c6c6572206973206e6f7420746f5f8201527f6b656e206f776e65720000000000000000000000000000000000000000000000602082015250565b5f611d5e602983611688565b9150611d6982611d04565b604082019050919050565b5f6020820190508181035f830152611d8b81611d52565b9050919050565b7f4e487b71000000000000000000000000000000000000000000000000000000005f52601160045260245ffd5b5f611dc98261170e565b9150611dd48361170e565b9250828203905081811115611dec57611deb611d92565b5b92915050565b7f4552433732313a207472616e736665722063616c6c6572206973206e6f74206f5f8201527f776e6572206e6f7220617070726f766564000000000000000000000000000000602082015250565b5f611e4c603183611688565b9150611e5782611df2565b604082019050919050565b5f6020820190508181035f830152611e7981611e40565b9050919050565b7f4552433732313a206f776e657220717565727920666f72206e6f6e65786973745f8201527f656e7420746f6b656e0000000000000000000000000000000000000000000000602082015250565b5f611eda602983611688565b9150611ee582611e80565b604082019050919050565b5f6020820190508181035f830152611f0781611ece565b9050919050565b7f4552433732313a2062616c616e636520717565727920666f7220746865207a655f8201527f726f206164647265737300000000000000000000000000000000000000000000602082015250565b5f611f68602a83611688565b9150611f7382611f0e565b604082019050919050565b5f6020820190508181035f830152611f9581611f5c565b9050919050565b7f4552433732313a20617070726f766520746f2063616c6c6572000000000000005f82015250565b5f611fd0601983611688565b9150611fdb82611f9c565b602082019050919050565b5f6020820190508181035f830152611ffd81611fc4565b9050919050565b7f4552433732313a207472616e7366657220746f206e6f6e2045524337323152655f8201527f63656976657220696d706c656d656e7465720000000000000000000000000000602082015250565b5f61205e603283611688565b915061206982612004565b604082019050919050565b5f6020820190508181035f83015261208b81612052565b9050919050565b7f4552433732314d657461646174613a2055524920717565727920666f72206e6f5f8201527f6e6578697374656e7420746f6b656e0000000000000000000000000000000000602082015250565b5f6120ec602f83611688565b91506120f782612092565b604082019050919050565b5f6020820190508181035f830152612119816120e0565b9050919050565b7f4f6e6c792074686520636f6e7472616374206f776e65722063616e206d696e745f8201527f20746f6b656e7300000000000000000000000000000000000000000000000000602082015250565b5f61217a602783611688565b915061218582612120565b604082019050919050565b5f6020820190508181035f8301526121a78161216e565b9050919050565b5f6121b88261170e565b91506121c38361170e565b92508282019050808211156121db576121da611d92565b5b92915050565b5f819050815f5260205f209050919050565b5f6020601f8301049050919050565b5f82821b905092915050565b5f6008830261223d7fffffffffffffffffffffffffffffffffffffffffffffffffffffffffffffffff82612202565b6122478683612202565b95508019841693508086168417925050509392505050565b5f819050919050565b5f61228261227d6122788461170e565b61225f565b61170e565b9050919050565b5f819050919050565b61229b83612268565b6122af6122a782612289565b84845461220e565b825550505050565b5f5f905090565b6122c66122b7565b6122d1818484612292565b505050565b5b818110156122f4576122e95f826122be565b6001810190506122d7565b5050565b601f8211156123395761230a816121e1565b612313846121f3565b81016020851015612322578190505b61233661232e856121f3565b8301826122d6565b50505b505050565b5f82821c905092915050565b5f6123595f198460080261233e565b1980831691505092915050565b5f612371838361234a565b9150826002028217905092915050565b61238a8261167e565b67ffffffffffffffff8111156123a3576123a261193f565b5b6123ad8254611c46565b6123b88282856122f8565b5f60209050601f8311600181146123e9575f84156123d7578287015190505b6123e18582612366565b865550612448565b601f1984166123f7866121e1565b5f5b8281101561241e578489015182556001820191506020850194506020810190506123f9565b8683101561243b5784890151612437601f89168261234a565b8355505b6001600288020188555050505b505050505050565b5f61245a8261170e565b91507fffffffffffffffffffffffffffffffffffffffffffffffffffffffffffffffff820361248c5761248b611d92565b5b600182019050919050565b7f4552433732313a207472616e73666572206f6620746f6b656e207468617420695f8201527f73206e6f74206f776e0000000000000000000000000000000000000000000000602082015250565b5f6124f1602983611688565b91506124fc82612497565b604082019050919050565b5f6020820190508181035f83015261251e816124e5565b9050919050565b7f4552433732313a207472616e7366657220746f20746865207a65726f206164645f8201527f7265737300000000000000000000000000000000000000000000000000000000602082015250565b5f61257f602483611688565b915061258a82612525565b604082019050919050565b5f6020820190508181035f8301526125ac81612573565b9050919050565b5f81519050919050565b5f82825260208201905092915050565b5f6125d7826125b3565b6125e181856125bd565b93506125f1818560208601611698565b6125fa816116a6565b840191505092915050565b5f6080820190506126185f83018761179c565b612625602083018661179c565b612632604083018561182c565b818103606083015261264481846125cd565b905095945050505050565b5f8151905061265d816115f6565b92915050565b5f60208284031215612678576126776115c3565b5b5f6126858482850161264f565b9150509291505056fea264697066735822122065c10ffe636720e048e365e9ad184baa89c73b4b1730369a37d75bf01ed6753c64736f6c634300081e0033",
					"opcodes": "PUSH1 0x80 PUSH1 0x40 MSTORE CALLVALUE DUP1 ISZERO PUSH2 0xF JUMPI PUSH0 PUSH0 REVERT JUMPDEST POP PUSH1 0x40 MLOAD PUSH2 0x2C12 CODESIZE SUB DUP1 PUSH2 0x2C12 DUP4 CODECOPY DUP2 DUP2 ADD PUSH1 0x40 MSTORE DUP2 ADD SWAP1 PUSH2 0x31 SWAP2 SWAP1 PUSH2 0x1EC JUMP JUMPDEST DUP2 PUSH0 SWAP1 DUP2 PUSH2 0x3F SWAP2 SWAP1 PUSH2 0x472 JUMP JUMPDEST POP DUP1 PUSH1 0x1 SWAP1 DUP2 PUSH2 0x4F SWAP2 SWAP1 PUSH2 0x472 JUMP JUMPDEST POP PUSH1 0x1 PUSH1 0x2 DUP2 SWAP1 SSTORE POP CALLER PUSH1 0x3 PUSH0 PUSH2 0x100 EXP DUP2 SLOAD DUP2 PUSH20 0xFFFFFFFFFFFFFFFFFFFFFFFFFFFFFFFFFFFFFFFF MUL NOT AND SWAP1 DUP4 PUSH20 0xFFFFFFFFFFFFFFFFFFFFFFFFFFFFFFFFFFFFFFFF AND MUL OR SWAP1 SSTORE POP POP POP PUSH2 0x541 JUMP JUMPDEST PUSH0 PUSH1 0x40 MLOAD SWAP1 POP SWAP1 JUMP JUMPDEST PUSH0 PUSH0 REVERT JUMPDEST PUSH0 PUSH0 REVERT JUMPDEST PUSH0 PUSH0 REVERT JUMPDEST PUSH0 PUSH0 REVERT JUMPDEST PUSH0 PUSH1 0x1F NOT PUSH1 0x1F DUP4 ADD AND SWAP1 POP SWAP2 SWAP1 POP JUMP JUMPDEST PUSH32 0x4E487B7100000000000000000000000000000000000000000000000000000000 PUSH0 MSTORE PUSH1 0x41 PUSH1 0x4 MSTORE PUSH1 0x24 PUSH0 REVERT JUMPDEST PUSH2 0xFE DUP3 PUSH2 0xB8 JUMP JUMPDEST DUP2 ADD DUP2 DUP2 LT PUSH8 0xFFFFFFFFFFFFFFFF DUP3 GT OR ISZERO PUSH2 0x11D JUMPI PUSH2 0x11C PUSH2 0xC8 JUMP JUMPDEST JUMPDEST DUP1 PUSH1 0x40 MSTORE POP POP POP JUMP JUMPDEST PUSH0 PUSH2 0x12F PUSH2 0x9F JUMP JUMPDEST SWAP1 POP PUSH2 0x13B DUP3 DUP3 PUSH2 0xF5 JUMP JUMPDEST SWAP2 SWAP1 POP JUMP JUMPDEST PUSH0 PUSH8 0xFFFFFFFFFFFFFFFF DUP3 GT ISZERO PUSH2 0x15A JUMPI PUSH2 0x159 PUSH2 0xC8 JUMP JUMPDEST JUMPDEST PUSH2 0x163 DUP3 PUSH2 0xB8 JUMP JUMPDEST SWAP1 POP PUSH1 0x20 DUP2 ADD SWAP1 POP SWAP2 SWAP1 POP JUMP JUMPDEST DUP3 DUP2 DUP4 MCOPY PUSH0 DUP4 DUP4 ADD MSTORE POP POP POP JUMP JUMPDEST PUSH0 PUSH2 0x190 PUSH2 0x18B DUP5 PUSH2 0x140 JUMP JUMPDEST PUSH2 0x126 JUMP JUMPDEST SWAP1 POP DUP3 DUP2 MSTORE PUSH1 0x20 DUP2 ADD DUP5 DUP5 DUP5 ADD GT ISZERO PUSH2 0x1AC JUMPI PUSH2 0x1AB PUSH2 0xB4 JUMP JUMPDEST JUMPDEST PUSH2 0x1B7 DUP5 DUP3 DUP6 PUSH2 0x170 JUMP JUMPDEST POP SWAP4 SWAP3 POP POP POP JUMP JUMPDEST PUSH0 DUP3 PUSH1 0x1F DUP4 ADD SLT PUSH2 0x1D3 JUMPI PUSH2 0x1D2 PUSH2 0xB0 JUMP JUMPDEST JUMPDEST DUP2 MLOAD PUSH2 0x1E3 DUP5 DUP3 PUSH1 0x20 DUP7 ADD PUSH2 0x17E JUMP JUMPDEST SWAP2 POP POP SWAP3 SWAP2 POP POP JUMP JUMPDEST PUSH0 PUSH0 PUSH1 0x40 DUP4 DUP6 SUB SLT ISZERO PUSH2 0x202 JUMPI PUSH2 0x201 PUSH2 0xA8 JUMP JUMPDEST JUMPDEST PUSH0 DUP4 ADD MLOAD PUSH8 0xFFFFFFFFFFFFFFFF DUP2 GT ISZERO PUSH2 0x21F JUMPI PUSH2 0x21E PUSH2 0xAC JUMP JUMPDEST JUMPDEST PUSH2 0x22B DUP6 DUP3 DUP7 ADD PUSH2 0x1BF JUMP JUMPDEST SWAP3 POP POP PUSH1 0x20 DUP4 ADD MLOAD PUSH8 0xFFFFFFFFFFFFFFFF DUP2 GT ISZERO PUSH2 0x24C JUMPI PUSH2 0x24B PUSH2 0xAC JUMP JUMPDEST JUMPDEST PUSH2 0x258 DUP6 DUP3 DUP7 ADD PUSH2 0x1BF JUMP JUMPDEST SWAP2 POP POP SWAP3 POP SWAP3 SWAP1 POP JUMP JUMPDEST PUSH0 DUP2 MLOAD SWAP1 POP SWAP2 SWAP1 POP JUMP JUMPDEST PUSH32 0x4E487B7100000000000000000000000000000000000000000000000000000000 PUSH0 MSTORE PUSH1 0x22 PUSH1 0x4 MSTORE PUSH1 0x24 PUSH0 REVERT JUMPDEST PUSH0 PUSH1 0x2 DUP3 DIV SWAP1 POP PUSH1 0x1 DUP3 AND DUP1 PUSH2 0x2B0 JUMPI PUSH1 0x7F DUP3 AND SWAP2 POP JUMPDEST PUSH1 0x20 DUP3 LT DUP2 SUB PUSH2 0x2C3 JUMPI PUSH2 0x2C2 PUSH2 0x26C JUMP JUMPDEST JUMPDEST POP SWAP2 SWAP1 POP JUMP JUMPDEST PUSH0 DUP2 SWAP1 POP DUP2 PUSH0 MSTORE PUSH1 0x20 PUSH0 KECCAK256 SWAP1 POP SWAP2 SWAP1 POP JUMP JUMPDEST PUSH0 PUSH1 0x20 PUSH1 0x1F DUP4 ADD DIV SWAP1 POP SWAP2 SWAP1 POP JUMP JUMPDEST PUSH0 DUP3 DUP3 SHL SWAP1 POP SWAP3 SWAP2 POP POP JUMP JUMPDEST PUSH0 PUSH1 0x8 DUP4 MUL PUSH2 0x325 PUSH32 0xFFFFFFFFFFFFFFFFFFFFFFFFFFFFFFFFFFFFFFFFFFFFFFFFFFFFFFFFFFFFFFFF DUP3 PUSH2 0x2EA JUMP JUMPDEST PUSH2 0x32F DUP7 DUP4 PUSH2 0x2EA JUMP JUMPDEST SWAP6 POP DUP1 NOT DUP5 AND SWAP4 POP DUP1 DUP7 AND DUP5 OR SWAP3 POP POP POP SWAP4 SWAP3 POP POP POP JUMP JUMPDEST PUSH0 DUP2 SWAP1 POP SWAP2 SWAP1 POP JUMP JUMPDEST PUSH0 DUP2 SWAP1 POP SWAP2 SWAP1 POP JUMP JUMPDEST PUSH0 PUSH2 0x373 PUSH2 0x36E PUSH2 0x369 DUP5 PUSH2 0x347 JUMP JUMPDEST PUSH2 0x350 JUMP JUMPDEST PUSH2 0x347 JUMP JUMPDEST SWAP1 POP SWAP2 SWAP1 POP JUMP JUMPDEST PUSH0 DUP2 SWAP1 POP SWAP2 SWAP1 POP JUMP JUMPDEST PUSH2 0x38C DUP4 PUSH2 0x359 JUMP JUMPDEST PUSH2 0x3A0 PUSH2 0x398 DUP3 PUSH2 0x37A JUMP JUMPDEST DUP5 DUP5 SLOAD PUSH2 0x2F6 JUMP JUMPDEST DUP3 SSTORE POP POP POP POP JUMP JUMPDEST PUSH0 PUSH0 SWAP1 POP SWAP1 JUMP JUMPDEST PUSH2 0x3B7 PUSH2 0x3A8 JUMP JUMPDEST PUSH2 0x3C2 DUP2 DUP5 DUP5 PUSH2 0x383 JUMP JUMPDEST POP POP POP JUMP JUMPDEST JUMPDEST DUP2 DUP2 LT ISZERO PUSH2 0x3E5 JUMPI PUSH2 0x3DA PUSH0 DUP3 PUSH2 0x3AF JUMP JUMPDEST PUSH1 0x1 DUP2 ADD SWAP1 POP PUSH2 0x3C8 JUMP JUMPDEST POP POP JUMP JUMPDEST PUSH1 0x1F DUP3 GT ISZERO PUSH2 0x42A JUMPI PUSH2 0x3FB DUP2 PUSH2 0x2C9 JUMP JUMPDEST PUSH2 0x404 DUP5 PUSH2 0x2DB JUMP JUMPDEST DUP2 ADD PUSH1 0x20 DUP6 LT ISZERO PUSH2 0x413 JUMPI DUP2 SWAP1 POP JUMPDEST PUSH2 0x427 PUSH2 0x41F DUP6 PUSH2 0x2DB JUMP JUMPDEST DUP4 ADD DUP3 PUSH2 0x3C7 JUMP JUMPDEST POP POP JUMPDEST POP POP POP JUMP JUMPDEST PUSH0 DUP3 DUP3 SHR SWAP1 POP SWAP3 SWAP2 POP POP JUMP JUMPDEST PUSH0 PUSH2 0x44A PUSH0 NOT DUP5 PUSH1 0x8 MUL PUSH2 0x42F JUMP JUMPDEST NOT DUP1 DUP4 AND SWAP2 POP POP SWAP3 SWAP2 POP POP JUMP JUMPDEST PUSH0 PUSH2 0x462 DUP4 DUP4 PUSH2 0x43B JUMP JUMPDEST SWAP2 POP DUP3 PUSH1 0x2 MUL DUP3 OR SWAP1 POP SWAP3 SWAP2 POP POP JUMP JUMPDEST PUSH2 0x47B DUP3 PUSH2 0x262 JUMP JUMPDEST PUSH8 0xFFFFFFFFFFFFFFFF DUP2 GT ISZERO PUSH2 0x494 JUMPI PUSH2 0x493 PUSH2 0xC8 JUMP JUMPDEST JUMPDEST PUSH2 0x49E DUP3 SLOAD PUSH2 0x299 JUMP JUMPDEST PUSH2 0x4A9 DUP3 DUP3 DUP6 PUSH2 0x3E9 JUMP JUMPDEST PUSH0 PUSH1 0x20 SWAP1 POP PUSH1 0x1F DUP4 GT PUSH1 0x1 DUP2 EQ PUSH2 0x4DA JUMPI PUSH0 DUP5 ISZERO PUSH2 0x4C8 JUMPI DUP3 DUP8 ADD MLOAD SWAP1 POP JUMPDEST PUSH2 0x4D2 DUP6 DUP3 PUSH2 0x457 JUMP JUMPDEST DUP7 SSTORE POP PUSH2 0x539 JUMP JUMPDEST PUSH1 0x1F NOT DUP5 AND PUSH2 0x4E8 DUP7 PUSH2 0x2C9 JUMP JUMPDEST PUSH0 JUMPDEST DUP3 DUP2 LT ISZERO PUSH2 0x50F JUMPI DUP5 DUP10 ADD MLOAD DUP3 SSTORE PUSH1 0x1 DUP3 ADD SWAP2 POP PUSH1 0x20 DUP6 ADD SWAP5 POP PUSH1 0x20 DUP2 ADD SWAP1 POP PUSH2 0x4EA JUMP JUMPDEST DUP7 DUP4 LT ISZERO PUSH2 0x52C JUMPI DUP5 DUP10 ADD MLOAD PUSH2 0x528 PUSH1 0x1F DUP10 AND DUP3 PUSH2 0x43B JUMP JUMPDEST DUP4 SSTORE POP JUMPDEST PUSH1 0x1 PUSH1 0x2 DUP9 MUL ADD DUP9 SSTORE POP POP POP JUMPDEST POP POP POP POP POP POP JUMP JUMPDEST PUSH2 0x26C4 DUP1 PUSH2 0x54E PUSH0 CODECOPY PUSH0 RETURN INVALID PUSH1 0x80 PUSH1 0x40 MSTORE PUSH1 0x4 CALLDATASIZE LT PUSH2 0xFD JUMPI PUSH0 CALLDATALOAD PUSH1 0xE0 SHR DUP1 PUSH4 0x6352211E GT PUSH2 0x94 JUMPI DUP1 PUSH4 0xA22CB465 GT PUSH2 0x63 JUMPI DUP1 PUSH4 0xA22CB465 EQ PUSH2 0x32F JUMPI DUP1 PUSH4 0xB88D4FDE EQ PUSH2 0x357 JUMPI DUP1 PUSH4 0xC87B56DD EQ PUSH2 0x37F JUMPI DUP1 PUSH4 0xD0DEF521 EQ PUSH2 0x3BB JUMPI DUP1 PUSH4 0xE985E9C5 EQ PUSH2 0x3E3 JUMPI PUSH2 0xFD JUMP JUMPDEST DUP1 PUSH4 0x6352211E EQ PUSH2 0x263 JUMPI DUP1 PUSH4 0x70A08231 EQ PUSH2 0x29F JUMPI DUP1 PUSH4 0x8DA5CB5B EQ PUSH2 0x2DB JUMPI DUP1 PUSH4 0x95D89B41 EQ PUSH2 0x305 JUMPI PUSH2 0xFD JUMP JUMPDEST DUP1 PUSH4 0x18160DDD GT PUSH2 0xD0 JUMPI DUP1 PUSH4 0x18160DDD EQ PUSH2 0x1CB JUMPI DUP1 PUSH4 0x23B872DD EQ PUSH2 0x1F5 JUMPI DUP1 PUSH4 0x3B1475A7 EQ PUSH2 0x211 JUMPI DUP1 PUSH4 0x42842E0E EQ PUSH2 0x23B JUMPI PUSH2 0xFD JUMP JUMPDEST DUP1 PUSH4 0x1FFC9A7 EQ PUSH2 0x101 JUMPI DUP1 PUSH4 0x6FDDE03 EQ PUSH2 0x13D JUMPI DUP1 PUSH4 0x81812FC EQ PUSH2 0x167 JUMPI DUP1 PUSH4 0x95EA7B3 EQ PUSH2 0x1A3 JUMPI JUMPDEST PUSH0 PUSH0 REVERT JUMPDEST CALLVALUE DUP1 ISZERO PUSH2 0x10C JUMPI PUSH0 PUSH0 REVERT JUMPDEST POP PUSH2 0x127 PUSH1 0x4 DUP1 CALLDATASIZE SUB DUP2 ADD SWAP1 PUSH2 0x122 SWAP2 SWAP1 PUSH2 0x1620 JUMP JUMPDEST PUSH2 0x41F JUMP JUMPDEST PUSH1 0x40 MLOAD PUSH2 0x134 SWAP2 SWAP1 PUSH2 0x1665 JUMP JUMPDEST PUSH1 0x40 MLOAD DUP1 SWAP2 SUB SWAP1 RETURN JUMPDEST CALLVALUE DUP1 ISZERO PUSH2 0x148 JUMPI PUSH0 PUSH0 REVERT JUMPDEST POP PUSH2 0x151 PUSH2 0x4B0 JUMP JUMPDEST PUSH1 0x40 MLOAD PUSH2 0x15E SWAP2 SWAP1 PUSH2 0x16EE JUMP JUMPDEST PUSH1 0x40 MLOAD DUP1 SWAP2 SUB SWAP1 RETURN JUMPDEST CALLVALUE DUP1 ISZERO PUSH2 0x172 JUMPI PUSH0 PUSH0 REVERT JUMPDEST POP PUSH2 0x18D PUSH1 0x4 DUP1 CALLDATASIZE SUB DUP2 ADD SWAP1 PUSH2 0x188 SWAP2 SWAP1 PUSH2 0x1741 JUMP JUMPDEST PUSH2 0x53B JUMP JUMPDEST PUSH1 0x40 MLOAD PUSH2 0x19A SWAP2 SWAP1 PUSH2 0x17AB JUMP JUMPDEST PUSH1 0x40 MLOAD DUP1 SWAP2 SUB SWAP1 RETURN JUMPDEST CALLVALUE DUP1 ISZERO PUSH2 0x1AE JUMPI PUSH0 PUSH0 REVERT JUMPDEST POP PUSH2 0x1C9 PUSH1 0x4 DUP1 CALLDATASIZE SUB DUP2 ADD SWAP1 PUSH2 0x1C4 SWAP2 SWAP1 PUSH2 0x17EE JUMP JUMPDEST PUSH2 0x612 JUMP JUMPDEST STOP JUMPDEST CALLVALUE DUP1 ISZERO PUSH2 0x1D6 JUMPI PUSH0 PUSH0 REVERT JUMPDEST POP PUSH2 0x1DF PUSH2 0x73E JUMP JUMPDEST PUSH1 0x40 MLOAD PUSH2 0x1EC SWAP2 SWAP1 PUSH2 0x183B JUMP JUMPDEST PUSH1 0x40 MLOAD DUP1 SWAP2 SUB SWAP1 RETURN JUMPDEST PUSH2 0x20F PUSH1 0x4 DUP1 CALLDATASIZE SUB DUP2 ADD SWAP1 PUSH2 0x20A SWAP2 SWAP1 PUSH2 0x1854 JUMP JUMPDEST PUSH2 0x753 JUMP JUMPDEST STOP JUMPDEST CALLVALUE DUP1 ISZERO PUSH2 0x21C JUMPI PUSH0 PUSH0 REVERT JUMPDEST POP PUSH2 0x225 PUSH2 0x8D3 JUMP JUMPDEST PUSH1 0x40 MLOAD PUSH2 0x232 SWAP2 SWAP1 PUSH2 0x183B JUMP JUMPDEST PUSH1 0x40 MLOAD DUP1 SWAP2 SUB SWAP1 RETURN JUMPDEST CALLVALUE DUP1 ISZERO PUSH2 0x246 JUMPI PUSH0 PUSH0 REVERT JUMPDEST POP PUSH2 0x261 PUSH1 0x4 DUP1 CALLDATASIZE SUB DUP2 ADD SWAP1 PUSH2 0x25C SWAP2 SWAP1 PUSH2 0x1854 JUMP JUMPDEST PUSH2 0x8D9 JUMP JUMPDEST STOP JUMPDEST CALLVALUE DUP1 ISZERO PUSH2 0x26E JUMPI PUSH0 PUSH0 REVERT JUMPDEST POP PUSH2 0x289 PUSH1 0x4 DUP1 CALLDATASIZE SUB DUP2 ADD SWAP1 PUSH2 0x284 SWAP2 SWAP1 PUSH2 0x1741 JUMP JUMPDEST PUSH2 0x8F8 JUMP JUMPDEST PUSH1 0x40 MLOAD PUSH2 0x296 SWAP2 SWAP1 PUSH2 0x17AB JUMP JUMPDEST PUSH1 0x40 MLOAD DUP1 SWAP2 SUB SWAP1 RETURN JUMPDEST CALLVALUE DUP1 ISZERO PUSH2 0x2AA JUMPI PUSH0 PUSH0 REVERT JUMPDEST POP PUSH2 0x2C5 PUSH1 0x4 DUP1 CALLDATASIZE SUB DUP2 ADD SWAP1 PUSH2 0x2C0 SWAP2 SWAP1 PUSH2 0x18A4 JUMP JUMPDEST PUSH2 0x9A4 JUMP JUMPDEST PUSH1 0x40 MLOAD PUSH2 0x2D2 SWAP2 SWAP1 PUSH2 0x183B JUMP JUMPDEST PUSH1 0x40 MLOAD DUP1 SWAP2 SUB SWAP1 RETURN JUMPDEST CALLVALUE DUP1 ISZERO PUSH2 0x2E6 JUMPI PUSH0 PUSH0 REVERT JUMPDEST POP PUSH2 0x2EF PUSH2 0xA58 JUMP JUMPDEST PUSH1 0x40 MLOAD PUSH2 0x2FC SWAP2 SWAP1 PUSH2 0x17AB JUMP JUMPDEST PUSH1 0x40 MLOAD DUP1 SWAP2 SUB SWAP1 RETURN JUMPDEST CALLVALUE DUP1 ISZERO PUSH2 0x310 JUMPI PUSH0 PUSH0 REVERT JUMPDEST POP PUSH2 0x319 PUSH2 0xA7D JUMP JUMPDEST PUSH1 0x40 MLOAD PUSH2 0x326 SWAP2 SWAP1 PUSH2 0x16EE JUMP JUMPDEST PUSH1 0x40 MLOAD DUP1 SWAP2 SUB SWAP1 RETURN JUMPDEST CALLVALUE DUP1 ISZERO PUSH2 0x33A JUMPI PUSH0 PUSH0 REVERT JUMPDEST POP PUSH2 0x355 PUSH1 0x4 DUP1 CALLDATASIZE SUB DUP2 ADD SWAP1 PUSH2 0x350 SWAP2 SWAP1 PUSH2 0x18F9 JUMP JUMPDEST PUSH2 0xB09 JUMP JUMPDEST STOP JUMPDEST CALLVALUE DUP1 ISZERO PUSH2 0x362 JUMPI PUSH0 PUSH0 REVERT JUMPDEST POP PUSH2 0x37D PUSH1 0x4 DUP1 CALLDATASIZE SUB DUP2 ADD SWAP1 PUSH2 0x378 SWAP2 SWAP1 PUSH2 0x1A63 JUMP JUMPDEST PUSH2 0xC6F JUMP JUMPDEST STOP JUMPDEST CALLVALUE DUP1 ISZERO PUSH2 0x38A JUMPI PUSH0 PUSH0 REVERT JUMPDEST POP PUSH2 0x3A5 PUSH1 0x4 DUP1 CALLDATASIZE SUB DUP2 ADD SWAP1 PUSH2 0x3A0 SWAP2 SWAP1 PUSH2 0x1741 JUMP JUMPDEST PUSH2 0xE3B JUMP JUMPDEST PUSH1 0x40 MLOAD PUSH2 0x3B2 SWAP2 SWAP1 PUSH2 0x16EE JUMP JUMPDEST PUSH1 0x40 MLOAD DUP1 SWAP2 SUB SWAP1 RETURN JUMPDEST CALLVALUE DUP1 ISZERO PUSH2 0x3C6 JUMPI PUSH0 PUSH0 REVERT JUMPDEST POP PUSH2 0x3E1 PUSH1 0x4 DUP1 CALLDATASIZE SUB DUP2 ADD SWAP1 PUSH2 0x3DC SWAP2 SWAP1 PUSH2 0x1B81 JUMP JUMPDEST PUSH2 0xF7A JUMP JUMPDEST STOP JUMPDEST CALLVALUE DUP1 ISZERO PUSH2 0x3EE JUMPI PUSH0 PUSH0 REVERT JUMPDEST POP PUSH2 0x409 PUSH1 0x4 DUP1 CALLDATASIZE SUB DUP2 ADD SWAP1 PUSH2 0x404 SWAP2 SWAP1 PUSH2 0x1BDB JUMP JUMPDEST PUSH2 0x1148 JUMP JUMPDEST PUSH1 0x40 MLOAD PUSH2 0x416 SWAP2 SWAP1 PUSH2 0x1665 JUMP JUMPDEST PUSH1 0x40 MLOAD DUP1 SWAP2 SUB SWAP1 RETURN JUMPDEST PUSH0 PUSH4 0x80AC58CD PUSH1 0xE0 SHL DUP3 PUSH28 0xFFFFFFFFFFFFFFFFFFFFFFFFFFFFFFFFFFFFFFFFFFFFFFFFFFFFFFFF NOT AND EQ DUP1 PUSH2 0x479 JUMPI POP PUSH4 0x5B5E139F PUSH1 0xE0 SHL DUP3 PUSH28 0xFFFFFFFFFFFFFFFFFFFFFFFFFFFFFFFFFFFFFFFFFFFFFFFFFFFFFFFF NOT AND EQ JUMPDEST DUP1 PUSH2 0x4A9 JUMPI POP PUSH4 0x1FFC9A7 PUSH1 0xE0 SHL DUP3 PUSH28 0xFFFFFFFFFFFFFFFFFFFFFFFFFFFFFFFFFFFFFFFFFFFFFFFFFFFFFFFF NOT AND EQ JUMPDEST SWAP1 POP SWAP2 SWAP1 POP JUMP JUMPDEST PUSH0 DUP1 SLOAD PUSH2 0x4BC SWAP1 PUSH2 0x1C46 JUMP JUMPDEST DUP1 PUSH1 0x1F ADD PUSH1 0x20 DUP1 SWAP2 DIV MUL PUSH1 0x20 ADD PUSH1 0x40 MLOAD SWAP1 DUP2 ADD PUSH1 0x40 MSTORE DUP1 SWAP3 SWAP2 SWAP1 DUP2 DUP2 MSTORE PUSH1 0x20 ADD DUP3 DUP1 SLOAD PUSH2 0x4E8 SWAP1 PUSH2 0x1C46 JUMP JUMPDEST DUP1 ISZERO PUSH2 0x533 JUMPI DUP1 PUSH1 0x1F LT PUSH2 0x50A JUMPI PUSH2 0x100 DUP1 DUP4 SLOAD DIV MUL DUP4 MSTORE SWAP2 PUSH1 0x20 ADD SWAP2 PUSH2 0x533 JUMP JUMPDEST DUP3 ADD SWAP2 SWAP1 PUSH0 MSTORE PUSH1 0x20 PUSH0 KECCAK256 SWAP1 JUMPDEST DUP2 SLOAD DUP2 MSTORE SWAP1 PUSH1 0x1 ADD SWAP1 PUSH1 0x20 ADD DUP1 DUP4 GT PUSH2 0x516 JUMPI DUP3 SWAP1 SUB PUSH1 0x1F AND DUP3 ADD SWAP2 JUMPDEST POP POP POP POP POP DUP2 JUMP JUMPDEST PUSH0 PUSH0 PUSH20 0xFFFFFFFFFFFFFFFFFFFFFFFFFFFFFFFFFFFFFFFF AND PUSH1 0x4 PUSH0 DUP5 DUP2 MSTORE PUSH1 0x20 ADD SWAP1 DUP2 MSTORE PUSH1 0x20 ADD PUSH0 KECCAK256 PUSH0 SWAP1 SLOAD SWAP1 PUSH2 0x100 EXP SWAP1 DIV PUSH20 0xFFFFFFFFFFFFFFFFFFFFFFFFFFFFFFFFFFFFFFFF AND PUSH20 0xFFFFFFFFFFFFFFFFFFFFFFFFFFFFFFFFFFFFFFFF AND SUB PUSH2 0x5DA JUMPI PUSH1 0x40 MLOAD PUSH32 0x8C379A000000000000000000000000000000000000000000000000000000000 DUP2 MSTORE PUSH1 0x4 ADD PUSH2 0x5D1 SWAP1 PUSH2 0x1CE6 JUMP JUMPDEST PUSH1 0x40 MLOAD DUP1 SWAP2 SUB SWAP1 REVERT JUMPDEST PUSH1 0x6 PUSH0 DUP4 DUP2 MSTORE PUSH1 0x20 ADD SWAP1 DUP2 MSTORE PUSH1 0x20 ADD PUSH0 KECCAK256 PUSH0 SWAP1 SLOAD SWAP1 PUSH2 0x100 EXP SWAP1 DIV PUSH20 0xFFFFFFFFFFFFFFFFFFFFFFFFFFFFFFFFFFFFFFFF AND SWAP1 POP SWAP2 SWAP1 POP JUMP JUMPDEST CALLER PUSH20 0xFFFFFFFFFFFFFFFFFFFFFFFFFFFFFFFFFFFFFFFF AND PUSH2 0x632 DUP3 PUSH2 0x8F8 JUMP JUMPDEST PUSH20 0xFFFFFFFFFFFFFFFFFFFFFFFFFFFFFFFFFFFFFFFF AND EQ PUSH2 0x688 JUMPI PUSH1 0x40 MLOAD PUSH32 0x8C379A000000000000000000000000000000000000000000000000000000000 DUP2 MSTORE PUSH1 0x4 ADD PUSH2 0x67F SWAP1 PUSH2 0x1D74 JUMP JUMPDEST PUSH1 0x40 MLOAD DUP1 SWAP2 SUB SWAP1 REVERT JUMPDEST DUP2 PUSH1 0x6 PUSH0 DUP4 DUP2 MSTORE PUSH1 0x20 ADD SWAP1 DUP2 MSTORE PUSH1 0x20 ADD PUSH0 KECCAK256 PUSH0 PUSH2 0x100 EXP DUP2 SLOAD DUP2 PUSH20 0xFFFFFFFFFFFFFFFFFFFFFFFFFFFFFFFFFFFFFFFF MUL NOT AND SWAP1 DUP4 PUSH20 0xFFFFFFFFFFFFFFFFFFFFFFFFFFFFFFFFFFFFFFFF AND MUL OR SWAP1 SSTORE POP DUP1 DUP3 PUSH20 0xFFFFFFFFFFFFFFFFFFFFFFFFFFFFFFFFFFFFFFFF AND PUSH2 0x6F8 DUP4 PUSH2 0x8F8 JUMP JUMPDEST PUSH20 0xFFFFFFFFFFFFFFFFFFFFFFFFFFFFFFFFFFFFFFFF AND PUSH32 0x8C5BE1E5EBEC7D5BD14F71427D1E84F3DD0314C0F7B2291E5B200AC8C7C3B925 PUSH1 0x40 MLOAD PUSH1 0x40 MLOAD DUP1 SWAP2 SUB SWAP1 LOG4 POP POP JUMP JUMPDEST PUSH0 PUSH1 0x1 PUSH1 0x2 SLOAD PUSH2 0x74E SWAP2 SWAP1 PUSH2 0x1DBF JUMP JUMPDEST SWAP1 POP SWAP1 JUMP JUMPDEST CALLER PUSH20 0xFFFFFFFFFFFFFFFFFFFFFFFFFFFFFFFFFFFFFFFF AND PUSH2 0x773 DUP3 PUSH2 0x8F8 JUMP JUMPDEST PUSH20 0xFFFFFFFFFFFFFFFFFFFFFFFFFFFFFFFFFFFFFFFF AND EQ DUP1 PUSH2 0x7F0 JUMPI POP CALLER PUSH20 0xFFFFFFFFFFFFFFFFFFFFFFFFFFFFFFFFFFFFFFFF AND PUSH1 0x6 PUSH0 DUP4 DUP2 MSTORE PUSH1 0x20 ADD SWAP1 DUP2 MSTORE PUSH1 0x20 ADD PUSH0 KECCAK256 PUSH0 SWAP1 SLOAD SWAP1 PUSH2 0x100 EXP SWAP1 DIV PUSH20 0xFFFFFFFFFFFFFFFFFFFFFFFFFFFFFFFFFFFFFFFF AND PUSH20 0xFFFFFFFFFFFFFFFFFFFFFFFFFFFFFFFFFFFFFFFF AND EQ JUMPDEST DUP1 PUSH2 0x884 JUMPI POP PUSH1 0x7 PUSH0 PUSH2 0x802 DUP4 PUSH2 0x8F8 JUMP JUMPDEST PUSH20 0xFFFFFFFFFFFFFFFFFFFFFFFFFFFFFFFFFFFFFFFF AND PUSH20 0xFFFFFFFFFFFFFFFFFFFFFFFFFFFFFFFFFFFFFFFF AND DUP2 MSTORE PUSH1 0x20 ADD SWAP1 DUP2 MSTORE PUSH1 0x20 ADD PUSH0 KECCAK256 PUSH0 CALLER PUSH20 0xFFFFFFFFFFFFFFFFFFFFFFFFFFFFFFFFFFFFFFFF AND PUSH20 0xFFFFFFFFFFFFFFFFFFFFFFFFFFFFFFFFFFFFFFFF AND DUP2 MSTORE PUSH1 0x20 ADD SWAP1 DUP2 MSTORE PUSH1 0x20 ADD PUSH0 KECCAK256 PUSH0 SWAP1 SLOAD SWAP1 PUSH2 0x100 EXP SWAP1 DIV PUSH1 0xFF AND JUMPDEST PUSH2 0x8C3 JUMPI PUSH1 0x40 MLOAD PUSH32 0x8C379A000000000000000000000000000000000000000000000000000000000 DUP2 MSTORE PUSH1 0x4 ADD PUSH2 0x8BA SWAP1 PUSH2 0x1E62 JUMP JUMPDEST PUSH1 0x40 MLOAD DUP1 SWAP2 SUB SWAP1 REVERT JUMPDEST PUSH2 0x8CE DUP4 DUP4 DUP4 PUSH2 0x11D6 JUMP JUMPDEST POP POP POP JUMP JUMPDEST PUSH1 0x2 SLOAD DUP2 JUMP JUMPDEST PUSH2 0x8F3 DUP4 DUP4 DUP4 PUSH1 0x40 MLOAD DUP1 PUSH1 0x20 ADD PUSH1 0x40 MSTORE DUP1 PUSH0 DUP2 MSTORE POP PUSH2 0xC6F JUMP JUMPDEST POP POP POP JUMP JUMPDEST PUSH0 PUSH0 PUSH1 0x4 PUSH0 DUP5 DUP2 MSTORE PUSH1 0x20 ADD SWAP1 DUP2 MSTORE PUSH1 0x20 ADD PUSH0 KECCAK256 PUSH0 SWAP1 SLOAD SWAP1 PUSH2 0x100 EXP SWAP1 DIV PUSH20 0xFFFFFFFFFFFFFFFFFFFFFFFFFFFFFFFFFFFFFFFF AND SWAP1 POP PUSH0 PUSH20 0xFFFFFFFFFFFFFFFFFFFFFFFFFFFFFFFFFFFFFFFF AND DUP2 PUSH20 0xFFFFFFFFFFFFFFFFFFFFFFFFFFFFFFFFFFFFFFFF AND SUB PUSH2 0x99B JUMPI PUSH1 0x40 MLOAD PUSH32 0x8C379A000000000000000000000000000000000000000000000000000000000 DUP2 MSTORE PUSH1 0x4 ADD PUSH2 0x992 SWAP1 PUSH2 0x1EF0 JUMP JUMPDEST PUSH1 0x40 MLOAD DUP1 SWAP2 SUB SWAP1 REVERT JUMPDEST DUP1 SWAP2 POP POP SWAP2 SWAP1 POP JUMP JUMPDEST PUSH0 PUSH0 PUSH20 0xFFFFFFFFFFFFFFFFFFFFFFFFFFFFFFFFFFFFFFFF AND DUP3 PUSH20 0xFFFFFFFFFFFFFFFFFFFFFFFFFFFFFFFFFFFFFFFF AND SUB PUSH2 0xA13 JUMPI PUSH1 0x40 MLOAD PUSH32 0x8C379A000000000000000000000000000000000000000000000000000000000 DUP2 MSTORE PUSH1 0x4 ADD PUSH2 0xA0A SWAP1 PUSH2 0x1F7E JUMP JUMPDEST PUSH1 0x40 MLOAD DUP1 SWAP2 SUB SWAP1 REVERT JUMPDEST PUSH1 0x5 PUSH0 DUP4 PUSH20 0xFFFFFFFFFFFFFFFFFFFFFFFFFFFFFFFFFFFFFFFF AND PUSH20 0xFFFFFFFFFFFFFFFFFFFFFFFFFFFFFFFFFFFFFFFF AND DUP2 MSTORE PUSH1 0x20 ADD SWAP1 DUP2 MSTORE PUSH1 0x20 ADD PUSH0 KECCAK256 SLOAD SWAP1 POP SWAP2 SWAP1 POP JUMP JUMPDEST PUSH1 0x3 PUSH0 SWAP1 SLOAD SWAP1 PUSH2 0x100 EXP SWAP1 DIV PUSH20 0xFFFFFFFFFFFFFFFFFFFFFFFFFFFFFFFFFFFFFFFF AND DUP2 JUMP JUMPDEST PUSH1 0x1 DUP1 SLOAD PUSH2 0xA8A SWAP1 PUSH2 0x1C46 JUMP JUMPDEST DUP1 PUSH1 0x1F ADD PUSH1 0x20 DUP1 SWAP2 DIV MUL PUSH1 0x20 ADD PUSH1 0x40 MLOAD SWAP1 DUP2 ADD PUSH1 0x40 MSTORE DUP1 SWAP3 SWAP2 SWAP1 DUP2 DUP2 MSTORE PUSH1 0x20 ADD DUP3 DUP1 SLOAD PUSH2 0xAB6 SWAP1 PUSH2 0x1C46 JUMP JUMPDEST DUP1 ISZERO PUSH2 0xB01 JUMPI DUP1 PUSH1 0x1F LT PUSH2 0xAD8 JUMPI PUSH2 0x100 DUP1 DUP4 SLOAD DIV MUL DUP4 MSTORE SWAP2 PUSH1 0x20 ADD SWAP2 PUSH2 0xB01 JUMP JUMPDEST DUP3 ADD SWAP2 SWAP1 PUSH0 MSTORE PUSH1 0x20 PUSH0 KECCAK256 SWAP1 JUMPDEST DUP2 SLOAD DUP2 MSTORE SWAP1 PUSH1 0x1 ADD SWAP1 PUSH1 0x20 ADD DUP1 DUP4 GT PUSH2 0xAE4 JUMPI DUP3 SWAP1 SUB PUSH1 0x1F AND DUP3 ADD SWAP2 JUMPDEST POP POP POP POP POP DUP2 JUMP JUMPDEST CALLER PUSH20 0xFFFFFFFFFFFFFFFFFFFFFFFFFFFFFFFFFFFFFFFF AND DUP3 PUSH20 0xFFFFFFFFFFFFFFFFFFFFFFFFFFFFFFFFFFFFFFFF AND SUB PUSH2 0xB77 JUMPI PUSH1 0x40 MLOAD PUSH32 0x8C379A000000000000000000000000000000000000000000000000000000000 DUP2 MSTORE PUSH1 0x4 ADD PUSH2 0xB6E SWAP1 PUSH2 0x1FE6 JUMP JUMPDEST PUSH1 0x40 MLOAD DUP1 SWAP2 SUB SWAP1 REVERT JUMPDEST DUP1 PUSH1 0x7 PUSH0 CALLER PUSH20 0xFFFFFFFFFFFFFFFFFFFFFFFFFFFFFFFFFFFFFFFF AND PUSH20 0xFFFFFFFFFFFFFFFFFFFFFFFFFFFFFFFFFFFFFFFF AND DUP2 MSTORE PUSH1 0x20 ADD SWAP1 DUP2 MSTORE PUSH1 0x20 ADD PUSH0 KECCAK256 PUSH0 DUP5 PUSH20 0xFFFFFFFFFFFFFFFFFFFFFFFFFFFFFFFFFFFFFFFF AND PUSH20 0xFFFFFFFFFFFFFFFFFFFFFFFFFFFFFFFFFFFFFFFF AND DUP2 MSTORE PUSH1 0x20 ADD SWAP1 DUP2 MSTORE PUSH1 0x20 ADD PUSH0 KECCAK256 PUSH0 PUSH2 0x100 EXP DUP2 SLOAD DUP2 PUSH1 0xFF MUL NOT AND SWAP1 DUP4 ISZERO ISZERO MUL OR SWAP1 SSTORE POP DUP2 PUSH20 0xFFFFFFFFFFFFFFFFFFFFFFFFFFFFFFFFFFFFFFFF AND CALLER PUSH20 0xFFFFFFFFFFFFFFFFFFFFFFFFFFFFFFFFFFFFFFFF AND PUSH32 0x17307EAB39AB6107E8899845AD3D59BD9653F200F220920489CA2B5937696C31 DUP4 PUSH1 0x40 MLOAD PUSH2 0xC63 SWAP2 SWAP1 PUSH2 0x1665 JUMP JUMPDEST PUSH1 0x40 MLOAD DUP1 SWAP2 SUB SWAP1 LOG3 POP POP JUMP JUMPDEST CALLER PUSH20 0xFFFFFFFFFFFFFFFFFFFFFFFFFFFFFFFFFFFFFFFF AND PUSH2 0xC8F DUP4 PUSH2 0x8F8 JUMP JUMPDEST PUSH20 0xFFFFFFFFFFFFFFFFFFFFFFFFFFFFFFFFFFFFFFFF AND EQ DUP1 PUSH2 0xD0C JUMPI POP CALLER PUSH20 0xFFFFFFFFFFFFFFFFFFFFFFFFFFFFFFFFFFFFFFFF AND PUSH1 0x6 PUSH0 DUP5 DUP2 MSTORE PUSH1 0x20 ADD SWAP1 DUP2 MSTORE PUSH1 0x20 ADD PUSH0 KECCAK256 PUSH0 SWAP1 SLOAD SWAP1 PUSH2 0x100 EXP SWAP1 DIV PUSH20 0xFFFFFFFFFFFFFFFFFFFFFFFFFFFFFFFFFFFFFFFF AND PUSH20 0xFFFFFFFFFFFFFFFFFFFFFFFFFFFFFFFFFFFFFFFF AND EQ JUMPDEST DUP1 PUSH2 0xDA0 JUMPI POP PUSH1 0x7 PUSH0 PUSH2 0xD1E DUP5 PUSH2 0x8F8 JUMP JUMPDEST PUSH20 0xFFFFFFFFFFFFFFFFFFFFFFFFFFFFFFFFFFFFFFFF AND PUSH20 0xFFFFFFFFFFFFFFFFFFFFFFFFFFFFFFFFFFFFFFFF AND DUP2 MSTORE PUSH1 0x20 ADD SWAP1 DUP2 MSTORE PUSH1 0x20 ADD PUSH0 KECCAK256 PUSH0 CALLER PUSH20 0xFFFFFFFFFFFFFFFFFFFFFFFFFFFFFFFFFFFFFFFF AND PUSH20 0xFFFFFFFFFFFFFFFFFFFFFFFFFFFFFFFFFFFFFFFF AND DUP2 MSTORE PUSH1 0x20 ADD SWAP1 DUP2 MSTORE PUSH1 0x20 ADD PUSH0 KECCAK256 PUSH0 SWAP1 SLOAD SWAP1 PUSH2 0x100 EXP SWAP1 DIV PUSH1 0xFF AND JUMPDEST PUSH2 0xDDF JUMPI PUSH1 0x40 MLOAD PUSH32 0x8C379A000000000000000000000000000000000000000000000000000000000 DUP2 MSTORE PUSH1 0x4 ADD PUSH2 0xDD6 SWAP1 PUSH2 0x1E62 JUMP JUMPDEST PUSH1 0x40 MLOAD DUP1 SWAP2 SUB SWAP1 REVERT JUMPDEST PUSH2 0xDEA DUP5 DUP5 DUP5 PUSH2 0x11D6 JUMP JUMPDEST PUSH2 0xDF6 DUP5 DUP5 DUP5 DUP5 PUSH2 0x1444 JUMP JUMPDEST PUSH2 0xE35 JUMPI PUSH1 0x40 MLOAD PUSH32 0x8C379A000000000000000000000000000000000000000000000000000000000 DUP2 MSTORE PUSH1 0x4 ADD PUSH2 0xE2C SWAP1 PUSH2 0x2074 JUMP JUMPDEST PUSH1 0x40 MLOAD DUP1 SWAP2 SUB SWAP1 REVERT JUMPDEST POP POP POP POP JUMP JUMPDEST PUSH1 0x60 PUSH0 PUSH20 0xFFFFFFFFFFFFFFFFFFFFFFFFFFFFFFFFFFFFFFFF AND PUSH1 0x4 PUSH0 DUP5 DUP2 MSTORE PUSH1 0x20 ADD SWAP1 DUP2 MSTORE PUSH1 0x20 ADD PUSH0 KECCAK256 PUSH0 SWAP1 SLOAD SWAP1 PUSH2 0x100 EXP SWAP1 DIV PUSH20 0xFFFFFFFFFFFFFFFFFFFFFFFFFFFFFFFFFFFFFFFF AND PUSH20 0xFFFFFFFFFFFFFFFFFFFFFFFFFFFFFFFFFFFFFFFF AND SUB PUSH2 0xEDB JUMPI PUSH1 0x40 MLOAD PUSH32 0x8C379A000000000000000000000000000000000000000000000000000000000 DUP2 MSTORE PUSH1 0x4 ADD PUSH2 0xED2 SWAP1 PUSH2 0x2102 JUMP JUMPDEST PUSH1 0x40 MLOAD DUP1 SWAP2 SUB SWAP1 REVERT JUMPDEST PUSH1 0x8 PUSH0 DUP4 DUP2 MSTORE PUSH1 0x20 ADD SWAP1 DUP2 MSTORE PUSH1 0x20 ADD PUSH0 KECCAK256 DUP1 SLOAD PUSH2 0xEF7 SWAP1 PUSH2 0x1C46 JUMP JUMPDEST DUP1 PUSH1 0x1F ADD PUSH1 0x20 DUP1 SWAP2 DIV MUL PUSH1 0x20 ADD PUSH1 0x40 MLOAD SWAP1 DUP2 ADD PUSH1 0x40 MSTORE DUP1 SWAP3 SWAP2 SWAP1 DUP2 DUP2 MSTORE PUSH1 0x20 ADD DUP3 DUP1 SLOAD PUSH2 0xF23 SWAP1 PUSH2 0x1C46 JUMP JUMPDEST DUP1 ISZERO PUSH2 0xF6E JUMPI DUP1 PUSH1 0x1F LT PUSH2 0xF45 JUMPI PUSH2 0x100 DUP1 DUP4 SLOAD DIV MUL DUP4 MSTORE SWAP2 PUSH1 0x20 ADD SWAP2 PUSH2 0xF6E JUMP JUMPDEST DUP3 ADD SWAP2 SWAP1 PUSH0 MSTORE PUSH1 0x20 PUSH0 KECCAK256 SWAP1 JUMPDEST DUP2 SLOAD DUP2 MSTORE SWAP1 PUSH1 0x1 ADD SWAP1 PUSH1 0x20 ADD DUP1 DUP4 GT PUSH2 0xF51 JUMPI DUP3 SWAP1 SUB PUSH1 0x1F AND DUP3 ADD SWAP2 JUMPDEST POP POP POP POP POP SWAP1 POP SWAP2 SWAP1 POP JUMP JUMPDEST PUSH1 0x3 PUSH0 SWAP1 SLOAD SWAP1 PUSH2 0x100 EXP SWAP1 DIV PUSH20 0xFFFFFFFFFFFFFFFFFFFFFFFFFFFFFFFFFFFFFFFF AND PUSH20 0xFFFFFFFFFFFFFFFFFFFFFFFFFFFFFFFFFFFFFFFF AND CALLER PUSH20 0xFFFFFFFFFFFFFFFFFFFFFFFFFFFFFFFFFFFFFFFF AND EQ PUSH2 0x1009 JUMPI PUSH1 0x40 MLOAD PUSH32 0x8C379A000000000000000000000000000000000000000000000000000000000 DUP2 MSTORE PUSH1 0x4 ADD PUSH2 0x1000 SWAP1 PUSH2 0x2190 JUMP JUMPDEST PUSH1 0x40 MLOAD DUP1 SWAP2 SUB SWAP1 REVERT JUMPDEST PUSH0 PUSH1 0x2 SLOAD SWAP1 POP DUP3 PUSH1 0x4 PUSH0 DUP4 DUP2 MSTORE PUSH1 0x20 ADD SWAP1 DUP2 MSTORE PUSH1 0x20 ADD PUSH0 KECCAK256 PUSH0 PUSH2 0x100 EXP DUP2 SLOAD DUP2 PUSH20 0xFFFFFFFFFFFFFFFFFFFFFFFFFFFFFFFFFFFFFFFF MUL NOT AND SWAP1 DUP4 PUSH20 0xFFFFFFFFFFFFFFFFFFFFFFFFFFFFFFFFFFFFFFFF AND MUL OR SWAP1 SSTORE POP PUSH1 0x1 PUSH1 0x5 PUSH0 DUP6 PUSH20 0xFFFFFFFFFFFFFFFFFFFFFFFFFFFFFFFFFFFFFFFF AND PUSH20 0xFFFFFFFFFFFFFFFFFFFFFFFFFFFFFFFFFFFFFFFF AND DUP2 MSTORE PUSH1 0x20 ADD SWAP1 DUP2 MSTORE PUSH1 0x20 ADD PUSH0 KECCAK256 PUSH0 DUP3 DUP3 SLOAD PUSH2 0x10AB SWAP2 SWAP1 PUSH2 0x21AE JUMP JUMPDEST SWAP3 POP POP DUP2 SWAP1 SSTORE POP DUP2 PUSH1 0x8 PUSH0 DUP4 DUP2 MSTORE PUSH1 0x20 ADD SWAP1 DUP2 MSTORE PUSH1 0x20 ADD PUSH0 KECCAK256 SWAP1 DUP2 PUSH2 0x10D0 SWAP2 SWAP1 PUSH2 0x2381 JUMP JUMPDEST POP DUP1 DUP4 PUSH20 0xFFFFFFFFFFFFFFFFFFFFFFFFFFFFFFFFFFFFFFFF AND PUSH0 PUSH20 0xFFFFFFFFFFFFFFFFFFFFFFFFFFFFFFFFFFFFFFFF AND PUSH32 0xDDF252AD1BE2C89B69C2B068FC378DAA952BA7F163C4A11628F55A4DF523B3EF PUSH1 0x40 MLOAD PUSH1 0x40 MLOAD DUP1 SWAP2 SUB SWAP1 LOG4 PUSH1 0x2 PUSH0 DUP2 SLOAD DUP1 SWAP3 SWAP2 SWAP1 PUSH2 0x113E SWAP1 PUSH2 0x2450 JUMP JUMPDEST SWAP2 SWAP1 POP SSTORE POP POP POP POP JUMP JUMPDEST PUSH0 PUSH1 0x7 PUSH0 DUP5 PUSH20 0xFFFFFFFFFFFFFFFFFFFFFFFFFFFFFFFFFFFFFFFF AND PUSH20 0xFFFFFFFFFFFFFFFFFFFFFFFFFFFFFFFFFFFFFFFF AND DUP2 MSTORE PUSH1 0x20 ADD SWAP1 DUP2 MSTORE PUSH1 0x20 ADD PUSH0 KECCAK256 PUSH0 DUP4 PUSH20 0xFFFFFFFFFFFFFFFFFFFFFFFFFFFFFFFFFFFFFFFF AND PUSH20 0xFFFFFFFFFFFFFFFFFFFFFFFFFFFFFFFFFFFFFFFF AND DUP2 MSTORE PUSH1 0x20 ADD SWAP1 DUP2 MSTORE PUSH1 0x20 ADD PUSH0 KECCAK256 PUSH0 SWAP1 SLOAD SWAP1 PUSH2 0x100 EXP SWAP1 DIV PUSH1 0xFF AND SWAP1 POP SWAP3 SWAP2 POP POP JUMP JUMPDEST DUP3 PUSH20 0xFFFFFFFFFFFFFFFFFFFFFFFFFFFFFFFFFFFFFFFF AND PUSH2 0x11F6 DUP3 PUSH2 0x8F8 JUMP JUMPDEST PUSH20 0xFFFFFFFFFFFFFFFFFFFFFFFFFFFFFFFFFFFFFFFF AND EQ PUSH2 0x124C JUMPI PUSH1 0x40 MLOAD PUSH32 0x8C379A000000000000000000000000000000000000000000000000000000000 DUP2 MSTORE PUSH1 0x4 ADD PUSH2 0x1243 SWAP1 PUSH2 0x2507 JUMP JUMPDEST PUSH1 0x40 MLOAD DUP1 SWAP2 SUB SWAP1 REVERT JUMPDEST PUSH0 PUSH20 0xFFFFFFFFFFFFFFFFFFFFFFFFFFFFFFFFFFFFFFFF AND DUP3 PUSH20 0xFFFFFFFFFFFFFFFFFFFFFFFFFFFFFFFFFFFFFFFF AND SUB PUSH2 0x12BA JUMPI PUSH1 0x40 MLOAD PUSH32 0x8C379A000000000000000000000000000000000000000000000000000000000 DUP2 MSTORE PUSH1 0x4 ADD PUSH2 0x12B1 SWAP1 PUSH2 0x2595 JUMP JUMPDEST PUSH1 0x40 MLOAD DUP1 SWAP2 SUB SWAP1 REVERT JUMPDEST PUSH1 0x6 PUSH0 DUP3 DUP2 MSTORE PUSH1 0x20 ADD SWAP1 DUP2 MSTORE PUSH1 0x20 ADD PUSH0 KECCAK256 PUSH0 PUSH2 0x100 EXP DUP2 SLOAD SWAP1 PUSH20 0xFFFFFFFFFFFFFFFFFFFFFFFFFFFFFFFFFFFFFFFF MUL NOT AND SWAP1 SSTORE PUSH1 0x1 PUSH1 0x5 PUSH0 DUP6 PUSH20 0xFFFFFFFFFFFFFFFFFFFFFFFFFFFFFFFFFFFFFFFF AND PUSH20 0xFFFFFFFFFFFFFFFFFFFFFFFFFFFFFFFFFFFFFFFF AND DUP2 MSTORE PUSH1 0x20 ADD SWAP1 DUP2 MSTORE PUSH1 0x20 ADD PUSH0 KECCAK256 PUSH0 DUP3 DUP3 SLOAD PUSH2 0x133A SWAP2 SWAP1 PUSH2 0x1DBF JUMP JUMPDEST SWAP3 POP POP DUP2 SWAP1 SSTORE POP PUSH1 0x1 PUSH1 0x5 PUSH0 DUP5 PUSH20 0xFFFFFFFFFFFFFFFFFFFFFFFFFFFFFFFFFFFFFFFF AND PUSH20 0xFFFFFFFFFFFFFFFFFFFFFFFFFFFFFFFFFFFFFFFF AND DUP2 MSTORE PUSH1 0x20 ADD SWAP1 DUP2 MSTORE PUSH1 0x20 ADD PUSH0 KECCAK256 PUSH0 DUP3 DUP3 SLOAD PUSH2 0x138E SWAP2 SWAP1 PUSH2 0x21AE JUMP JUMPDEST SWAP3 POP POP DUP2 SWAP1 SSTORE POP DUP2 PUSH1 0x4 PUSH0 DUP4 DUP2 MSTORE PUSH1 0x20 ADD SWAP1 DUP2 MSTORE PUSH1 0x20 ADD PUSH0 KECCAK256 PUSH0 PUSH2 0x100 EXP DUP2 SLOAD DUP2 PUSH20 0xFFFFFFFFFFFFFFFFFFFFFFFFFFFFFFFFFFFFFFFF MUL NOT AND SWAP1 DUP4 PUSH20 0xFFFFFFFFFFFFFFFFFFFFFFFFFFFFFFFFFFFFFFFF AND MUL OR SWAP1 SSTORE POP DUP1 DUP3 PUSH20 0xFFFFFFFFFFFFFFFFFFFFFFFFFFFFFFFFFFFFFFFF AND DUP5 PUSH20 0xFFFFFFFFFFFFFFFFFFFFFFFFFFFFFFFFFFFFFFFF AND PUSH32 0xDDF252AD1BE2C89B69C2B068FC378DAA952BA7F163C4A11628F55A4DF523B3EF PUSH1 0x40 MLOAD PUSH1 0x40 MLOAD DUP1 SWAP2 SUB SWAP1 LOG4 POP POP POP JUMP JUMPDEST PUSH0 PUSH0 DUP5 PUSH20 0xFFFFFFFFFFFFFFFFFFFFFFFFFFFFFFFFFFFFFFFF AND EXTCODESIZE GT ISZERO PUSH2 0x15AD JUMPI DUP4 PUSH20 0xFFFFFFFFFFFFFFFFFFFFFFFFFFFFFFFFFFFFFFFF AND PUSH4 0x150B7A02 CALLER DUP8 DUP7 DUP7 PUSH1 0x40 MLOAD DUP6 PUSH4 0xFFFFFFFF AND PUSH1 0xE0 SHL DUP2 MSTORE PUSH1 0x4 ADD PUSH2 0x14A3 SWAP5 SWAP4 SWAP3 SWAP2 SWAP1 PUSH2 0x2605 JUMP JUMPDEST PUSH1 0x20 PUSH1 0x40 MLOAD DUP1 DUP4 SUB DUP2 PUSH0 DUP8 GAS CALL SWAP3 POP POP POP DUP1 ISZERO PUSH2 0x14DE JUMPI POP PUSH1 0x40 MLOAD RETURNDATASIZE PUSH1 0x1F NOT PUSH1 0x1F DUP3 ADD AND DUP3 ADD DUP1 PUSH1 0x40 MSTORE POP DUP2 ADD SWAP1 PUSH2 0x14DB SWAP2 SWAP1 PUSH2 0x2663 JUMP JUMPDEST PUSH1 0x1 JUMPDEST PUSH2 0x155D JUMPI RETURNDATASIZE DUP1 PUSH0 DUP2 EQ PUSH2 0x150C JUMPI PUSH1 0x40 MLOAD SWAP2 POP PUSH1 0x1F NOT PUSH1 0x3F RETURNDATASIZE ADD AND DUP3 ADD PUSH1 0x40 MSTORE RETURNDATASIZE DUP3 MSTORE RETURNDATASIZE PUSH0 PUSH1 0x20 DUP5 ADD RETURNDATACOPY PUSH2 0x1511 JUMP JUMPDEST PUSH1 0x60 SWAP2 POP JUMPDEST POP PUSH0 DUP2 MLOAD SUB PUSH2 0x1555 JUMPI PUSH1 0x40 MLOAD PUSH32 0x8C379A000000000000000000000000000000000000000000000000000000000 DUP2 MSTORE PUSH1 0x4 ADD PUSH2 0x154C SWAP1 PUSH2 0x2074 JUMP JUMPDEST PUSH1 0x40 MLOAD DUP1 SWAP2 SUB SWAP1 REVERT JUMPDEST DUP1 MLOAD DUP2 PUSH1 0x20 ADD REVERT JUMPDEST PUSH4 0x150B7A02 PUSH1 0xE0 SHL PUSH28 0xFFFFFFFFFFFFFFFFFFFFFFFFFFFFFFFFFFFFFFFFFFFFFFFFFFFFFFFF NOT AND DUP2 PUSH28 0xFFFFFFFFFFFFFFFFFFFFFFFFFFFFFFFFFFFFFFFFFFFFFFFFFFFFFFFF NOT AND EQ SWAP2 POP POP PUSH2 0x15B2 JUMP JUMPDEST PUSH1 0x1 SWAP1 POP JUMPDEST SWAP5 SWAP4 POP POP POP POP JUMP JUMPDEST PUSH0 PUSH1 0x40 MLOAD SWAP1 POP SWAP1 JUMP JUMPDEST PUSH0 PUSH0 REVERT JUMPDEST PUSH0 PUSH0 REVERT JUMPDEST PUSH0 PUSH32 0xFFFFFFFF00000000000000000000000000000000000000000000000000000000 DUP3 AND SWAP1 POP SWAP2 SWAP1 POP JUMP JUMPDEST PUSH2 0x15FF DUP2 PUSH2 0x15CB JUMP JUMPDEST DUP2 EQ PUSH2 0x1609 JUMPI PUSH0 PUSH0 REVERT JUMPDEST POP JUMP JUMPDEST PUSH0 DUP2 CALLDATALOAD SWAP1 POP PUSH2 0x161A DUP2 PUSH2 0x15F6 JUMP JUMPDEST SWAP3 SWAP2 POP POP JUMP JUMPDEST PUSH0 PUSH1 0x20 DUP3 DUP5 SUB SLT ISZERO PUSH2 0x1635 JUMPI PUSH2 0x1634 PUSH2 0x15C3 JUMP JUMPDEST JUMPDEST PUSH0 PUSH2 0x1642 DUP5 DUP3 DUP6 ADD PUSH2 0x160C JUMP JUMPDEST SWAP2 POP POP SWAP3 SWAP2 POP POP JUMP JUMPDEST PUSH0 DUP2 ISZERO ISZERO SWAP1 POP SWAP2 SWAP1 POP JUMP JUMPDEST PUSH2 0x165F DUP2 PUSH2 0x164B JUMP JUMPDEST DUP3 MSTORE POP POP JUMP JUMPDEST PUSH0 PUSH1 0x20 DUP3 ADD SWAP1 POP PUSH2 0x1678 PUSH0 DUP4 ADD DUP5 PUSH2 0x1656 JUMP JUMPDEST SWAP3 SWAP2 POP POP JUMP JUMPDEST PUSH0 DUP2 MLOAD SWAP1 POP SWAP2 SWAP1 POP JUMP JUMPDEST PUSH0 DUP3 DUP3 MSTORE PUSH1 0x20 DUP3 ADD SWAP1 POP SWAP3 SWAP2 POP POP JUMP JUMPDEST DUP3 DUP2 DUP4 MCOPY PUSH0 DUP4 DUP4 ADD MSTORE POP POP POP JUMP JUMPDEST PUSH0 PUSH1 0x1F NOT PUSH1 0x1F DUP4 ADD AND SWAP1 POP SWAP2 SWAP1 POP JUMP JUMPDEST PUSH0 PUSH2 0x16C0 DUP3 PUSH2 0x167E JUMP JUMPDEST PUSH2 0x16CA DUP2 DUP6 PUSH2 0x1688 JUMP JUMPDEST SWAP4 POP PUSH2 0x16DA DUP2 DUP6 PUSH1 0x20 DUP7 ADD PUSH2 0x1698 JUMP JUMPDEST PUSH2 0x16E3 DUP2 PUSH2 0x16A6 JUMP JUMPDEST DUP5 ADD SWAP2 POP POP SWAP3 SWAP2 POP POP JUMP JUMPDEST PUSH0 PUSH1 0x20 DUP3 ADD SWAP1 POP DUP2 DUP2 SUB PUSH0 DUP4 ADD MSTORE PUSH2 0x1706 DUP2 DUP5 PUSH2 0x16B6 JUMP JUMPDEST SWAP1 POP SWAP3 SWAP2 POP POP JUMP JUMPDEST PUSH0 DUP2 SWAP1 POP SWAP2 SWAP1 POP JUMP JUMPDEST PUSH2 0x1720 DUP2 PUSH2 0x170E JUMP JUMPDEST DUP2 EQ PUSH2 0x172A JUMPI PUSH0 PUSH0 REVERT JUMPDEST POP JUMP JUMPDEST PUSH0 DUP2 CALLDATALOAD SWAP1 POP PUSH2 0x173B DUP2 PUSH2 0x1717 JUMP JUMPDEST SWAP3 SWAP2 POP POP JUMP JUMPDEST PUSH0 PUSH1 0x20 DUP3 DUP5 SUB SLT ISZERO PUSH2 0x1756 JUMPI PUSH2 0x1755 PUSH2 0x15C3 JUMP JUMPDEST JUMPDEST PUSH0 PUSH2 0x1763 DUP5 DUP3 DUP6 ADD PUSH2 0x172D JUMP JUMPDEST SWAP2 POP POP SWAP3 SWAP2 POP POP JUMP JUMPDEST PUSH0 PUSH20 0xFFFFFFFFFFFFFFFFFFFFFFFFFFFFFFFFFFFFFFFF DUP3 AND SWAP1 POP SWAP2 SWAP1 POP JUMP JUMPDEST PUSH0 PUSH2 0x1795 DUP3 PUSH2 0x176C JUMP JUMPDEST SWAP1 POP SWAP2 SWAP1 POP JUMP JUMPDEST PUSH2 0x17A5 DUP2 PUSH2 0x178B JUMP JUMPDEST DUP3 MSTORE POP POP JUMP JUMPDEST PUSH0 PUSH1 0x20 DUP3 ADD SWAP1 POP PUSH2 0x17BE PUSH0 DUP4 ADD DUP5 PUSH2 0x179C JUMP JUMPDEST SWAP3 SWAP2 POP POP JUMP JUMPDEST PUSH2 0x17CD DUP2 PUSH2 0x178B JUMP JUMPDEST DUP2 EQ PUSH2 0x17D7 JUMPI PUSH0 PUSH0 REVERT JUMPDEST POP JUMP JUMPDEST PUSH0 DUP2 CALLDATALOAD SWAP1 POP PUSH2 0x17E8 DUP2 PUSH2 0x17C4 JUMP JUMPDEST SWAP3 SWAP2 POP POP JUMP JUMPDEST PUSH0 PUSH0 PUSH1 0x40 DUP4 DUP6 SUB SLT ISZERO PUSH2 0x1804 JUMPI PUSH2 0x1803 PUSH2 0x15C3 JUMP JUMPDEST JUMPDEST PUSH0 PUSH2 0x1811 DUP6 DUP3 DUP7 ADD PUSH2 0x17DA JUMP JUMPDEST SWAP3 POP POP PUSH1 0x20 PUSH2 0x1822 DUP6 DUP3 DUP7 ADD PUSH2 0x172D JUMP JUMPDEST SWAP2 POP POP SWAP3 POP SWAP3 SWAP1 POP JUMP JUMPDEST PUSH2 0x1835 DUP2 PUSH2 0x170E JUMP JUMPDEST DUP3 MSTORE POP POP JUMP JUMPDEST PUSH0 PUSH1 0x20 DUP3 ADD SWAP1 POP PUSH2 0x184E PUSH0 DUP4 ADD DUP5 PUSH2 0x182C JUMP JUMPDEST SWAP3 SWAP2 POP POP JUMP JUMPDEST PUSH0 PUSH0 PUSH0 PUSH1 0x60 DUP5 DUP7 SUB SLT ISZERO PUSH2 0x186B JUMPI PUSH2 0x186A PUSH2 0x15C3 JUMP JUMPDEST JUMPDEST PUSH0 PUSH2 0x1878 DUP7 DUP3 DUP8 ADD PUSH2 0x17DA JUMP JUMPDEST SWAP4 POP POP PUSH1 0x20 PUSH2 0x1889 DUP7 DUP3 DUP8 ADD PUSH2 0x17DA JUMP JUMPDEST SWAP3 POP POP PUSH1 0x40 PUSH2 0x189A DUP7 DUP3 DUP8 ADD PUSH2 0x172D JUMP JUMPDEST SWAP2 POP POP SWAP3 POP SWAP3 POP SWAP3 JUMP JUMPDEST PUSH0 PUSH1 0x20 DUP3 DUP5 SUB SLT ISZERO PUSH2 0x18B9 JUMPI PUSH2 0x18B8 PUSH2 0x15C3 JUMP JUMPDEST JUMPDEST PUSH0 PUSH2 0x18C6 DUP5 DUP3 DUP6 ADD PUSH2 0x17DA JUMP JUMPDEST SWAP2 POP POP SWAP3 SWAP2 POP POP JUMP JUMPDEST PUSH2 0x18D8 DUP2 PUSH2 0x164B JUMP JUMPDEST DUP2 EQ PUSH2 0x18E2 JUMPI PUSH0 PUSH0 REVERT JUMPDEST POP JUMP JUMPDEST PUSH0 DUP2 CALLDATALOAD SWAP1 POP PUSH2 0x18F3 DUP2 PUSH2 0x18CF JUMP JUMPDEST SWAP3 SWAP2 POP POP JUMP JUMPDEST PUSH0 PUSH0 PUSH1 0x40 DUP4 DUP6 SUB SLT ISZERO PUSH2 0x190F JUMPI PUSH2 0x190E PUSH2 0x15C3 JUMP JUMPDEST JUMPDEST PUSH0 PUSH2 0x191C DUP6 DUP3 DUP7 ADD PUSH2 0x17DA JUMP JUMPDEST SWAP3 POP POP PUSH1 0x20 PUSH2 0x192D DUP6 DUP3 DUP7 ADD PUSH2 0x18E5 JUMP JUMPDEST SWAP2 POP POP SWAP3 POP SWAP3 SWAP1 POP JUMP JUMPDEST PUSH0 PUSH0 REVERT JUMPDEST PUSH0 PUSH0 REVERT JUMPDEST PUSH32 0x4E487B7100000000000000000000000000000000000000000000000000000000 PUSH0 MSTORE PUSH1 0x41 PUSH1 0x4 MSTORE PUSH1 0x24 PUSH0 REVERT JUMPDEST PUSH2 0x1975 DUP3 PUSH2 0x16A6 JUMP JUMPDEST DUP2 ADD DUP2 DUP2 LT PUSH8 0xFFFFFFFFFFFFFFFF DUP3 GT OR ISZERO PUSH2 0x1994 JUMPI PUSH2 0x1993 PUSH2 0x193F JUMP JUMPDEST JUMPDEST DUP1 PUSH1 0x40 MSTORE POP POP POP JUMP JUMPDEST PUSH0 PUSH2 0x19A6 PUSH2 0x15BA JUMP JUMPDEST SWAP1 POP PUSH2 0x19B2 DUP3 DUP3 PUSH2 0x196C JUMP JUMPDEST SWAP2 SWAP1 POP JUMP JUMPDEST PUSH0 PUSH8 0xFFFFFFFFFFFFFFFF DUP3 GT ISZERO PUSH2 0x19D1 JUMPI PUSH2 0x19D0 PUSH2 0x193F JUMP JUMPDEST JUMPDEST PUSH2 0x19DA DUP3 PUSH2 0x16A6 JUMP JUMPDEST SWAP1 POP PUSH1 0x20 DUP2 ADD SWAP1 POP SWAP2 SWAP1 POP JUMP JUMPDEST DUP3 DUP2 DUP4 CALLDATACOPY PUSH0 DUP4 DUP4 ADD MSTORE POP POP POP JUMP JUMPDEST PUSH0 PUSH2 0x1A07 PUSH2 0x1A02 DUP5 PUSH2 0x19B7 JUMP JUMPDEST PUSH2 0x199D JUMP JUMPDEST SWAP1 POP DUP3 DUP2 MSTORE PUSH1 0x20 DUP2 ADD DUP5 DUP5 DUP5 ADD GT ISZERO PUSH2 0x1A23 JUMPI PUSH2 0x1A22 PUSH2 0x193B JUMP JUMPDEST JUMPDEST PUSH2 0x1A2E DUP5 DUP3 DUP6 PUSH2 0x19E7 JUMP JUMPDEST POP SWAP4 SWAP3 POP POP POP JUMP JUMPDEST PUSH0 DUP3 PUSH1 0x1F DUP4 ADD SLT PUSH2 0x1A4A JUMPI PUSH2 0x1A49 PUSH2 0x1937 JUMP JUMPDEST JUMPDEST DUP2 CALLDATALOAD PUSH2 0x1A5A DUP5 DUP3 PUSH1 0x20 DUP7 ADD PUSH2 0x19F5 JUMP JUMPDEST SWAP2 POP POP SWAP3 SWAP2 POP POP JUMP JUMPDEST PUSH0 PUSH0 PUSH0 PUSH0 PUSH1 0x80 DUP6 DUP8 SUB SLT ISZERO PUSH2 0x1A7B JUMPI PUSH2 0x1A7A PUSH2 0x15C3 JUMP JUMPDEST JUMPDEST PUSH0 PUSH2 0x1A88 DUP8 DUP3 DUP9 ADD PUSH2 0x17DA JUMP JUMPDEST SWAP5 POP POP PUSH1 0x20 PUSH2 0x1A99 DUP8 DUP3 DUP9 ADD PUSH2 0x17DA JUMP JUMPDEST SWAP4 POP POP PUSH1 0x40 PUSH2 0x1AAA DUP8 DUP3 DUP9 ADD PUSH2 0x172D JUMP JUMPDEST SWAP3 POP POP PUSH1 0x60 DUP6 ADD CALLDATALOAD PUSH8 0xFFFFFFFFFFFFFFFF DUP2 GT ISZERO PUSH2 0x1ACB JUMPI PUSH2 0x1ACA PUSH2 0x15C7 JUMP JUMPDEST JUMPDEST PUSH2 0x1AD7 DUP8 DUP3 DUP9 ADD PUSH2 0x1A36 JUMP JUMPDEST SWAP2 POP POP SWAP3 SWAP6 SWAP2 SWAP5 POP SWAP3 POP JUMP JUMPDEST PUSH0 PUSH8 0xFFFFFFFFFFFFFFFF DUP3 GT ISZERO PUSH2 0x1AFD JUMPI PUSH2 0x1AFC PUSH2 0x193F JUMP JUMPDEST JUMPDEST PUSH2 0x1B06 DUP3 PUSH2 0x16A6 JUMP JUMPDEST SWAP1 POP PUSH1 0x20 DUP2 ADD SWAP1 POP SWAP2 SWAP1 POP JUMP JUMPDEST PUSH0 PUSH2 0x1B25 PUSH2 0x1B20 DUP5 PUSH2 0x1AE3 JUMP JUMPDEST PUSH2 0x199D JUMP JUMPDEST SWAP1 POP DUP3 DUP2 MSTORE PUSH1 0x20 DUP2 ADD DUP5 DUP5 DUP5 ADD GT ISZERO PUSH2 0x1B41 JUMPI PUSH2 0x1B40 PUSH2 0x193B JUMP JUMPDEST JUMPDEST PUSH2 0x1B4C DUP5 DUP3 DUP6 PUSH2 0x19E7 JUMP JUMPDEST POP SWAP4 SWAP3 POP POP POP JUMP JUMPDEST PUSH0 DUP3 PUSH1 0x1F DUP4 ADD SLT PUSH2 0x1B68 JUMPI PUSH2 0x1B67 PUSH2 0x1937 JUMP JUMPDEST JUMPDEST DUP2 CALLDATALOAD PUSH2 0x1B78 DUP5 DUP3 PUSH1 0x20 DUP7 ADD PUSH2 0x1B13 JUMP JUMPDEST SWAP2 POP POP SWAP3 SWAP2 POP POP JUMP JUMPDEST PUSH0 PUSH0 PUSH1 0x40 DUP4 DUP6 SUB SLT ISZERO PUSH2 0x1B97 JUMPI PUSH2 0x1B96 PUSH2 0x15C3 JUMP JUMPDEST JUMPDEST PUSH0 PUSH2 0x1BA4 DUP6 DUP3 DUP7 ADD PUSH2 0x17DA JUMP JUMPDEST SWAP3 POP POP PUSH1 0x20 DUP4 ADD CALLDATALOAD PUSH8 0xFFFFFFFFFFFFFFFF DUP2 GT ISZERO PUSH2 0x1BC5 JUMPI PUSH2 0x1BC4 PUSH2 0x15C7 JUMP JUMPDEST JUMPDEST PUSH2 0x1BD1 DUP6 DUP3 DUP7 ADD PUSH2 0x1B54 JUMP JUMPDEST SWAP2 POP POP SWAP3 POP SWAP3 SWAP1 POP JUMP JUMPDEST PUSH0 PUSH0 PUSH1 0x40 DUP4 DUP6 SUB SLT ISZERO PUSH2 0x1BF1 JUMPI PUSH2 0x1BF0 PUSH2 0x15C3 JUMP JUMPDEST JUMPDEST PUSH0 PUSH2 0x1BFE DUP6 DUP3 DUP7 ADD PUSH2 0x17DA JUMP JUMPDEST SWAP3 POP POP PUSH1 0x20 PUSH2 0x1C0F DUP6 DUP3 DUP7 ADD PUSH2 0x17DA JUMP JUMPDEST SWAP2 POP POP SWAP3 POP SWAP3 SWAP1 POP JUMP JUMPDEST PUSH32 0x4E487B7100000000000000000000000000000000000000000000000000000000 PUSH0 MSTORE PUSH1 0x22 PUSH1 0x4 MSTORE PUSH1 0x24 PUSH0 REVERT JUMPDEST PUSH0 PUSH1 0x2 DUP3 DIV SWAP1 POP PUSH1 0x1 DUP3 AND DUP1 PUSH2 0x1C5D JUMPI PUSH1 0x7F DUP3 AND SWAP2 POP JUMPDEST PUSH1 0x20 DUP3 LT DUP2 SUB PUSH2 0x1C70 JUMPI PUSH2 0x1C6F PUSH2 0x1C19 JUMP JUMPDEST JUMPDEST POP SWAP2 SWAP1 POP JUMP JUMPDEST PUSH32 0x4552433732313A20617070726F76656420717565727920666F72206E6F6E6578 PUSH0 DUP3 ADD MSTORE PUSH32 0x697374656E7420746F6B656E0000000000000000000000000000000000000000 PUSH1 0x20 DUP3 ADD MSTORE POP JUMP JUMPDEST PUSH0 PUSH2 0x1CD0 PUSH1 0x2C DUP4 PUSH2 0x1688 JUMP JUMPDEST SWAP2 POP PUSH2 0x1CDB DUP3 PUSH2 0x1C76 JUMP JUMPDEST PUSH1 0x40 DUP3 ADD SWAP1 POP SWAP2 SWAP1 POP JUMP JUMPDEST PUSH0 PUSH1 0x20 DUP3 ADD SWAP1 POP DUP2 DUP2 SUB PUSH0 DUP4 ADD MSTORE PUSH2 0x1CFD DUP2 PUSH2 0x1CC4 JUMP JUMPDEST SWAP1 POP SWAP2 SWAP1 POP JUMP JUMPDEST PUSH32 0x4552433732313A20617070726F76652063616C6C6572206973206E6F7420746F PUSH0 DUP3 ADD MSTORE PUSH32 0x6B656E206F776E65720000000000000000000000000000000000000000000000 PUSH1 0x20 DUP3 ADD MSTORE POP JUMP JUMPDEST PUSH0 PUSH2 0x1D5E PUSH1 0x29 DUP4 PUSH2 0x1688 JUMP JUMPDEST SWAP2 POP PUSH2 0x1D69 DUP3 PUSH2 0x1D04 JUMP JUMPDEST PUSH1 0x40 DUP3 ADD SWAP1 POP SWAP2 SWAP1 POP JUMP JUMPDEST PUSH0 PUSH1 0x20 DUP3 ADD SWAP1 POP DUP2 DUP2 SUB PUSH0 DUP4 ADD MSTORE PUSH2 0x1D8B DUP2 PUSH2 0x1D52 JUMP JUMPDEST SWAP1 POP SWAP2 SWAP1 POP JUMP JUMPDEST PUSH32 0x4E487B7100000000000000000000000000000000000000000000000000000000 PUSH0 MSTORE PUSH1 0x11 PUSH1 0x4 MSTORE PUSH1 0x24 PUSH0 REVERT JUMPDEST PUSH0 PUSH2 0x1DC9 DUP3 PUSH2 0x170E JUMP JUMPDEST SWAP2 POP PUSH2 0x1DD4 DUP4 PUSH2 0x170E JUMP JUMPDEST SWAP3 POP DUP3 DUP3 SUB SWAP1 POP DUP2 DUP2 GT ISZERO PUSH2 0x1DEC JUMPI PUSH2 0x1DEB PUSH2 0x1D92 JUMP JUMPDEST JUMPDEST SWAP3 SWAP2 POP POP JUMP JUMPDEST PUSH32 0x4552433732313A207472616E736665722063616C6C6572206973206E6F74206F PUSH0 DUP3 ADD MSTORE PUSH32 0x776E6572206E6F7220617070726F766564000000000000000000000000000000 PUSH1 0x20 DUP3 ADD MSTORE POP JUMP JUMPDEST PUSH0 PUSH2 0x1E4C PUSH1 0x31 DUP4 PUSH2 0x1688 JUMP JUMPDEST SWAP2 POP PUSH2 0x1E57 DUP3 PUSH2 0x1DF2 JUMP JUMPDEST PUSH1 0x40 DUP3 ADD SWAP1 POP SWAP2 SWAP1 POP JUMP JUMPDEST PUSH0 PUSH1 0x20 DUP3 ADD SWAP1 POP DUP2 DUP2 SUB PUSH0 DUP4 ADD MSTORE PUSH2 0x1E79 DUP2 PUSH2 0x1E40 JUMP JUMPDEST SWAP1 POP SWAP2 SWAP1 POP JUMP JUMPDEST PUSH32 0x4552433732313A206F776E657220717565727920666F72206E6F6E6578697374 PUSH0 DUP3 ADD MSTORE PUSH32 0x656E7420746F6B656E0000000000000000000000000000000000000000000000 PUSH1 0x20 DUP3 ADD MSTORE POP JUMP JUMPDEST PUSH0 PUSH2 0x1EDA PUSH1 0x29 DUP4 PUSH2 0x1688 JUMP JUMPDEST SWAP2 POP PUSH2 0x1EE5 DUP3 PUSH2 0x1E80 JUMP JUMPDEST PUSH1 0x40 DUP3 ADD SWAP1 POP SWAP2 SWAP1 POP JUMP JUMPDEST PUSH0 PUSH1 0x20 DUP3 ADD SWAP1 POP DUP2 DUP2 SUB PUSH0 DUP4 ADD MSTORE PUSH2 0x1F07 DUP2 PUSH2 0x1ECE JUMP JUMPDEST SWAP1 POP SWAP2 SWAP1 POP JUMP JUMPDEST PUSH32 0x4552433732313A2062616C616E636520717565727920666F7220746865207A65 PUSH0 DUP3 ADD MSTORE PUSH32 0x726F206164647265737300000000000000000000000000000000000000000000 PUSH1 0x20 DUP3 ADD MSTORE POP JUMP JUMPDEST PUSH0 PUSH2 0x1F68 PUSH1 0x2A DUP4 PUSH2 0x1688 JUMP JUMPDEST SWAP2 POP PUSH2 0x1F73 DUP3 PUSH2 0x1F0E JUMP JUMPDEST PUSH1 0x40 DUP3 ADD SWAP1 POP SWAP2 SWAP1 POP JUMP JUMPDEST PUSH0 PUSH1 0x20 DUP3 ADD SWAP1 POP DUP2 DUP2 SUB PUSH0 DUP4 ADD MSTORE PUSH2 0x1F95 DUP2 PUSH2 0x1F5C JUMP JUMPDEST SWAP1 POP SWAP2 SWAP1 POP JUMP JUMPDEST PUSH32 0x4552433732313A20617070726F766520746F2063616C6C657200000000000000 PUSH0 DUP3 ADD MSTORE POP JUMP JUMPDEST PUSH0 PUSH2 0x1FD0 PUSH1 0x19 DUP4 PUSH2 0x1688 JUMP JUMPDEST SWAP2 POP PUSH2 0x1FDB DUP3 PUSH2 0x1F9C JUMP JUMPDEST PUSH1 0x20 DUP3 ADD SWAP1 POP SWAP2 SWAP1 POP JUMP JUMPDEST PUSH0 PUSH1 0x20 DUP3 ADD SWAP1 POP DUP2 DUP2 SUB PUSH0 DUP4 ADD MSTORE PUSH2 0x1FFD DUP2 PUSH2 0x1FC4 JUMP JUMPDEST SWAP1 POP SWAP2 SWAP1 POP JUMP JUMPDEST PUSH32 0x4552433732313A207472616E7366657220746F206E6F6E204552433732315265 PUSH0 DUP3 ADD MSTORE PUSH32 0x63656976657220696D706C656D656E7465720000000000000000000000000000 PUSH1 0x20 DUP3 ADD MSTORE POP JUMP JUMPDEST PUSH0 PUSH2 0x205E PUSH1 0x32 DUP4 PUSH2 0x1688 JUMP JUMPDEST SWAP2 POP PUSH2 0x2069 DUP3 PUSH2 0x2004 JUMP JUMPDEST PUSH1 0x40 DUP3 ADD SWAP1 POP SWAP2 SWAP1 POP JUMP JUMPDEST PUSH0 PUSH1 0x20 DUP3 ADD SWAP1 POP DUP2 DUP2 SUB PUSH0 DUP4 ADD MSTORE PUSH2 0x208B DUP2 PUSH2 0x2052 JUMP JUMPDEST SWAP1 POP SWAP2 SWAP1 POP JUMP JUMPDEST PUSH32 0x4552433732314D657461646174613A2055524920717565727920666F72206E6F PUSH0 DUP3 ADD MSTORE PUSH32 0x6E6578697374656E7420746F6B656E0000000000000000000000000000000000 PUSH1 0x20 DUP3 ADD MSTORE POP JUMP JUMPDEST PUSH0 PUSH2 0x20EC PUSH1 0x2F DUP4 PUSH2 0x1688 JUMP JUMPDEST SWAP2 POP PUSH2 0x20F7 DUP3 PUSH2 0x2092 JUMP JUMPDEST PUSH1 0x40 DUP3 ADD SWAP1 POP SWAP2 SWAP1 POP JUMP JUMPDEST PUSH0 PUSH1 0x20 DUP3 ADD SWAP1 POP DUP2 DUP2 SUB PUSH0 DUP4 ADD MSTORE PUSH2 0x2119 DUP2 PUSH2 0x20E0 JUMP JUMPDEST SWAP1 POP SWAP2 SWAP1 POP JUMP JUMPDEST PUSH32 0x4F6E6C792074686520636F6E7472616374206F776E65722063616E206D696E74 PUSH0 DUP3 ADD MSTORE PUSH32 0x20746F6B656E7300000000000000000000000000000000000000000000000000 PUSH1 0x20 DUP3 ADD MSTORE POP JUMP JUMPDEST PUSH0 PUSH2 0x217A PUSH1 0x27 DUP4 PUSH2 0x1688 JUMP JUMPDEST SWAP2 POP PUSH2 0x2185 DUP3 PUSH2 0x2120 JUMP JUMPDEST PUSH1 0x40 DUP3 ADD SWAP1 POP SWAP2 SWAP1 POP JUMP JUMPDEST PUSH0 PUSH1 0x20 DUP3 ADD SWAP1 POP DUP2 DUP2 SUB PUSH0 DUP4 ADD MSTORE PUSH2 0x21A7 DUP2 PUSH2 0x216E JUMP JUMPDEST SWAP1 POP SWAP2 SWAP1 POP JUMP JUMPDEST PUSH0 PUSH2 0x21B8 DUP3 PUSH2 0x170E JUMP JUMPDEST SWAP2 POP PUSH2 0x21C3 DUP4 PUSH2 0x170E JUMP JUMPDEST SWAP3 POP DUP3 DUP3 ADD SWAP1 POP DUP1 DUP3 GT ISZERO PUSH2 0x21DB JUMPI PUSH2 0x21DA PUSH2 0x1D92 JUMP JUMPDEST JUMPDEST SWAP3 SWAP2 POP POP JUMP JUMPDEST PUSH0 DUP2 SWAP1 POP DUP2 PUSH0 MSTORE PUSH1 0x20 PUSH0 KECCAK256 SWAP1 POP SWAP2 SWAP1 POP JUMP JUMPDEST PUSH0 PUSH1 0x20 PUSH1 0x1F DUP4 ADD DIV SWAP1 POP SWAP2 SWAP1 POP JUMP JUMPDEST PUSH0 DUP3 DUP3 SHL SWAP1 POP SWAP3 SWAP2 POP POP JUMP JUMPDEST PUSH0 PUSH1 0x8 DUP4 MUL PUSH2 0x223D PUSH32 0xFFFFFFFFFFFFFFFFFFFFFFFFFFFFFFFFFFFFFFFFFFFFFFFFFFFFFFFFFFFFFFFF DUP3 PUSH2 0x2202 JUMP JUMPDEST PUSH2 0x2247 DUP7 DUP4 PUSH2 0x2202 JUMP JUMPDEST SWAP6 POP DUP1 NOT DUP5 AND SWAP4 POP DUP1 DUP7 AND DUP5 OR SWAP3 POP POP POP SWAP4 SWAP3 POP POP POP JUMP JUMPDEST PUSH0 DUP2 SWAP1 POP SWAP2 SWAP1 POP JUMP JUMPDEST PUSH0 PUSH2 0x2282 PUSH2 0x227D PUSH2 0x2278 DUP5 PUSH2 0x170E JUMP JUMPDEST PUSH2 0x225F JUMP JUMPDEST PUSH2 0x170E JUMP JUMPDEST SWAP1 POP SWAP2 SWAP1 POP JUMP JUMPDEST PUSH0 DUP2 SWAP1 POP SWAP2 SWAP1 POP JUMP JUMPDEST PUSH2 0x229B DUP4 PUSH2 0x2268 JUMP JUMPDEST PUSH2 0x22AF PUSH2 0x22A7 DUP3 PUSH2 0x2289 JUMP JUMPDEST DUP5 DUP5 SLOAD PUSH2 0x220E JUMP JUMPDEST DUP3 SSTORE POP POP POP POP JUMP JUMPDEST PUSH0 PUSH0 SWAP1 POP SWAP1 JUMP JUMPDEST PUSH2 0x22C6 PUSH2 0x22B7 JUMP JUMPDEST PUSH2 0x22D1 DUP2 DUP5 DUP5 PUSH2 0x2292 JUMP JUMPDEST POP POP POP JUMP JUMPDEST JUMPDEST DUP2 DUP2 LT ISZERO PUSH2 0x22F4 JUMPI PUSH2 0x22E9 PUSH0 DUP3 PUSH2 0x22BE JUMP JUMPDEST PUSH1 0x1 DUP2 ADD SWAP1 POP PUSH2 0x22D7 JUMP JUMPDEST POP POP JUMP JUMPDEST PUSH1 0x1F DUP3 GT ISZERO PUSH2 0x2339 JUMPI PUSH2 0x230A DUP2 PUSH2 0x21E1 JUMP JUMPDEST PUSH2 0x2313 DUP5 PUSH2 0x21F3 JUMP JUMPDEST DUP2 ADD PUSH1 0x20 DUP6 LT ISZERO PUSH2 0x2322 JUMPI DUP2 SWAP1 POP JUMPDEST PUSH2 0x2336 PUSH2 0x232E DUP6 PUSH2 0x21F3 JUMP JUMPDEST DUP4 ADD DUP3 PUSH2 0x22D6 JUMP JUMPDEST POP POP JUMPDEST POP POP POP JUMP JUMPDEST PUSH0 DUP3 DUP3 SHR SWAP1 POP SWAP3 SWAP2 POP POP JUMP JUMPDEST PUSH0 PUSH2 0x2359 PUSH0 NOT DUP5 PUSH1 0x8 MUL PUSH2 0x233E JUMP JUMPDEST NOT DUP1 DUP4 AND SWAP2 POP POP SWAP3 SWAP2 POP POP JUMP JUMPDEST PUSH0 PUSH2 0x2371 DUP4 DUP4 PUSH2 0x234A JUMP JUMPDEST SWAP2 POP DUP3 PUSH1 0x2 MUL DUP3 OR SWAP1 POP SWAP3 SWAP2 POP POP JUMP JUMPDEST PUSH2 0x238A DUP3 PUSH2 0x167E JUMP JUMPDEST PUSH8 0xFFFFFFFFFFFFFFFF DUP2 GT ISZERO PUSH2 0x23A3 JUMPI PUSH2 0x23A2 PUSH2 0x193F JUMP JUMPDEST JUMPDEST PUSH2 0x23AD DUP3 SLOAD PUSH2 0x1C46 JUMP JUMPDEST PUSH2 0x23B8 DUP3 DUP3 DUP6 PUSH2 0x22F8 JUMP JUMPDEST PUSH0 PUSH1 0x20 SWAP1 POP PUSH1 0x1F DUP4 GT PUSH1 0x1 DUP2 EQ PUSH2 0x23E9 JUMPI PUSH0 DUP5 ISZERO PUSH2 0x23D7 JUMPI DUP3 DUP8 ADD MLOAD SWAP1 POP JUMPDEST PUSH2 0x23E1 DUP6 DUP3 PUSH2 0x2366 JUMP JUMPDEST DUP7 SSTORE POP PUSH2 0x2448 JUMP JUMPDEST PUSH1 0x1F NOT DUP5 AND PUSH2 0x23F7 DUP7 PUSH2 0x21E1 JUMP JUMPDEST PUSH0 JUMPDEST DUP3 DUP2 LT ISZERO PUSH2 0x241E JUMPI DUP5 DUP10 ADD MLOAD DUP3 SSTORE PUSH1 0x1 DUP3 ADD SWAP2 POP PUSH1 0x20 DUP6 ADD SWAP5 POP PUSH1 0x20 DUP2 ADD SWAP1 POP PUSH2 0x23F9 JUMP JUMPDEST DUP7 DUP4 LT ISZERO PUSH2 0x243B JUMPI DUP5 DUP10 ADD MLOAD PUSH2 0x2437 PUSH1 0x1F DUP10 AND DUP3 PUSH2 0x234A JUMP JUMPDEST DUP4 SSTORE POP JUMPDEST PUSH1 0x1 PUSH1 0x2 DUP9 MUL ADD DUP9 SSTORE POP POP POP JUMPDEST POP POP POP POP POP POP JUMP JUMPDEST PUSH0 PUSH2 0x245A DUP3 PUSH2 0x170E JUMP JUMPDEST SWAP2 POP PUSH32 0xFFFFFFFFFFFFFFFFFFFFFFFFFFFFFFFFFFFFFFFFFFFFFFFFFFFFFFFFFFFFFFFF DUP3 SUB PUSH2 0x248C JUMPI PUSH2 0x248B PUSH2 0x1D92 JUMP JUMPDEST JUMPDEST PUSH1 0x1 DUP3 ADD SWAP1 POP SWAP2 SWAP1 POP JUMP JUMPDEST PUSH32 0x4552433732313A207472616E73666572206F6620746F6B656E20746861742069 PUSH0 DUP3 ADD MSTORE PUSH32 0x73206E6F74206F776E0000000000000000000000000000000000000000000000 PUSH1 0x20 DUP3 ADD MSTORE POP JUMP JUMPDEST PUSH0 PUSH2 0x24F1 PUSH1 0x29 DUP4 PUSH2 0x1688 JUMP JUMPDEST SWAP2 POP PUSH2 0x24FC DUP3 PUSH2 0x2497 JUMP JUMPDEST PUSH1 0x40 DUP3 ADD SWAP1 POP SWAP2 SWAP1 POP JUMP JUMPDEST PUSH0 PUSH1 0x20 DUP3 ADD SWAP1 POP DUP2 DUP2 SUB PUSH0 DUP4 ADD MSTORE PUSH2 0x251E DUP2 PUSH2 0x24E5 JUMP JUMPDEST SWAP1 POP SWAP2 SWAP1 POP JUMP JUMPDEST PUSH32 0x4552433732313A207472616E7366657220746F20746865207A65726F20616464 PUSH0 DUP3 ADD MSTORE PUSH32 0x7265737300000000000000000000000000000000000000000000000000000000 PUSH1 0x20 DUP3 ADD MSTORE POP JUMP JUMPDEST PUSH0 PUSH2 0x257F PUSH1 0x24 DUP4 PUSH2 0x1688 JUMP JUMPDEST SWAP2 POP PUSH2 0x258A DUP3 PUSH2 0x2525 JUMP JUMPDEST PUSH1 0x40 DUP3 ADD SWAP1 POP SWAP2 SWAP1 POP JUMP JUMPDEST PUSH0 PUSH1 0x20 DUP3 ADD SWAP1 POP DUP2 DUP2 SUB PUSH0 DUP4 ADD MSTORE PUSH2 0x25AC DUP2 PUSH2 0x2573 JUMP JUMPDEST SWAP1 POP SWAP2 SWAP1 POP JUMP JUMPDEST PUSH0 DUP2 MLOAD SWAP1 POP SWAP2 SWAP1 POP JUMP JUMPDEST PUSH0 DUP3 DUP3 MSTORE PUSH1 0x20 DUP3 ADD SWAP1 POP SWAP3 SWAP2 POP POP JUMP JUMPDEST PUSH0 PUSH2 0x25D7 DUP3 PUSH2 0x25B3 JUMP JUMPDEST PUSH2 0x25E1 DUP2 DUP6 PUSH2 0x25BD JUMP JUMPDEST SWAP4 POP PUSH2 0x25F1 DUP2 DUP6 PUSH1 0x20 DUP7 ADD PUSH2 0x1698 JUMP JUMPDEST PUSH2 0x25FA DUP2 PUSH2 0x16A6 JUMP JUMPDEST DUP5 ADD SWAP2 POP POP SWAP3 SWAP2 POP POP JUMP JUMPDEST PUSH0 PUSH1 0x80 DUP3 ADD SWAP1 POP PUSH2 0x2618 PUSH0 DUP4 ADD DUP8 PUSH2 0x179C JUMP JUMPDEST PUSH2 0x2625 PUSH1 0x20 DUP4 ADD DUP7 PUSH2 0x179C JUMP JUMPDEST PUSH2 0x2632 PUSH1 0x40 DUP4 ADD DUP6 PUSH2 0x182C JUMP JUMPDEST DUP2 DUP2 SUB PUSH1 0x60 DUP4 ADD MSTORE PUSH2 0x2644 DUP2 DUP5 PUSH2 0x25CD JUMP JUMPDEST SWAP1 POP SWAP6 SWAP5 POP POP POP POP POP JUMP JUMPDEST PUSH0 DUP2 MLOAD SWAP1 POP PUSH2 0x265D DUP2 PUSH2 0x15F6 JUMP JUMPDEST SWAP3 SWAP2 POP POP JUMP JUMPDEST PUSH0 PUSH1 0x20 DUP3 DUP5 SUB SLT ISZERO PUSH2 0x2678 JUMPI PUSH2 0x2677 PUSH2 0x15C3 JUMP JUMPDEST JUMPDEST PUSH0 PUSH2 0x2685 DUP5 DUP3 DUP6 ADD PUSH2 0x264F JUMP JUMPDEST SWAP2 POP POP SWAP3 SWAP2 POP POP JUMP INVALID LOG2 PUSH5 0x6970667358 0x22 SLT KECCAK256 PUSH6 0xC10FFE636720 RJUMP 0x48E3 PUSH6 0xE9AD184BAA89 0xC7 EXTCODESIZE 0x4B OR ADDRESS CALLDATASIZE SWAP11 CALLDATACOPY 0xD7 JUMPDEST CREATE 0x1E 0xD6 PUSH22 0x3C64736F6C634300081E003300000000000000000000 "
				},
				"gasEstimates": {
					"creation": {
						"codeDepositCost": "1984800",
						"executionCost": "infinite",
						"totalCost": "infinite"
					},
					"external": {
						"approve(address,uint256)": "infinite",
						"balanceOf(address)": "2908",
						"getApproved(uint256)": "5165",
						"isApprovedForAll(address,address)": "infinite",
						"mint(address,string)": "infinite",
						"name()": "infinite",
						"nextTokenIdToMint()": "2492",
						"owner()": "2575",
						"ownerOf(uint256)": "2981",
						"safeTransferFrom(address,address,uint256)": "infinite",
						"safeTransferFrom(address,address,uint256,bytes)": "infinite",
						"setApprovalForAll(address,bool)": "infinite",
						"supportsInterface(bytes4)": "736",
						"symbol()": "infinite",
						"tokenURI(uint256)": "infinite",
						"totalSupply()": "infinite",
						"transferFrom(address,address,uint256)": "infinite"
					},
					"internal": {
						"_checkOnERC721Received(address,address,uint256,bytes memory)": "infinite",
						"_transfer(address,address,uint256)": "infinite"
					}
				},
				"methodIdentifiers": {
					"approve(address,uint256)": "095ea7b3",
					"balanceOf(address)": "70a08231",
					"getApproved(uint256)": "081812fc",
					"isApprovedForAll(address,address)": "e985e9c5",
					"mint(address,string)": "d0def521",
					"name()": "06fdde03",
					"nextTokenIdToMint()": "3b1475a7",
					"owner()": "8da5cb5b",
					"ownerOf(uint256)": "6352211e",
					"safeTransferFrom(address,address,uint256)": "42842e0e",
					"safeTransferFrom(address,address,uint256,bytes)": "b88d4fde",
					"setApprovalForAll(address,bool)": "a22cb465",
					"supportsInterface(bytes4)": "01ffc9a7",
					"symbol()": "95d89b41",
					"tokenURI(uint256)": "c87b56dd",
					"totalSupply()": "18160ddd",
					"transferFrom(address,address,uint256)": "23b872dd"
				}
			},
			"storageLayout": {
				"storage": [
					{
						"astId": 4,
						"contract": "contracts/ERC721.sol:ERC721",
						"label": "name",
						"offset": 0,
						"slot": "0",
						"type": "t_string_storage"
					},
					{
						"astId": 6,
						"contract": "contracts/ERC721.sol:ERC721",
						"label": "symbol",
						"offset": 0,
						"slot": "1",
						"type": "t_string_storage"
					},
					{
						"astId": 8,
						"contract": "contracts/ERC721.sol:ERC721",
						"label": "nextTokenIdToMint",
						"offset": 0,
						"slot": "2",
						"type": "t_uint256"
					},
					{
						"astId": 10,
						"contract": "contracts/ERC721.sol:ERC721",
						"label": "owner",
						"offset": 0,
						"slot": "3",
						"type": "t_address"
					},
					{
						"astId": 14,
						"contract": "contracts/ERC721.sol:ERC721",
						"label": "_owners",
						"offset": 0,
						"slot": "4",
						"type": "t_mapping(t_uint256,t_address)"
					},
					{
						"astId": 18,
						"contract": "contracts/ERC721.sol:ERC721",
						"label": "_balances",
						"offset": 0,
						"slot": "5",
						"type": "t_mapping(t_address,t_uint256)"
					},
					{
						"astId": 22,
						"contract": "contracts/ERC721.sol:ERC721",
						"label": "_tokenApprovals",
						"offset": 0,
						"slot": "6",
						"type": "t_mapping(t_uint256,t_address)"
					},
					{
						"astId": 28,
						"contract": "contracts/ERC721.sol:ERC721",
						"label": "_operatorApprovals",
						"offset": 0,
						"slot": "7",
						"type": "t_mapping(t_address,t_mapping(t_address,t_bool))"
					},
					{
						"astId": 32,
						"contract": "contracts/ERC721.sol:ERC721",
						"label": "_tokenURIs",
						"offset": 0,
						"slot": "8",
						"type": "t_mapping(t_uint256,t_string_storage)"
					}
				],
				"types": {
					"t_address": {
						"encoding": "inplace",
						"label": "address",
						"numberOfBytes": "20"
					},
					"t_bool": {
						"encoding": "inplace",
						"label": "bool",
						"numberOfBytes": "1"
					},
					"t_mapping(t_address,t_bool)": {
						"encoding": "mapping",
						"key": "t_address",
						"label": "mapping(address => bool)",
						"numberOfBytes": "32",
						"value": "t_bool"
					},
					"t_mapping(t_address,t_mapping(t_address,t_bool))": {
						"encoding": "mapping",
						"key": "t_address",
						"label": "mapping(address => mapping(address => bool))",
						"numberOfBytes": "32",
						"value": "t_mapping(t_address,t_bool)"
					},
					"t_mapping(t_address,t_uint256)": {
						"encoding": "mapping",
						"key": "t_address",
						"label": "mapping(address => uint256)",
						"numberOfBytes": "32",
						"value": "t_uint256"
					},
					"t_mapping(t_uint256,t_address)": {
						"encoding": "mapping",
						"key": "t_uint256",
						"label": "mapping(uint256 => address)",
						"numberOfBytes": "32",
						"value": "t_address"
					},
					"t_mapping(t_uint256,t_string_storage)": {
						"encoding": "mapping",
						"key": "t_uint256",
						"label": "mapping(uint256 => string)",
						"numberOfBytes": "32",
						"value": "t_string_storage"
					},
					"t_string_storage": {
						"encoding": "bytes",
						"label": "string",
						"numberOfBytes": "32"
					},
					"t_uint256": {
						"encoding": "inplace",
						"label": "uint256",
						"numberOfBytes": "32"
					}
				}
			},
			"userdoc": {
				"kind": "user",
				"methods": {},
				"version": 1
			}
		}
	}
}